:100000000C9463000C948B000C948B000C948B006C
:100010000C948B000C948B000C948B000C948B0034
:100020000C948B000C948B000C948B000C948B0024
:100030000C948B000C948B000C948B000C948B0014
:100040000C94AE020C948B000C9466040C948B0000
:100050000C948B000C948B000C948B000C948B00F4
:100060000C948B000C948B000000000024002700EF
:100070002A0000000000250028002B0000000000DE
:1000800023002600290004040404040404040202DA
:100090000202020203030303030301020408102007
:1000A0004080010204081020010204081020000012
:1000B0000007000201000003040600000000000029
:1000C0000000C2011B0511241FBECFEFD4E0DEBF2C
:1000D000CDBF11E0A0E0B1E0ECE7FBE002C005908D
:1000E0000D92A032B107D9F711E0A0E2B1E001C052
:1000F0001D92AB3DB107E1F710E0C6ECD0E004C0C3
:100100002297FE010E94B805C23CD107C9F70E94A0
:100110001C020C94BC050C940000CF92DF92EF926D
:10012000FF920F931F936C017A018B01FC012085D4
:100130003185442737FD4095542F60E67AEE80E004
:1001400090E00E948705CA01B901A80197010E94A9
:100150008705F60124833583468357831F910F91CA
:10016000FF90EF90DF90CF9008950F931F93CF9360
:10017000DF93EC018B018A859B85029719F561302D
:10018000710581F06230710524F46115710541F04B
:1001900019C06230710561F06330710599F40AC0CD
:1001A00060E001C061E08E850E94430261E007C00B
:1001B00061E001C060E08E850E94430260E08889B2
:1001C0000E9443028A859B850497D1F50130110571
:1001D00099F0023011051CF4012B41F031C00230BE
:1001E0001105C1F00330110559F51AC061E08E8583
:1001F0000E94430260E005C060E08E850E944302D9
:1002000061E088890E94430261E08A890E9443027A
:1002100060E013C060E08E850E94430261E005C08B
:1002200061E08E850E94430260E088890E9443025B
:1002300060E08A890E94430261E08C890E94430247
:10024000DF91CF911F910F9108950F931F93CF933B
:10025000DF93EC011616170624F481E090E09983F1
:10026000888377FF02C0198218828B0177FF46C00E
:10027000109501951F4F42C00E94F6022E893F89BA
:10028000488D598D621B730B840B950B2C813D811E
:100290004E815F81621773078407950768F30E9498
:1002A000F6026E8B7F8B888F998F888199812C8540
:1002B0003D85019761F42F5F3F4F3D872C878885EF
:1002C00099852817390771F41D861C860BC0232BCE
:1002D00021F4888599859D878C878C859D850197DC
:1002E0009D878C87015010408C859D8564E070E06F
:1002F0000E945205BC01CE010E94B50001151105F6
:1003000009F0BACFDF91CF911F910F910895CF924D
:10031000DF92EF92FF920F931F936C01842FF601EF
:10032000158614861382128211821082168A178A09
:10033000108E118E7187608746875787318B208B8F
:10034000138B028BF58AE48A61E00E94230261E04C
:10035000F60180890E94230261E0F60182890E94F1
:10036000230261E0F60184890E94230284E090E088
:10037000F601938782871F910F91FF90EF90DF9096
:10038000CF900895EF92FF920F931F938AE0E82E8B
:10039000F12C09E010E026E030E045E050E060E3B9
:1003A00070E080E291E00E9487011F910F91FF9021
:1003B000EF90089581E00E949002BC0190933B0170
:1003C00080933A018091110190911201861797074D
:1003D0003CF080911301909114016817790734F46F
:1003E000681B790B80E291E00E94250160E071E0DA
:1003F00089EC91E00E94750360913A0170913B0194
:1004000089EC91E00E945E0466E071E089EC91E085
:100410000E949403089540E855E260E070E089ECA2
:1004200091E00E94A3044EE150E060E070E080E2C1
:1004300091E00E948D0008950E9404030E940B0227
:100440000E94DA01FDCF282F30E0C90186569F4F68
:10045000FC0194912A573F4FF9018491882391F030
:10046000E82FF0E0EE0FFF1FE859FF4FA591B49180
:10047000662329F48C91909589238C9308958C910F
:10048000892B8C930895482F50E0CA0182559F4FC5
:10049000FC012491CA0186569F4FFC0194914A5752
:1004A0005F4FFA0134913323D1F1222331F123300C
:1004B00021F4809180008F7705C0243031F4809141
:1004C00080008F7D8093800018C0213019F484B59E
:1004D0008F7704C0223021F484B58F7D84BD0DC098
:1004E000263021F48091B0008F7705C0273029F4A1
:1004F0008091B0008F7D8093B000E32FF0E0EE0F8D
:10050000FF1FEE58FF4FA591B491662329F48C91FB
:10051000909589238C9308958C91892B8C930895C1
:100520008770909115019295990F990F907C982B57
:1005300090937C0080917A00806480937A0080910F
:100540007A0086FDFCCF2091780040917900942FAD
:1005500080E030E0282B392BC90108951F920F92BB
:100560000FB60F9211242F933F938F939F93AF93C6
:10057000BF938091400190914101A0914201B091BF
:100580004301309144010196A11DB11D232F2D5F20
:100590002D3720F02D570196A11DB11D2093440148
:1005A0008093400190934101A0934201B093430195
:1005B00080913C0190913D01A0913E01B0913F019D
:1005C0000196A11DB11D80933C0190933D01A09324
:1005D0003E01B0933F01BF91AF919F918F913F91A9
:1005E0002F910F900FBE0F901F9018958FB7F89412
:1005F00020914001309141014091420150914301CD
:100600008FBFB901CA010895789484B5826084BD12
:1006100084B5816084BD85B5826085BD85B5816006
:1006200085BDEEE6F0E0808181608083E1E8F0E066
:10063000808182608083808181608083E0E8F0E057
:10064000808181608083E1EBF0E080818460808341
:10065000E0EBF0E0808181608083EAE7F0E0808178
:1006600084608083808182608083808181608083D8
:100670008081806880831092C10008950F931F933A
:10068000CF93DF938C01EB0109C02196D801ED9146
:10069000FC910190F081E02DC801099568816623E5
:1006A000A1F7DF91CF911F910F910895EF92FF92E3
:1006B0000F931F93CF93DF938C017B01EA010CC052
:1006C000D7016D917D01D801ED91FC910190F081F0
:1006D000E02DC80109952197209791F7DF91CF91DF
:1006E0001F910F91FF90EF900895DC01ED91FC9127
:1006F0000280F381E02D099508950F931F938C01DB
:10070000DC01ED91FC910190F081E02D6DE0099507
:10071000D801ED91FC910190F081E02D6AE0C801D3
:1007200009951F910F9108950F931F938C010E94BB
:100730007503C8010E947D031F910F9108952F92A8
:100740003F924F925F926F927F928F929F92AF9261
:10075000BF92CF92DF92EF92FF920F931F93DF939E
:10076000CF93CDB7DEB7A0970FB6F894DEBF0FBE1C
:10077000CDBF1C016A017B01411551056105710561
:1007800049F4DC01ED91FC910190F081E02D60E3F2
:10079000099554C0882499245401422E5524662476
:1007A000772401E010E00C0F1D1F080D191DC70173
:1007B000B601A30192010E946505F80160830894C7
:1007C000811C911CA11CB11CC701B601A30192019F
:1007D0000E946505C901DA016C017D01C114D104D3
:1007E000E104F104F1F681E0E82EF12CEC0EFD1E9F
:1007F000E80CF91C3E010894611C711CD501C40170
:100800000197A109B1096C01C818D90814C0F601F3
:10081000EE0DFF1D60816A3010F4605D01C0695CFF
:10082000D101ED91FC910190F081E02DC10109957C
:100830000894E108F1086E147F0449F7A0960FB6FA
:10084000F894DEBF0FBECDBFCF91DF911F910F9106
:10085000FF90EF90DF90CF90BF90AF909F908F90E0
:100860007F906F905F904F903F902F900895EF9200
:10087000FF920F931F93CF93DF93EC017A018B01CB
:1008800077FF0FC0E881F9810190F081E02D6DE2E2
:10089000099510950095F094E094E11CF11C011D60
:1008A000111D2AE0B801A701CE010E949F03DF912C
:1008B000CF911F910F91FF90EF900895AB016627A4
:1008C00057FD6095762F0E94370408951F920F926E
:1008D0000FB60F9211242F933F934F935F936F9313
:1008E0007F938F939F93AF93BF93EF93FF93409129
:1008F000C600E091C501F091C601CF01019660E804
:1009000070E00E9452059C018091C7019091C8013E
:100910002817390739F0EB5BFE4F40833093C6014F
:100920002093C501FF91EF91BF91AF919F918F915E
:100930007F916F915F914F913F912F910F900FBEDB
:100940000F901F901895AF92BF92CF92DF92EF92C7
:10095000FF920F931F93CF93DF937A018B01EC01EA
:10096000AC80BD80CB01BA0122E030E040E050E035
:100970000E948705205C3D4B404F5F4FCA01B90183
:10098000A80197010E948705C901DA010197A10911
:10099000B109292F3A2F4B2F552747FD5A9501961C
:1009A000A11DB11DF5012083EE81FF81815080835F
:1009B000EA85FB85208141E050E0CA010E8402C037
:1009C000880F991F0A94E2F7282B2083EA85FB857C
:1009D0002081CA010F8402C0880F991F0A94E2F790
:1009E000282B2083EA85FB858081088802C0440F7C
:1009F000551F0A94E2F7842B8083DF91CF911F91DA
:100A00000F91FF90EF90DF90CF90BF90AF9008953F
:100A1000FC01A085B18521898C9190E0022E02C055
:100A2000959587950A94E2F780FFF6CF0484F585C3
:100A3000E02D608308958AE191E09093CA0180934C
:100A4000C90185E491E09093CC018093CB0185ECC2
:100A500090E09093CE018093CD0184EC90E0909350
:100A6000D0018093CF0180EC90E09093D2018093ED
:100A7000D10181EC90E09093D4018093D30186EC76
:100A800090E09093D6018093D50184E08093D701C4
:100A900083E08093D80187E08093D90185E080933B
:100AA000DA01089597FB092E07260AD077FD04D0B6
:100AB00049D006D000201AF4709561957F4F0895B3
:100AC000F6F7909581959F4F0895A1E21A2EAA1BE3
:100AD000BB1BFD010DC0AA1FBB1FEE1FFF1FA217EE
:100AE000B307E407F50720F0A21BB30BE40BF50BEB
:100AF000661F771F881F991F1A9469F76095709574
:100B0000809590959B01AC01BD01CF01089597FBA5
:100B1000092E05260ED057FD04D0D7DF0AD0001CC1
:100B200038F450954095309521953F4F4F4F5F4F8A
:100B30000895F6F790958095709561957F4F8F4F4A
:100B40009F4F0895AA1BBB1B51E107C0AA1FBB1FE3
:100B5000A617B70710F0A61BB70B881F991F5A9549
:100B6000A9F780959095BC01CD010895EE0FFF1F68
:0C0B70000590F491E02D0994F894FFCF5B
:100B7C0076616C3A2000202020202020202020208C
:100B8C00001E02E201010000000008053E035603AE
:00000001FF
