:100000000C9462000C942D030C945A030C948A00F7
:100010000C948A000C948A000C948A000C948A0038
:100020000C948A000C948A000C948A000C948A0028
:100030000C948A000C948A000C948A000C948A0018
:100040000C94C0040C948A000C94D0030C948A0085
:100050000C948A000C948A000C948A000C948A00F8
:100060000C948A000C948A000000000024002700F1
:100070002A0000000000250028002B0000000000DE
:1000800023002600290004040404040404040202DA
:100090000202020203030303030301020408102007
:1000A0004080010204081020010204081020000012
:1000B0000007000201000003040600000000000029
:1000C0000000890411241FBECFEFD4E0DEBFCDBFF6
:1000D00011E0A0E0B1E0E8E8FEE002C005900D927A
:1000E000A632B107D9F711E0A6E2B1E001C01D9236
:1000F000A13EB107E1F710E0C4ECD0E004C02297C4
:10010000FE010E943E07C23CD107C9F70E940303CB
:100110000C9442070C940000AF92BF92CF92DF92F2
:10012000EF92FF920F931F938091300190913101D4
:10013000892B09F4E1C010923101109230018091B5
:100140002A0190912B01885E93402CF428EE33E035
:1001500040E050E015C080912A0190912B01815D13
:1001600097402CF020ED37E040E050E009C080914E
:100170002A0190912B019C01442737FD4095542F73
:1001800000D000D08FEF91E0A0E0B0E0EDB7FEB777
:1001900081839283A383B483CA01B90128EE33E03B
:1001A00040E050E0B0EDEB2EB7E0FB2E012D112D1D
:1001B000AA24BB2465010E9487039B01AC013093F4
:1001C0002F0120932E010F900F900F900F9021156B
:1001D000310549F480912C0190912D0190932F01CC
:1001E00080932E011CC0E0912C01F0912D0181E043
:1001F0006F3F780759F06E1B7F0B660F771F80915A
:100200001A0190911B01861797072CF4F0932F0188
:10021000E0932E0104C030932D0120932C01809196
:1002200000010E94330640912E0150912F01209130
:100230001201309113010197E9F42417350744F4B2
:100240008091040160E00E94E605809102010EC0E9
:10025000809114019091150148175907F4F5809188
:10026000020160E00E94E6058091040161E00E94C5
:10027000E6052FC02417350794F48091040160E04F
:100280000E94E60560912E0170912F018091160168
:1002900090911701681B790B8091020118C0809121
:1002A00014019091150148175907BCF4809102017F
:1002B00060E00E94E605609118017091190180913B
:1002C0002E0190912F01681B790B809104010E94EF
:1002D0006D0580910A0160E00DC08091020160E02F
:1002E0000E94E6058091040160E00E94E60580918D
:1002F0000A0161E00E94E60580913C0190913D0178
:10030000892B09F4E1C010923D0110923C018091CB
:10031000360190913701885E93402CF428EE33E04B
:1003200040E050E015C08091360190913701815D29
:1003300097402CF020ED37E040E050E009C080917C
:100340003601909137019C01442737FD4095542F89
:1003500000D000D08FEF91E0A0E0B0E0EDB7FEB7A5
:1003600081839283A383B483CA01B90128EE33E069
:1003700040E050E0E0EDEE2EE7E0FE2E012D112DE5
:10038000AA24BB2465010E9487039B01AC01309322
:100390003B0120933A010F900F900F900F90211581
:1003A000310549F4809138019091390190933B01D6
:1003B00080933A011CC0E0913801F091390181E04D
:1003C0006F3F780759F06E1B7F0B660F771F809188
:1003D0001A0190911B01861797072CF4F0933B01AB
:1003E000E0933A0104C030933901209338018091A1
:1003F00000010E94330620911201309113014091B7
:100400003A0150913B010197E9F42417350744F470
:100410008091080160E00E94E605809106010EC00F
:10042000809114019091150148175907F4F58091B6
:10043000060160E00E94E6058091080161E00E94EB
:10044000E6052FC02417350794F48091080160E079
:100450000E94E60560913A0170913B01809116017E
:1004600090911701681B790B8091060118C080914B
:1004700014019091150148175907BCF480910601A9
:1004800060E00E94E6056091180170911901809169
:100490003A0190913B01681B790B809108010E9401
:1004A0006D0580910C0160E00DC08091060160E057
:1004B0000E94E6058091080160E00E94E6058091B7
:1004C0000C0161E00E94E6051F910F91FF90EF90F3
:1004D000DF90CF90BF90AF900895809110010E945F
:1004E0003306019759F40E94080560933201709316
:1004F0003301809334019093350108950E940805DB
:100500002091320130913301621B730B70933701DC
:100510006093360181E090E090933D0180933C012F
:10052000089580910E010E943306019759F40E94AC
:10053000080560932601709327018093280190930A
:10054000290108950E940805209126013091270174
:10055000621B730B70932B0160932A0181E090E082
:100560009093310180933001089586EC91E040E84A
:1005700055E260E070E00E940D048091000160E0AF
:100580000E94C6058091020161E00E94C60580912B
:10059000040161E00E94C6058091060161E00E94AD
:1005A000C6058091080161E00E94C60580910A019C
:1005B00061E00E94C60580910C0161E00E94C605C1
:1005C00080910E0160E00E94C6058091100160E0FC
:1005D0000E94C60580E061E972E041E050E00E94BF
:1005E0000A0381E06DE672E041E050E00E940A03F8
:1005F0008FEF90E090932D0180932C01909339011F
:100600008093380108950E9433050E94B5020E942C
:100610008C00FDCF823000F5E82FF0E0EE0FFF1FD9
:10062000E25CFE4F71836083882319F08130A1F46E
:1006300008C0809169008C7F842B80936900E89AC0
:10064000089580916900440F551F440F551F837F03
:10065000842B80936900E99A08951F920F920FB638
:100660000F9211242F933F934F935F936F937F9338
:100670008F939F93AF93BF93EF93FF9380913E012E
:1006800090913F01892B29F0E0913E01F0913F01CB
:100690000995FF91EF91BF91AF919F918F917F91BC
:1006A0006F915F914F913F912F910F900FBE0F90DF
:1006B0001F9018951F920F920FB60F9211242F932F
:1006C0003F934F935F936F937F938F939F93AF93DA
:1006D000BF93EF93FF938091400190914101892B4B
:1006E00029F0E0914001F09141010995FF91EF91CE
:1006F000BF91AF919F918F917F916F915F914F913A
:100700003F912F910F900FBE0F901F9018952F9231
:100710003F924F925F926F927F928F929F92AF9291
:10072000BF92CF92DF92EF92FF920F931F93DF93CE
:10073000CF93CDB7DEB73B014C0119012A016D897A
:100740007E898F89988D6A197B098C099D09621AA7
:10075000730A840A950AA40193010E94B906E2185B
:10076000F30804091509A80197010E940D072A0D35
:100770003B1D4C1D5D1DB901CA01CF91DF911F9139
:100780000F91FF90EF90DF90CF90BF90AF909F9030
:100790008F907F906F905F904F903F902F90089533
:1007A0001F920F920FB60F9211242F933F934F93E6
:1007B0005F936F937F938F939F93AF93BF93EF93C9
:1007C000FF934091C600E091C201F091C301CF01B7
:1007D000019660E870E00E94D8069C018091C401F7
:1007E0009091C5012817390739F0EE5BFE4F408321
:1007F0003093C3012093C201FF91EF91BF91AF915C
:100800009F918F917F916F915F914F913F912F9128
:100810000F900FBE0F901F901895AF92BF92CF927E
:10082000DF92EF92FF920F931F93CF93DF936C01B0
:100830007A018B01DC011496AD90BC901597CB0129
:10084000BA0122E030E040E050E00E940D07205C59
:100850003D4B404F5F4FCA01B901A80197010E946B
:100860000D07C901DA010197A109B109292F3A2F12
:100870004B2F552747FD5A950196A11DB11DE50146
:100880002883E601EE81FF8181508083EA85FB8524
:10089000208141E050E0CA010E8402C0880F991FF8
:1008A0000A94E2F7282B2083EA85FB852081CA0180
:1008B0000F8402C0880F991F0A94E2F7282B208327
:1008C000EA85FB858081088802C0440F551F0A9481
:1008D000E2F7842B8083DF91CF911F910F91FF90DE
:1008E000EF90DF90CF90BF90AF900895FC01A0856E
:1008F000B18521898C9190E0022E02C09595879553
:100900000A94E2F780FFF6CF0484F585E02D60833A
:10091000089580E291E09093C7018093C60182E43C
:1009200091E09093C9018093C80185EC90E0909389
:10093000CB018093CA0184EC90E09093CD01809329
:10094000CC0180EC90E09093CF018093CE0181ECBC
:1009500090E09093D1018093D00186EC90E0909349
:10096000D3018093D20184E08093D40183E080930B
:10097000D50187E08093D60185E08093D701089563
:100980001F920F920FB60F9211242F933F938F93C4
:100990009F93AF93BF938091DC019091DD01A09173
:1009A000DE01B091DF013091E0010196A11DB11D82
:1009B000232F2D5F2D3720F02D570196A11DB11D3E
:1009C0002093E0018093DC019093DD01A093DE0190
:1009D000B093DF018091D8019091D901A091DA0103
:1009E000B091DB010196A11DB11D8093D8019093B8
:1009F000D901A093DA01B093DB01BF91AF919F9130
:100A00008F913F912F910F900FBE0F901F901895CF
:100A10006FB7F89486B590E0A0E0B0E0A89B08C05E
:100A20000097A105B10521F480E091E0A0E0B0E0DD
:100A30002091D8013091D9014091DA015091DB0128
:100A40006FBF542F432F322F2227280F391F4A1FE1
:100A50005B1F82E0220F331F441F551F8A95D1F779
:100A6000B901CA010895789484B5826084BD84B5C3
:100A7000816084BD85B5826085BD85B5816085BD99
:100A8000EEE6F0E0808181608083E1E8F0E0808143
:100A900082608083808181608083E0E8F0E08081F3
:100AA00081608083E1EBF0E0808184608083E0EB13
:100AB000F0E0808181608083EAE7F0E080818460FB
:100AC0008083808182608083808181608083808157
:100AD000806880831092C10008951F93CF93DF93A5
:100AE000182FEB0161E00E94C605E12FF0E0E2550E
:100AF000FF4F8491833051F480918000806880930F
:100B00008000D0938900C09388003CC0843051F4A9
:100B100080918000806280938000D0938B00C0938E
:100B20008A0030C0813039F4209729F184B580687B
:100B300084BDC7BD27C0823039F42097E1F084B569
:100B4000806284BDC8BD1EC0863041F48091B00073
:100B500080688093B000C093B30014C0873041F424
:100B60008091B00080628093B000C093B4000AC04E
:100B7000C038D1051CF4812F60E002C0812F61E0F4
:100B80000E94E605DF91CF911F910895282F30E054
:100B9000C90186569F4FFC0194912A573F4FF90196
:100BA0008491882391F0E82FF0E0EE0FFF1FE859C1
:100BB000FF4FA591B491662329F48C9190958923D8
:100BC0008C9308958C91892B8C930895482F50E035
:100BD000CA0182559F4FFC012491CA0186569F4F3E
:100BE000FC0194914A575F4FFA0134913323D1F1BC
:100BF000222331F1233021F4809180008F7705C0CA
:100C0000243031F4809180008F7D8093800018C063
:100C1000213019F484B58F7704C0223021F484B5D3
:100C20008F7D84BD0DC0263021F48091B0008F7778
:100C300005C0273029F48091B0008F7D8093B000EB
:100C4000E32FF0E0EE0FFF1FEE58FF4FA591B49198
:100C5000662329F48C91909589238C9308958C9127
:100C6000892B8C930895682F70E0CB0182559F4F9C
:100C7000FC012491CB0186569F4FFC0144916A5799
:100C80007F4FFB019491992319F420E030E038C0A4
:100C9000222331F1233021F4809180008F7705C029
:100CA000243031F4809180008F7D8093800018C0C3
:100CB000213019F484B58F7704C0223021F484B533
:100CC0008F7D84BD0DC0263021F48091B0008F77D8
:100CD00005C0273029F48091B0008F7D8093B0004B
:100CE000892F90E0880F991F84589F4FFC01A59190
:100CF000B4918C9120E030E0842311F021E030E0C9
:100D0000C90108950F931F93CF93DF938C01EB01DB
:100D100009C02196D801ED91FC910190F081E02D60
:100D2000C801099568816623A1F7DF91CF911F91D2
:100D30000F910895EF92FF920F931F93CF93DF933C
:100D40008C017B01EA010CC0D7016D917D01D801B6
:100D5000ED91FC910190F081E02DC801099521975A
:100D6000209791F7DF91CF911F910F91FF90EF9016
:100D70000895629FD001739FF001829FE00DF11DE5
:100D8000649FE00DF11D929FF00D839FF00D749F05
:100D9000F00D659FF00D9927729FB00DE11DF91FB1
:100DA000639FB00DE11DF91FBD01CF01112408950E
:100DB00097FB092E07260AD077FD04D049D006D02C
:100DC00000201AF4709561957F4F0895F6F790957D
:100DD00081959F4F0895A1E21A2EAA1BBB1BFD010E
:100DE0000DC0AA1FBB1FEE1FFF1FA217B307E4070A
:100DF000F50720F0A21BB30BE40BF50B661F771F62
:100E0000881F991F1A9469F7609570958095909541
:100E10009B01AC01BD01CF01089597FB092E05266A
:100E20000ED057FD04D0D7DF0AD0001C38F45095FF
:100E30004095309521953F4F4F4F5F4F0895F6F7FE
:100E400090958095709561957F4F8F4F9F4F089536
:100E5000AA1BBB1B51E107C0AA1FBB1FA617B707E0
:100E600010F0A61BB70B881F991F5A95A9F78095FC
:100E70009095BC01CD010895EE0FFF1F0590F491F0
:080E8000E02D0994F894FFCF66
:100E880007000500090006000A000C000D0002001A
:100E980003000901F5000001FF00900100000000B7
:060EA800760482069A06A2
:00000001FF
