:100000000C9462000C9491050C94BE050C948A002B
:100010000C948A000C948A000C948A000C948A0038
:100020000C948A000C948A000C948A000C948A0028
:100030000C948A000C948A000C948A000C948A0018
:100040000C94D1030C948A000C947E040C948A00C6
:100050000C948A000C948A000C948A000C948A00F8
:100060000C948A000C948A000000000024002700F1
:100070002A0000000000250028002B0000000000DE
:1000800023002600290004040404040404040202DA
:100090000202020203030303030301020408102007
:1000A0004080010204081020010204081020000012
:1000B0000007000201000003040600000000000029
:1000C0000000370511241FBECFEFD4E0DEBFCDBF47
:1000D00011E0A0E0B1E0E0E8F0E102C005900D928F
:1000E000A036B107D9F712E0A0E6B1E001C01D9239
:1000F000AB31B107E1F710E0C4ECD0E004C02297C7
:10010000FE010E943A08C23CD107C9F70E940E03C3
:100110000C943E080C940000AF92BF92CF92DF92F5
:10012000EF92FF920F931F9380916A0190916B0160
:10013000892B09F4BEC010926B0110926A01809164
:10014000640190916501885E93402CF428EE33E0C1
:1001500040E050E015C08091640190916501815D9F
:1001600097402CF020ED37E040E050E009C080914E
:100170006401909165019C01442737FD4095542FFF
:1001800000D000D08FEF91E0A0E0B0E0EDB7FEB777
:1001900081839283A383B483CA01B90128EE33E03B
:1001A00040E050E0B0EDEB2EB7E0FB2E012D112D1D
:1001B000AA24BB2465010E9413079B01AC01309364
:1001C0006901209368010F900F900F900F902115F7
:1001D000310549F48091660190916701909369011E
:1001E000809368011CC0E0916601F091670181E095
:1001F0006F3F780759F06E1B7F0B660F771F80915A
:10020000540190915501861797072CF4F0936901DA
:10021000E093680104C03093670120936601209148
:1002200068013091690180914C0190914D018217D4
:10023000930794F480913E0160E00E943503609141
:100240006801709169018091500190915101681B82
:10025000790B80913C0118C080914E0190914F0123
:1002600028173907BCF480913C0160E00E943503F7
:1002700060915201709153018091680190916901E0
:10028000681B790B80913E010E945C0780914401BC
:1002900060E00DC080913C0160E00E9435038091D8
:1002A0003E0160E00E9435038091440161E00E94BC
:1002B00035038091760190917701892B09F4BEC0B6
:1002C00010927701109276018091700190917101E6
:1002D000885E93402CF428EE33E040E050E015C0F7
:1002E0008091700190917101815D97402CF020ED1B
:1002F00037E040E050E009C08091700190917101B9
:100300009C01442737FD4095542F00D000D08FEF3B
:1003100091E0A0E0B0E0EDB7FEB781839283A383C4
:10032000B483CA01B90128EE33E040E050E0E0EDCB
:10033000EE2EE7E0FE2E012D112DAA24BB2465012F
:100340000E9413079B01AC01309375012093740147
:100350000F900F900F900F902115310549F4809167
:1003600072019091730190937501809374011CC088
:10037000E0917201F091730181E06F3F780759F0CD
:100380006E1B7F0B660F771F809154019091550172
:10039000861797072CF4F0937501E093740104C05D
:1003A0003093730120937201209174013091750193
:1003B00080914C0190914D018217930794F48091A4
:1003C000420160E00E9435036091740170917501F3
:1003D0008091500190915101681B790B80914001EF
:1003E00018C080914E0190914F0128173907BCF435
:1003F0008091400160E00E9435036091520170914C
:1004000053018091740190917501681B790B809163
:1004100042010E945C078091460160E00DC080911E
:10042000400160E00E9435038091420160E00E943B
:1004300035038091460161E00E94350385E092E03A
:1004400060E071E00E94220660916801709169018C
:1004500085E092E00E940B0785E092E06DE071E09C
:100460000E94220685E092E061E171E00E9422068E
:10047000609164017091650185E092E00E940B0734
:1004800085E092E06DE071E00E94220685E092E056
:1004900060E271E00E942206609174017091750122
:1004A00085E092E00E940B0785E092E06DE071E04C
:1004B0000E94220685E092E06DE271E00E94220631
:1004C000609170017091710185E092E00E940B07CC
:1004D00085E092E06DE071E00E9441061F910F916E
:1004E000FF90EF90DF90CF90BF90AF9008958091F4
:1004F0004A010E948203019759F40E9419046093F3
:100500006C0170936D0180936E0190936F0108955B
:100510000E94190420916C0130916D01621B730BD4
:10052000709371016093700181E090E09093770186
:10053000809376010895809148010E94820301977B
:1005400059F40E94190460936001709361018093D3
:1005500062019093630108950E9419042091600143
:1005600030916101621B730B7093650160936401AC
:1005700081E090E090936B0180936A010895E1E837
:10058000F0E08081887F8160808385E092E040E8B0
:1005900055E260E070E00E94BB0480913C0161E0A4
:1005A0000E94150380913E0161E00E941503809135
:1005B000400161E00E9415038091420161E00E94C8
:1005C00015038091440161E00E941503809146016A
:1005D00061E00E9415038091480160E00E941503CC
:1005E00080914A0160E00E94150380E06BE972E0AF
:1005F00041E050E00E946E0581E067E772E041E073
:1006000050E00E946E058FEF90E090936701809319
:100610006601909373018093720108950E944404CF
:100620000E94BF020E948C00FDCF282F30E0C9013C
:1006300086569F4FFC0194912A573F4FF9018491B0
:10064000882391F0E82FF0E0EE0FFF1FE859FF4FED
:10065000A591B491662329F48C91909589238C936C
:1006600008958C91892B8C930895482F50E0CA01EE
:1006700082559F4FFC012491CA0186569F4FFC0171
:1006800094914A575F4FFA0134913323D1F12223D9
:1006900031F1233021F4809180008F7705C0243020
:1006A00031F4809180008F7D8093800018C02130CC
:1006B00019F484B58F7704C0223021F484B58F7D7E
:1006C00084BD0DC0263021F48091B0008F7705C025
:1006D000273029F48091B0008F7D8093B000E32F04
:1006E000F0E0EE0FFF1FEE58FF4FA591B491662387
:1006F00029F48C91909589238C9308958C91892B62
:100700008C930895682F70E0CB0182559F4FFC01B8
:100710002491CB0186569F4FFC0144916A577F4F2D
:10072000FB019491992319F420E030E038C0222392
:1007300031F1233021F4809180008F7705C024307F
:1007400031F4809180008F7D8093800018C021302B
:1007500019F484B58F7704C0223021F484B58F7DDD
:1007600084BD0DC0263021F48091B0008F7705C084
:10077000273029F48091B0008F7D8093B000892FBD
:1007800090E0880F991F84589F4FFC01A591B49168
:100790008C9120E030E0842311F021E030E0C901A9
:1007A00008951F920F920FB60F9211242F933F932B
:1007B0008F939F93AF93BF9380917C0190917D0124
:1007C000A0917E01B0917F01309180010196A11D21
:1007D000B11D232F2D5F2D3720F02D570196A11D20
:1007E000B11D2093800180937C0190937D01A093A3
:1007F0007E01B0937F018091780190917901A09161
:100800007A01B0917B010196A11DB11D8093780101
:1008100090937901A0937A01B0937B01BF91AF913E
:100820009F918F913F912F910F900FBE0F901F902E
:1008300018956FB7F89486B590E0A0E0B0E0A89B5B
:1008400008C00097A105B10521F480E091E0A0E087
:10085000B0E0209178013091790140917A01509176
:100860007B016FBF542F432F322F2227280F391FB0
:100870004A1F5B1F82E0220F331F441F551F8A95BA
:10088000D1F7B901CA010895789484B5826084BD16
:1008900084B5816084BD85B5826085BD85B5816084
:1008A00085BDEEE6F0E0808181608083E1E8F0E0E4
:1008B000808182608083808181608083E0E8F0E0D5
:1008C000808181608083E1EBF0E0808184608083BF
:1008D000E0EBF0E0808181608083EAE7F0E08081F6
:1008E0008460808380818260808380818160808356
:1008F0008081806880831092C10008951F920F92BA
:100900000FB60F9211242F933F934F935F936F93E2
:100910007F938F939F93AF93BF93EF93FF934091F8
:10092000C600E0910102F0910202CF01019660E859
:1009300070E00E94D4079C01809103029091040210
:100940002817390739F0EF57FE4F408330930202E2
:1009500020930102FF91EF91BF91AF919F918F91F1
:100960007F916F915F914F913F912F910F900FBEAB
:100970000F901F901895AF92BF92CF92DF92EF9297
:10098000FF920F931F93CF93DF936C017A018B013A
:10099000DC011496AD90BC901597CB01BA0122E012
:1009A00030E040E050E00E940908205C3D4B404FA1
:1009B0005F4FCA01B901A80197010E940908C90146
:1009C000DA010197A109B109292F3A2F4B2F552799
:1009D00047FD5A950196A11DB11DE5012883E60149
:1009E000EE81FF8181508083EA85FB85208141E093
:1009F00050E0CA010E8402C0880F991F0A94E2F7E2
:100A0000282B2083EA85FB852081CA010F8402C040
:100A1000880F991F0A94E2F7282B2083EA85FB852B
:100A20008081088802C0440F551F0A94E2F7842B86
:100A30008083DF91CF911F910F91FF90EF90DF9016
:100A4000CF90BF90AF900895FC01A085B18521891A
:100A50008C9190E0022E02C0959587950A94E2F75A
:100A600080FFF6CF0484F585E02D608308958AE544
:100A700091E0909306028093050281E891E09093C3
:100A800008028093070285EC90E090930A0280931D
:100A9000090284EC90E090930C0280930B0280ECAE
:100AA00090E090930E0280930D0281EC90E0909381
:100AB000100280930F0286EC90E0909312028093D4
:100AC000110284E08093130283E08093140287E094
:100AD0008093150285E0809316020895823000F518
:100AE000E82FF0E0EE0FFF1FE95EFD4F718360839A
:100AF000882319F08130A1F408C0809169008C7FAF
:100B0000842B80936900E89A089580916900440FCE
:100B1000551F440F551F837F842B80936900E99AEA
:100B200008951F920F920FB60F9211242F933F93A7
:100B30004F935F936F937F938F939F93AF93BF93E5
:100B4000EF93FF938091170290911802892B29F05F
:100B5000E0911702F09118020995FF91EF91BF9172
:100B6000AF919F918F917F916F915F914F913F9145
:100B70002F910F900FBE0F901F9018951F920F92FC
:100B80000FB60F9211242F933F934F935F936F9360
:100B90007F938F939F93AF93BF93EF93FF93809136
:100BA000190290911A02892B29F0E0911902F09113
:100BB0001A020995FF91EF91BF91AF919F918F918B
:100BC0007F916F915F914F913F912F910F900FBE49
:100BD0000F901F9018950F931F93CF93DF938C0165
:100BE000EB0109C02196D801ED91FC910190F081B3
:100BF000E02DC801099568816623A1F7DF91CF91A7
:100C00001F910F910895EF92FF920F931F93CF932F
:100C1000DF938C017B01EA010CC0D7016D917D014E
:100C2000D801ED91FC910190F081E02DC80109956A
:100C30002197209791F7DF91CF911F910F91FF900E
:100C4000EF900895DC01ED91FC910280F381E02D9D
:100C5000099508950F931F938C01DC01ED91FC9190
:100C60000190F081E02D6DE00995D801ED91FC91A6
:100C70000190F081E02DC8016AE009951F910F9164
:100C800008950F931F938C010E942206C8010E94B1
:100C90002A061F910F9108952F923F924F925F92D3
:100CA0006F927F928F929F92AF92BF92CF92DF927C
:100CB000EF92FF920F931F93DF93CF93CDB7DEB7E1
:100CC000A0970FB6F894DEBF0FBECDBF1C016A011E
:100CD0007B01411551056105710549F4DC01ED9178
:100CE000FC910190F081E02D60E3099554C08824C7
:100CF00099245401422E55246624772401E010E003
:100D00000C0F1D1F080D191DC701B601A30192018B
:100D10000E94E707F80160830894811C911CA11CC4
:100D2000B11CC701B601A30192010E94E707C901E6
:100D3000DA016C017D01C114D104E104F104F1F682
:100D400081E0E82EF12CEC0EFD1EE80CF91C3E01B2
:100D50000894611C711CD501C4010197A109B10956
:100D60006C01C818D90814C0F601EE0DFF1D608192
:100D70006A3010F4605D01C0695CD101ED91FC91B5
:100D80000190F081E02DC10109950894E108F10876
:100D90006E147F0449F7A0960FB6F894DEBF0FBE1D
:100DA000CDBFCF91DF911F910F91FF90EF90DF901A
:100DB000CF90BF90AF909F908F907F906F905F90FB
:100DC0004F903F902F900895EF92FF920F931F93B3
:100DD000CF93DF93EC017A018B0177FF0FC0E8819D
:100DE000F9810190F081E02D6DE209951095009553
:100DF000F094E094E11CF11C011D111DCE01B8011D
:100E0000A7012AE00E944C06DF91CF911F910F911C
:100E1000FF90EF900895AB01662757FD6095762F00
:100E20000E94E40608952F923F924F925F926F9234
:100E30007F928F929F92AF92BF92CF92DF92EF926A
:100E4000FF920F931F93DF93CF93CDB7DEB73B0194
:100E50004C0119012A016D897E898F89988D6A1943
:100E60007B098C099D09621A730A840A950AA401F8
:100E700093010E94B507E218F30804091509A801B7
:100E800097010E9409082A0D3B1D4C1D5D1DB901EB
:100E9000CA01CF91DF911F910F91FF90EF90DF90EA
:100EA000CF90BF90AF909F908F907F906F905F900A
:100EB0004F903F902F9008951F93CF93DF93182F5B
:100EC000EB0161E00E941503E12FF0E0E255FF4FD6
:100ED0008491833051F480918000806880938000F9
:100EE000D0938900C09388003CC0843051F4809135
:100EF0008000806280938000D0938B00C0938A0032
:100F000030C0813039F4209729F184B5806884BDE0
:100F1000C7BD27C0823039F42097E1F084B58062E4
:100F200084BDC8BD1EC0863041F48091B000806889
:100F30008093B000C093B30014C0873041F4809117
:100F4000B00080628093B000C093B4000AC0C03883
:100F5000D1051CF4812F60E002C0812F61E00E9466
:100F60003503DF91CF911F910895629FD001739F48
:100F7000F001829FE00DF11D649FE00DF11D929F35
:100F8000F00D839FF00D749FF00D659FF00D992774
:100F9000729FB00DE11DF91F639FB00DE11DF91F98
:100FA000BD01CF011124089597FB092E07260AD011
:100FB00077FD04D049D006D000201AF470956195D1
:100FC0007F4F0895F6F7909581959F4F0895A1E280
:100FD0001A2EAA1BBB1BFD010DC0AA1FBB1FEE1FB3
:100FE000FF1FA217B307E407F50720F0A21BB30BFE
:100FF000E40BF50B661F771F881F991F1A9469F77A
:1010000060957095809590959B01AC01BD01CF01D5
:10101000089597FB092E05260ED057FD04D0D7DF83
:101020000AD0001C38F450954095309521953F4FDB
:101030004F4F5F4F0895F6F79095809570956195A5
:101040007F4F8F4F9F4F0895AA1BBB1B51E107C0D5
:10105000AA1FBB1FA617B70710F0A61BB70B881F48
:10106000991F5A95A9F780959095BC01CD010895D7
:10107000EE0FFF1F0590F491E02D0994F894FFCF37
:101080006368616E6E656C20313A20200009202073
:10109000007263315F76616C207261773A202000C4
:1010A0006368616E6E656C20323A20200072633294
:1010B0005F76616C207261773A202000050006009F
:1010C00009000A000C000D00020003000901F500F0
:1010D0000001FE009001000000002405EB0503065E
:00000001FF
