:100000000C9463000C948B000C948B000C948B006C
:100010000C948B000C948B000C948B000C948B0034
:100020000C948B000C948B000C948B000C948B0024
:100030000C948B000C948B000C948B000C948B0014
:100040000C9494020C948B000C94B7030C948B00CA
:100050000C948B000C948B000C948B000C948B00F4
:100060000C948B000C948B000000000024002700EF
:100070002A0000000000250028002B0000000000DE
:1000800023002600290004040404040404040202DA
:100090000202020203030303030301020408102007
:1000A0004080010204081020010204081020000012
:1000B0000007000201000003040600000000000029
:1000C0000000C201A80411241FBECFEFD4E0DEBFA0
:1000D000CDBF11E0A0E0B1E0E6E9FAE002C0059092
:1000E0000D92A432B107D9F711E0A4E2B1E001C04A
:1000F0001D92AD3DB107E1F710E0C6ECD0E004C0C1
:100100002297FE010E944505C23CD107C9F70E9413
:1001100020020C9449050C940000CF92DF92EF92DC
:10012000FF920F931F936C017A018B01FC012085D4
:100130003185442737FD4095542F60E67AEE80E004
:1001400090E00E941405CA01B901A80197010E941C
:100150001405F60124833583468357831F910F913D
:10016000FF90EF90DF90CF9008950F931F93CF9360
:10017000DF93EC018B018A859B85029719F561302D
:10018000710581F06230710524F46115710541F04B
:1001900019C06230710561F06330710599F40AC0CD
:1001A00060E001C061E08E850E94470261E007C007
:1001B00061E001C060E08E850E94470260E08889AE
:1001C0000E9447028A859B850497D1F5013011056D
:1001D00099F0023011051CF4012B41F031C00230BE
:1001E0001105C1F00330110559F51AC061E08E8583
:1001F0000E94470260E005C060E08E850E944702D1
:1002000061E088890E94470261E08A890E94470272
:1002100060E013C060E08E850E94470261E005C087
:1002200061E08E850E94470260E088890E94470253
:1002300060E08A890E94470261E08C890E9447023F
:10024000DF91CF911F910F9108950F931F93CF933B
:10025000DF93EC011616170624F481E090E09983F1
:10026000888377FF02C0198218828B0177FF46C00E
:10027000109501951F4F42C00E94DC022E893F89D4
:10028000488D598D621B730B840B950B2C813D811E
:100290004E815F81621773078407950768F30E9498
:1002A000DC026E8B7F8B888F998F888199812C855A
:1002B0003D85019761F42F5F3F4F3D872C878885EF
:1002C00099852817390771F41D861C860BC0232BCE
:1002D00021F4888599859D878C878C859D850197DC
:1002E0009D878C87015010408C859D8564E070E06F
:1002F0000E94DF04BC01CE010E94B500011511056A
:1003000009F0BACFDF91CF911F910F910895CF924D
:10031000DF92EF92FF920F931F936C01842FF601EF
:10032000158614861382128211821082168A178A09
:10033000108E118E7187608746875787318B208B8F
:10034000138B028BF58AE48A61E00E94270261E048
:10035000F60180890E94270261E0F60182890E94ED
:10036000270261E0F60184890E94270284E090E080
:10037000F601938782871F910F91FF90EF90DF9096
:10038000CF900895EF92FF920F931F9386E0E82E8F
:10039000F12C05E010E024E030E043E050E064E6BA
:1003A00070E084E291E00E9487011F910F91FF901D
:1003B000EF9008951F938BEC91E00E9459048823DD
:1003C00089F08BEC91E00E946F04182F61E070E0DF
:1003D00084E291E00E942501612F70E080E090E0CE
:1003E0000E94EA0260E071E08BEC91E00E948D03D4
:1003F000612F8BEC91E00E9485036AE071E08BEC49
:1004000091E00E94AC031F91089540E855E260E03E
:1004100070E08BEC91E00E94F4034EE150E060E06C
:1004200070E084E291E00E948D0061E0809115010E
:100430000E94270261E0809117010E94270208951F
:100440000E9414030E9405020E94DA01FDCF282FAA
:1004500030E0C90186569F4FFC0194912A573F4FC7
:10046000F9018491882391F0E82FF0E0EE0FFF1F4F
:10047000E859FF4FA591B491662329F48C9190958A
:1004800089238C9308958C91892B8C930895482F00
:1004900050E0CA0182559F4FFC012491CA01865643
:1004A0009F4FFC0194914A575F4FFA0134913323D7
:1004B000D1F1222331F1233021F4809180008F7714
:1004C00005C0243031F4809180008F7D80938000BE
:1004D00018C0213019F484B58F7704C0223021F47C
:1004E00084B58F7D84BD0DC0263021F48091B0008D
:1004F0008F7705C0273029F48091B0008F7D8093DD
:10050000B000E32FF0E0EE0FFF1FEE58FF4FA59174
:10051000B491662329F48C91909589238C93089546
:100520008C91892B8C9308951F920F920FB60F9286
:1005300011242F933F938F939F93AF93BF938091F9
:10054000420190914301A0914401B0914501309145
:1005500046010196A11DB11D232F2D5F2D3720F0DF
:100560002D570196A11DB11D209346018093420194
:1005700090934301A0934401B093450180913E01C3
:1005800090913F01A0914001B09141010196A11DC0
:10059000B11D80933E0190933F01A0934001B09321
:1005A0004101BF91AF919F918F913F912F910F90FA
:1005B0000FBE0F901F9018958FB7F89420914201AD
:1005C0003091430140914401509145018FBFB901E1
:1005D000CA010895EF92FF920F931F937B018C0144
:1005E0008FB7F894409142015091430160914401CA
:1005F000709145018FBF2FB7F8948091420190917F
:100600004301A0914401B09145012FBF841B950B7C
:10061000A60BB70BE816F9060A071B0760F71F9130
:100620000F91FF90EF900895789484B5826084BD17
:1006300084B5816084BD85B5826085BD85B58160E6
:1006400085BDEEE6F0E0808181608083E1E8F0E046
:10065000808182608083808181608083E0E8F0E037
:10066000808181608083E1EBF0E080818460808321
:10067000E0EBF0E0808181608083EAE7F0E0808158
:1006800084608083808182608083808181608083B8
:100690008081806880831092C10008950F931F931A
:1006A000CF93DF938C01EB0109C02196D801ED9126
:1006B000FC910190F081E02DC801099568816623C5
:1006C000A1F7DF91CF911F910F910895EF92FF92C3
:1006D0000F931F93CF93DF938C017B01EA010CC032
:1006E000D7016D917D01D801ED91FC910190F081D0
:1006F000E02DC80109952197209791F7DF91CF91BF
:100700001F910F91FF90EF900895DC01ED91FC9106
:100710000190F081E02D09950895DC01ED91FC91A7
:100720000280F381E02D099508950F931F938C01AA
:10073000DC01ED91FC910190F081E02D6DE00995D7
:10074000D801ED91FC910190F081E02D6AE0C801A3
:1007500009951F910F9108950F931F938C010E948B
:100760008D03C8010E9495031F910F9108951F9258
:100770000F920FB60F9211242F933F934F935F93D5
:100780006F937F938F939F93AF93BF93EF93FF9359
:100790004091C600E091C701F091C801CF010196D8
:1007A00060E870E00E94DF049C018091C901909193
:1007B000CA012817390739F0E95BFE4F40833093AF
:1007C000C8012093C701FF91EF91BF91AF919F9115
:1007D0008F917F916F915F914F913F912F910F90EA
:1007E0000FBE0F901F901895AF92BF92CF92DF92DD
:1007F000EF92FF920F931F93CF93DF937A018B01B8
:10080000EC01AC80BD80CB01BA0122E030E040E0D9
:1008100050E00E941405205C3D4B404F5F4FCA01E1
:10082000B901A80197010E941405C901DA010197D5
:10083000A109B109292F3A2F4B2F552747FD5A956A
:100840000196A11DB11DF5012083EE81FF8181502C
:100850008083EA85FB85208141E050E0CA010E8457
:1008600002C0880F991F0A94E2F7282B2083EA859B
:10087000FB852081CA010F8402C0880F991F0A944A
:10088000E2F7282B2083EA85FB858081088802C057
:10089000440F551F0A94E2F7842B8083DF91CF9198
:1008A0001F910F91FF90EF90DF90CF90BF90AF908E
:1008B0000895CF93DF93EC01EA81FB81E058FF4F6D
:1008C0008191919180589F4F20813181821B930BA0
:1008D00060E870E00E94DF04DF91CF910895CF932C
:1008E000DF93EC01EA81FB81EF01CE57DF4F4881B6
:1008F0005981E058FF4F80819181E058F040841782
:10090000950719F42FEF3FEF0CC0E40FF51F20817E
:10091000CA01019660E870E00E94DF049983888331
:1009200030E0C901DF91CF910895FC01A085B18528
:1009300021898C9190E0022E02C0959587950A94AA
:10094000E2F780FFF6CF0484F585E02D60830895FB
:100950008DE191E09093CC018093CB0187E491E00D
:100960009093CE018093CD0185EC90E09093D001DF
:100970008093CF0184EC90E09093D2018093D101D9
:1009800080EC90E09093D4018093D30181EC90E0CF
:100990009093D6018093D50186EC90E09093D80196
:1009A0008093D70184E08093D90183E08093DA01BA
:1009B00087E08093DB0185E08093DC01089597FB5D
:1009C000092E07260AD077FD04D049D006D0002092
:1009D0001AF4709561957F4F0895F6F7909581957B
:1009E0009F4F0895A1E21A2EAA1BBB1BFD010DC04B
:1009F000AA1FBB1FEE1FFF1FA217B307E407F507CF
:100A000020F0A21BB30BE40BF50B661F771F881FAA
:100A1000991F1A9469F760957095809590959B0140
:100A2000AC01BD01CF01089597FB092E05260ED01C
:100A300057FD04D0D7DF0AD0001C38F450954095FC
:100A4000309521953F4F4F4F5F4F0895F6F79095A2
:100A50008095709561957F4F8F4F9F4F0895AA1B8A
:100A6000BB1B51E107C0AA1FBB1FA617B70710F099
:100A7000A61BB70B881F991F5A95A9F780959095CB
:100A8000BC01CD010895EE0FFF1F0590F491E02DFC
:060A90000994F894FFCF69
:100A960076616C203A202020200020202020202073
:100AA60020202020000A0009000000000095044EC6
:040AB60003660300D0
:00000001FF
