:100000000C9463000C948B000C948B000C948B006C
:100010000C948B000C948B000C948B000C948B0034
:100020000C948B000C948B000C948B000C948B0024
:100030000C948B000C948B000C948B000C948B0014
:100040000C9477020C948B000C9407030C948B0097
:100050000C948B000C948B000C948B000C948B00F4
:100060000C948B000C948B000000000024002700EF
:100070002A0000000000250028002B0000000000DE
:1000800023002600290004040404040404040202DA
:100090000202020203030303030301020408102007
:1000A0004080010204081020010204081020000012
:1000B0000007000201000003040600000000000029
:1000C0000000C201F80311241FBECFEFD4E0DEBF51
:1000D000CDBF11E0A0E0B1E0E4EAF9E002C0059094
:1000E0000D92AA30B107D9F711E0AAE0B1E001C042
:1000F0001D92A53CB107E1F710E0C6ECD0E004C0CA
:100100002297FE010E94CC04C23CD107C9F70E948D
:1001100003020C94D0040C940000CF92DF92EF9273
:10012000FF920F931F936C017A018B01FC012085D4
:100130003185442737FD4095542F60E67AEE80E004
:1001400090E00E949B04CA01B901A80197010E9496
:100150009B04F60124833583468357831F910F91B7
:10016000FF90EF90DF90CF9008950F931F93CF9360
:10017000DF93EC018B018A859B85029719F561302D
:10018000710581F06230710524F46115710541F04B
:1001900019C06230710561F06330710599F40AC0CD
:1001A00060E001C061E08E850E942A0261E007C024
:1001B00061E001C060E08E850E942A0260E08889CB
:1001C0000E942A028A859B850497D1F5013011058A
:1001D00099F0023011051CF4012B41F031C00230BE
:1001E0001105C1F00330110559F51AC061E08E8583
:1001F0000E942A0260E005C060E08E850E942A020B
:1002000061E088890E942A0261E08A890E942A02AC
:1002100060E013C060E08E850E942A0261E005C0A4
:1002200061E08E850E942A0260E088890E942A028D
:1002300060E08A890E942A0261E08C890E942A0279
:10024000DF91CF911F910F9108950F931F93CF933B
:10025000DF93EC011616170624F481E090E09983F1
:10026000888377FF02C0198218828B0177FF46C00E
:10027000109501951F4F42C00E94BF022E893F89F1
:10028000488D598D621B730B840B950B2C813D811E
:100290004E815F81621773078407950768F30E9498
:1002A000BF026E8B7F8B888F998F888199812C8577
:1002B0003D85019761F42F5F3F4F3D872C878885EF
:1002C00099852817390771F41D861C860BC0232BCE
:1002D00021F4888599859D878C878C859D850197DC
:1002E0009D878C87015010408C859D8564E070E06F
:1002F0000E946604BC01CE010E94B50001151105E3
:1003000009F0BACFDF91CF911F910F910895CF924D
:10031000DF92EF92FF920F931F936C01842FF601EF
:10032000158614861382128211821082168A178A09
:10033000108E118E7187608746875787318B208B8F
:10034000138B028BF58AE48A61E00E940A0261E065
:10035000F60180890E940A0261E0F60182890E940A
:100360000A0261E0F60184890E940A0284E090E0BA
:10037000F601938782871F910F91FF90EF90DF9096
:10038000CF900895EF92FF920F931F938AE0E82E8B
:10039000F12C09E010E026E030E045E050E060E3B9
:1003A00070E08CE091E00E9487011F910F91FF9017
:1003B000EF90089583EB91E00E94A903882369F0F0
:1003C00083EB91E00E94BF0390930B0180930A019D
:1003D000BC018CE091E00E94250108954CE350E0BF
:1003E00060E070E08CE091E00E948D0040E855E212
:1003F00060E070E083EB91E00E94440361E08DE0F7
:100400000E940A0208950E94CD020E94EE010E94FD
:10041000DA01FDCF282F30E0C90186569F4FFC013D
:1004200094912A573F4FF9018491882391F0E82F46
:10043000F0E0EE0FFF1FE859FF4FA591B49166233E
:1004400029F48C91909589238C9308958C91892B14
:100450008C930895482F50E0CA0182559F4FFC01AC
:100460002491CA0186569F4FFC0194914A575F4FD1
:10047000FA0134913323D1F1222331F1233021F4D5
:10048000809180008F7705C0243031F48091800006
:100490008F7D8093800018C0213019F484B58F7748
:1004A00004C0223021F484B58F7D84BD0DC0263078
:1004B00021F48091B0008F7705C0273029F4809116
:1004C000B0008F7D8093B000E32FF0E0EE0FFF1FB0
:1004D000EE58FF4FA591B491662329F48C91909525
:1004E00089238C9308958C91892B8C9308951F9266
:1004F0000F920FB60F9211242F933F938F939F93D8
:10050000AF93BF9380912A0190912B01A0912C0170
:10051000B0912D0130912E010196A11DB11D232F07
:100520002D5F2D3720F02D570196A11DB11D209371
:100530002E0180932A0190932B01A0932C01B0935C
:100540002D018091260190912701A0912801B09161
:1005500029010196A11DB11D8093260190932701C9
:10056000A0932801B0932901BF91AF919F918F91E2
:100570003F912F910F900FBE0F901F9018958FB73E
:10058000F89420912A0130912B0140912C01509137
:100590002D018FBFB901CA010895789484B5826096
:1005A00084BD84B5816084BD85B5826085BD85B517
:1005B000816085BDEEE6F0E0808181608083E1E8C6
:1005C000F0E0808182608083808181608083E0E8C8
:1005D000F0E0808181608083E1EBF0E080818460E5
:1005E0008083E0EBF0E0808181608083EAE7F0E0E7
:1005F000808184608083808182608083808181604B
:1006000080838081806880831092C10008951F924A
:100610000F920FB60F9211242F933F934F935F9336
:100620006F937F938F939F93AF93BF93EF93FF93BA
:100630004091C600E091AF01F091B001CF01019669
:1006400060E870E00E9466049C018091B101909185
:10065000B2012817390739F0E15DFE4F408330932E
:10066000B0012093AF01FF91EF91BF91AF919F91A6
:100670008F917F916F915F914F913F912F910F904B
:100680000FBE0F901F901895AF92BF92CF92DF923E
:10069000EF92FF920F931F93CF93DF937A018B0119
:1006A000EC01AC80BD80CB01BA0122E030E040E03B
:1006B00050E00E949B04205C3D4B404F5F4FCA01BD
:1006C000B901A80197010E949B04C901DA010197B1
:1006D000A109B109292F3A2F4B2F552747FD5A95CC
:1006E0000196A11DB11DF5012083EE81FF8181508E
:1006F0008083EA85FB85208141E050E0CA010E84B9
:1007000002C0880F991F0A94E2F7282B2083EA85FC
:10071000FB852081CA010F8402C0880F991F0A94AB
:10072000E2F7282B2083EA85FB858081088802C0B8
:10073000440F551F0A94E2F7842B8083DF91CF91F9
:100740001F910F91FF90EF90DF90CF90BF90AF90EF
:100750000895CF93DF93EC01EA81FB81E058FF4FCE
:100760008191919180589F4F20813181821B930B01
:1007700060E870E00E946604DF91CF910895CF9306
:10078000DF93EC01EA81FB81EF01CE57DF4F488117
:100790005981E058FF4F80819181E058F0408417E3
:1007A000950719F42FEF3FEF0CC0E40FF51F2081E0
:1007B000CA01019660E870E00E946604998388830C
:1007C00030E0C901DF91CF910895FC01A085B1858A
:1007D00021898C9190E0022E02C0959587950A940C
:1007E000E2F780FFF6CF0484F585E02D608308955D
:1007F00084E091E09093B4018093B3018FE291E0A3
:100800009093B6018093B50185EC90E09093B80188
:100810008093B70184EC90E09093BA018093B90182
:1008200080EC90E09093BC018093BB0181EC90E060
:100830009093BE018093BD0186EC90E09093C0013F
:100840008093BF0184E08093C10183E08093C20163
:1008500087E08093C30185E08093C40108950F93DE
:100860001F93CF93DF938C01EB0109C02196D80130
:10087000ED91FC910190F081E02DC801099568810E
:100880006623A1F7DF91CF911F910F910895EF9209
:10089000FF920F931F93CF93DF938C017B01EA01AB
:1008A0000CC0D7016D917D01D801ED91FC910190B3
:1008B000F081E02DC80109952197209791F7DF91EC
:1008C000CF911F910F91FF90EF90089597FB092E04
:1008D00007260AD077FD04D049D006D000201AF4AC
:1008E000709561957F4F0895F6F7909581959F4F8C
:1008F0000895A1E21A2EAA1BBB1BFD010DC0AA1F61
:10090000BB1FEE1FFF1FA217B307E407F50720F078
:10091000A21BB30BE40BF50B661F771F881F991FF3
:100920001A9469F760957095809590959B01AC013C
:10093000BD01CF01089597FB092E05260ED057FD66
:1009400004D0D7DF0AD0001C38F45095409530957C
:1009500021953F4F4F4F5F4F0895F6F79095809543
:10096000709561957F4F8F4F9F4F0895AA1BBB1BBA
:1009700051E107C0AA1FBB1FA617B70710F0A61B9F
:10098000B70B881F991F5A95A9F780959095BC01C0
:10099000CD010895EE0FFF1F0590F491E02D09940D
:0409A000F894FFCFF9
:0A09A40000000000E5032F044704E3
:00000001FF
