:100000000C9463000C9422060C944F060C948B0005
:100010000C948B000C948B000C948B000C948B0034
:100020000C948B000C948B000C948B000C948B0024
:100030000C948B000C948B000C948B000C948B0014
:100040000C9462040C948B000C940F050C948B00A0
:100050000C948B000C948B000C948B000C948B00F4
:100060000C948B000C948B000000000024002700EF
:100070002A0000000000250028002B0000000000DE
:1000800023002600290004040404040404040202DA
:100090000202020203030303030301020408102007
:1000A0004080010204081020010204081020000012
:1000B0000007000201000003040600000000000029
:1000C00000008D00C80511241FBECFEFD4E0DEBFB5
:1000D000CDBF11E0A0E0B1E0E2EAF1E102C005909D
:1000E0000D92A837B107D9F712E0A8E7B1E001C037
:1000F0001D92A533B107E1F710E0C6ECD0E004C0D3
:100100002297FE010E94CB08C23CD107C9F70E948A
:100110009F030C94CF080C94000080916C01909187
:100120006D0190938F0180938E0180918C0190914D
:100130008D0190939101809390010895AF92BF92A9
:10014000CF92DF92EF92FF920F931F9380917E01E7
:1001500090917F01892B09F4E1C010927F011092E8
:100160007E018091780190917901885E93402CF412
:1001700028EE33E040E050E015C080917801909186
:100180007901815D97402CF020ED37E040E050E0B0
:1001900009C080917801909179019C01442737FD35
:1001A0004095542F00D000D08FEF91E0A0E0B0E058
:1001B000EDB7FEB781839283A383B483CA01B901EB
:1001C00028EE33E040E050E0B0EDEB2EB7E0FB2E40
:1001D000012D112DAA24BB2465010E94A4079B01B7
:1001E000AC0130937D0120937C010F900F900F9014
:1001F0000F902115310549F480917A0190917B018E
:1002000090937D0180937C011CC0E0917A01F09174
:100210007B0181E06F3F780759F06E1B7F0B660F03
:10022000771F80916A0190916B01861797072CF4D4
:10023000F0937D01E0937C0104C030937B01209317
:100240007A01809150010E94130420917C01309129
:100250007D0140916201509163010197E9F44217D9
:10026000530744F48091540160E00E94C6038091DA
:1002700052010EC0809164019091650128173907E1
:10028000F4F58091520160E00E94C6038091540110
:1002900061E00E94C6032FC04217530794F4809177
:1002A000540160E00E94C60360917C0170917D0161
:1002B0008091660190916701681B790B80915201D2
:1002C00018C0809164019091650128173907BCF42A
:1002D0008091520160E00E94C603609168017091B4
:1002E000690180917C0190917D01681B790B80915F
:1002F00054010E94ED0780915A0160E00DC0809189
:10030000520160E00E94C6038091540160E00E94A7
:10031000C60380915A0161E00E94C60380918A0160
:1003200090918B01892B09F418C110928B011092C6
:100330008A018091840190918501885E93402CF41C
:1003400028EE33E040E050E015C0809184019091A8
:100350008501815D97402CF020ED37E040E050E0D2
:1003600009C080918401909185019C01442737FD4B
:100370004095542F00D000D0A0909001B0909101F2
:10038000CC24B7FCC094DC2C80918E0190918F011D
:10039000AA2797FDA095BA2FEDB7FEB78183928368
:1003A000A383B483CA01B90128EE33E040E050E0F2
:1003B000E0EDEE2EE7E0FE2E012D112D0E94A407A8
:1003C0009B01AC0130938901209388010F900F901D
:1003D0000F900F902115310549F48091860190917D
:1003E000870190938901809388011CC0E091860168
:1003F000F091870181E06F3F780759F06E1B7F0B0A
:10040000660F771F80916A0190916B01861797079D
:100410002CF4F0938901E093880104C030938701A4
:1004200020938601809150010E941304019709F0E6
:100430004AC08091520160E00E94C603809154013D
:1004400060E00E94C6038091560160E00E94C603EE
:100450008091580160E00E94C60380916C019091E8
:100460006D018F5F914031F48CE291E090936D01CA
:1004700080936C0180918C0190918D01892B31F4D6
:1004800088EC90E090938D0180938C0120918801FD
:100490003091890180916C0190916D0182179307D1
:1004A0002CF430936D0120936C0157C080918C0126
:1004B00090918D01281739070CF04FC030938D01B2
:1004C00020938C014AC0209188013091890180914C
:1004D0006201909163018217930794F4809158010F
:1004E00060E00E94C603609188017091890180914B
:1004F000660190916701681B790B8091560118C0C5
:10050000809164019091650128173907BCF48091AE
:10051000560160E00E94C603609168017091690114
:100520008091880190918901681B790B8091580115
:100530000E94ED0780915C0160E00DC08091560142
:1005400060E00E94C6038091580160E00E94C603EB
:1005500080915C0161E00E94C6038FE192E060E05F
:1005600071E00E94B30660917C0170917D018FE182
:1005700092E00E949C078FE192E06DE071E00E94A2
:10058000B3068FE192E061E171E00E94B3066091F1
:100590007801709179018FE192E00E949C078FE1D0
:1005A00092E06DE071E00E94B3068FE192E060E2BC
:1005B00071E00E94B30660918801709189018FE11A
:1005C00092E00E949C078FE192E06DE071E00E9452
:1005D000B3068FE192E06DE271E00E94B306609194
:1005E0008401709185018FE192E00E949C078FE168
:1005F00092E06DE071E00E94B3068FE192E06CE35F
:1006000071E00E94B30660916C0170916D018FE101
:1006100092E00E949C078FE192E06DE071E00E9401
:10062000B3068FE192E066E471E00E94B306609148
:100630008C0170918D018FE192E00E949C078FE107
:1006400092E06DE071E00E94D2061F910F91FF9041
:10065000EF90DF90CF90BF90AF90089580916001B0
:100660000E941304019759F40E94AA046093800128
:1006700070938101809382019093830108950E9479
:10068000AA042091800130918101621B730B709349
:1006900085016093840181E090E090938B018093C9
:1006A0008A010895E1E8F0E08081887F816080839D
:1006B0008FE192E040E855E260E070E00E944C0576
:1006C0008091500160E00E94A6038091520161E098
:1006D0000E94A6038091540161E00E94A6038091CC
:1006E000560161E00E94A6038091580161E00E94DA
:1006F000A60380915A0161E00E94A60380915C01EB
:1007000061E00E94A60380915E0160E00E94A60362
:100710008091600160E00E94A60381E06EE273E0D8
:1007200041E050E00E94FF058FEF90E090937B0145
:1007300080937A01909387018093860108950E94A7
:10074000D5040E9452030E949E00FDCF282F30E066
:10075000C90186569F4FFC0194912A573F4FF901DA
:100760008491882391F0E82FF0E0EE0FFF1FE85905
:10077000FF4FA591B491662329F48C91909589231C
:100780008C9308958C91892B8C930895482F50E079
:10079000CA0182559F4FFC012491CA0186569F4F82
:1007A000FC0194914A575F4FFA0134913323D1F100
:1007B000222331F1233021F4809180008F7705C00E
:1007C000243031F4809180008F7D8093800018C0A8
:1007D000213019F484B58F7704C0223021F484B518
:1007E0008F7D84BD0DC0263021F48091B0008F77BD
:1007F00005C0273029F48091B0008F7D8093B00030
:10080000E32FF0E0EE0FFF1FEE58FF4FA591B491DC
:10081000662329F48C91909589238C9308958C916B
:10082000892B8C930895682F70E0CB0182559F4FE0
:10083000FC012491CB0186569F4FFC0144916A57DD
:100840007F4FFB019491992319F420E030E038C0E8
:10085000222331F1233021F4809180008F7705C06D
:10086000243031F4809180008F7D8093800018C007
:10087000213019F484B58F7704C0223021F484B577
:100880008F7D84BD0DC0263021F48091B0008F771C
:1008900005C0273029F48091B0008F7D8093B0008F
:1008A000892F90E0880F991F84589F4FFC01A591D4
:1008B000B4918C9120E030E0842311F021E030E00D
:1008C000C90108951F920F920FB60F9211242F9312
:1008D0003F938F939F93AF93BF9380919601909195
:1008E0009701A0919801B091990130919A010196D8
:1008F000A11DB11D232F2D5F2D3720F02D570196FF
:10090000A11DB11D20939A018093960190939701A8
:10091000A0939801B09399018091920190919301D5
:10092000A0919401B09195010196A11DB11D8093F4
:10093000920190939301A0939401B0939501BF917C
:10094000AF919F918F913F912F910F900FBE0F907C
:100950001F9018956FB7F89486B590E0A0E0B0E0CE
:10096000A89B08C00097A105B10521F480E091E0A3
:10097000A0E0B0E020919201309193014091940168
:10098000509195016FBF542F432F322F2227280FEC
:10099000391F4A1F5B1F82E0220F331F441F551F60
:1009A0008A95D1F7B901CA010895789484B5826017
:1009B00084BD84B5816084BD85B5826085BD85B503
:1009C000816085BDEEE6F0E0808181608083E1E8B2
:1009D000F0E0808182608083808181608083E0E8B4
:1009E000F0E0808181608083E1EBF0E080818460D1
:1009F0008083E0EBF0E0808181608083EAE7F0E0D3
:100A00008081846080838081826080838081816036
:100A100080838081806880831092C10008951F9236
:100A20000F920FB60F9211242F933F934F935F9322
:100A30006F937F938F939F93AF93BF93EF93FF93A6
:100A40004091C600E0911B02F0911C02CF0101967B
:100A500060E870E00E9465089C0180911D02909101
:100A60001E022817390739F0E556FE4F40833093B0
:100A70001C0220931B02FF91EF91BF91AF919F91B8
:100A80008F917F916F915F914F913F912F910F9037
:100A90000FBE0F901F901895AF92BF92CF92DF922A
:100AA000EF92FF920F931F93CF93DF936C017A0124
:100AB0008B01DC011496AD90BC901597CB01BA0167
:100AC00022E030E040E050E00E949A08205C3D4B7C
:100AD000404F5F4FCA01B901A80197010E949A08CF
:100AE000C901DA010197A109B109292F3A2F4B2F2A
:100AF000552747FD5A950196A11DB11DE501288393
:100B0000E601EE81FF8181508083EA85FB852081AB
:100B100041E050E0CA010E8402C0880F991F0A9478
:100B2000E2F7282B2083EA85FB852081CA010F8408
:100B300002C0880F991F0A94E2F7282B2083EA85C8
:100B4000FB858081088802C0440F551F0A94E2F794
:100B5000842B8083DF91CF911F910F91FF90EF90B5
:100B6000DF90CF90BF90AF900895FC01A085B18534
:100B700021898C9190E0022E02C0959587950A9468
:100B8000E2F780FFF6CF0484F585E02D60830895B9
:100B900082E791E09093200280931F028BE991E01D
:100BA000909322028093210285EC90E0909324029E
:100BB0008093230284EC90E0909326028093250298
:100BC00080EC90E0909328028093270281EC90E0E3
:100BD00090932A028093290286EC90E090932C0255
:100BE00080932B0284E080932D0283E080932E0279
:100BF00087E080932F0285E0809330020895823051
:100C000000F5E82FF0E0EE0FFF1FEF5CFD4F718362
:100C10006083882319F08130A1F408C080916900B5
:100C20008C7F842B80936900E89A089580916900F5
:100C3000440F551F440F551F837F842B80936900F9
:100C4000E99A08951F920F920FB60F9211242F93D5
:100C50003F934F935F936F937F938F939F93AF9344
:100C6000BF93EF93FF938091310290913202892BD1
:100C700029F0E0913102F09132020995FF91EF9154
:100C8000BF91AF919F918F917F916F915F914F91A4
:100C90003F912F910F900FBE0F901F9018951F92AC
:100CA0000F920FB60F9211242F933F934F935F93A0
:100CB0006F937F938F939F93AF93BF93EF93FF9324
:100CC0008091330290913402892B29F0E091330214
:100CD000F09134020995FF91EF91BF91AF919F91EF
:100CE0008F917F916F915F914F913F912F910F90D5
:100CF0000FBE0F901F9018950F931F93CF93DF9304
:100D00008C01EB0109C02196D801ED91FC91019075
:100D1000F081E02DC801099568816623A1F7DF9174
:100D2000CF911F910F910895EF92FF920F931F9310
:100D3000CF93DF938C017B01EA010CC0D7016D9149
:100D40007D01D801ED91FC910190F081E02DC80169
:100D500009952197209791F7DF91CF911F910F91DE
:100D6000FF90EF900895DC01ED91FC910280F381FA
:100D7000E02D099508950F931F938C01DC01ED91EF
:100D8000FC910190F081E02D6DE00995D801ED9185
:100D9000FC910190F081E02DC8016AE009951F9156
:100DA0000F9108950F931F938C010E94B306C80101
:100DB0000E94BB061F910F9108952F923F924F9270
:100DC0005F926F927F928F929F92AF92BF92CF92DB
:100DD000DF92EF92FF920F931F93DF93CF93CDB7E4
:100DE000DEB7A0970FB6F894DEBF0FBECDBF1C01D3
:100DF0006A017B01411551056105710549F4DC016A
:100E0000ED91FC910190F081E02D60E3099554C0D3
:100E1000882499245401422E55246624772401E025
:100E200010E00C0F1D1F080D191DC701B601A3010D
:100E300092010E947808F80160830894811C911C3B
:100E4000A11CB11CC701B601A30192010E94780840
:100E5000C901DA016C017D01C114D104E104F1047E
:100E6000F1F681E0E82EF12CEC0EFD1EE80CF91CE9
:100E70003E010894611C711CD501C4010197A109B0
:100E8000B1096C01C818D90814C0F601EE0DFF1D98
:100E900060816A3010F4605D01C0695CD101ED9140
:100EA000FC910190F081E02DC10109950894E108C1
:100EB000F1086E147F0449F7A0960FB6F894DEBFD0
:100EC0000FBECDBFCF91DF911F910F91FF90EF909B
:100ED000DF90CF90BF90AF909F908F907F906F905A
:100EE0005F904F903F902F900895EF92FF920F9355
:100EF0001F93CF93DF93EC017A018B0177FF0FC033
:100F0000E881F9810190F081E02D6DE2099510955D
:100F10000095F094E094E11CF11C011D111DCE011F
:100F2000B801A7012AE00E94DD06DF91CF911F9151
:100F30000F91FF90EF900895AB01662757FD6095E4
:100F4000762F0E94750708952F923F924F925F92DD
:100F50006F927F928F929F92AF92BF92CF92DF92C9
:100F6000EF92FF920F931F93DF93CF93CDB7DEB72E
:100F70003B014C0119012A016D897E898F89988D69
:100F80006A197B098C099D09621A730A840A950AF9
:100F9000A40193010E944608E218F3080409150908
:100FA000A80197010E949A082A0D3B1D4C1D5D1D4A
:100FB000B901CA01CF91DF911F910F91FF90EF907E
:100FC000DF90CF90BF90AF909F908F907F906F9069
:100FD0005F904F903F902F9008951F93CF93DF9392
:100FE000182FEB0161E00E94A603E12FF0E0E2552B
:100FF000FF4F8491833051F480918000806880930A
:101000008000D0938900C09388003CC0843051F4A4
:1010100080918000806280938000D0938B00C09389
:101020008A0030C0813039F4209729F184B5806876
:1010300084BDC7BD27C0823039F42097E1F084B564
:10104000806284BDC8BD1EC0863041F48091B0006E
:1010500080688093B000C093B30014C0873041F41F
:101060008091B00080628093B000C093B4000AC049
:10107000C038D1051CF4812F60E002C0812F61E0EF
:101080000E94C603DF91CF911F910895629FD00106
:10109000739FF001829FE00DF11D649FE00DF11D33
:1010A000929FF00D839FF00D749FF00D659FF00DE2
:1010B0009927729FB00DE11DF91F639FB00DE11DCF
:1010C000F91FBD01CF011124089597FB092E0726B2
:1010D0000AD077FD04D049D006D000201AF47095CC
:1010E00061957F4F0895F6F7909581959F4F0895EC
:1010F000A1E21A2EAA1BBB1BFD010DC0AA1FBB1F1C
:10110000EE1FFF1FA217B307E407F50720F0A21B8D
:10111000B30BE40BF50B661F771F881F991F1A94FA
:1011200069F760957095809590959B01AC01BD0124
:10113000CF01089597FB092E05260ED057FD04D048
:10114000D7DF0AD0001C38F4509540953095219592
:101150003F4F4F4F5F4F0895F6F7909580957095EC
:1011600061957F4F8F4F9F4F0895AA1BBB1B51E185
:1011700007C0AA1FBB1FA617B70710F0A61BB70B07
:10118000881F991F5A95A9F780959095BC01CD01AC
:101190000895EE0FFF1F0590F491E02D0994F89447
:0211A000FFCF7F
:1011A2006368616E6E656C20313A20200009202050
:1011B200007263315F76616C207261773A202000A1
:1011C2006368616E6E656C20323A20200072633271
:1011D2005F76616C207261773A2020006D61785FE2
:1011E20072633A2020006D696E5F72633A202000BC
:1011F20007000500060009000A000C000D000200AD
:1012020003000901F5000001FF009001FF01000049
:081212000000B5057C069406FE
:00000001FF
