:100000000C9463000C948B000C948B000C948B006C
:100010000C948B000C948B000C948B000C948B0034
:100020000C948B000C948B000C948B000C948B0024
:100030000C948B000C948B000C948B000C948B0014
:100040000C94EC050C948B000C94BB040C948B006A
:100050000C948B000C948B000C948B000C948B00F4
:100060000C948B000C948B000000000024002700EF
:100070002A0000000000250028002B0000000000DE
:1000800023002600290004040404040404040202DA
:100090000202020203030303030301020408102007
:1000A0004080010204081020010204081020000012
:1000B0000007000201000003040600000000000029
:1000C00000005D02740511241FBECFEFD8E0DEBF33
:1000D000CDBF11E0A0E0B1E0E2E9FEE002C0059092
:1000E0000D92AA33B107D9F711E0AAE3B1E001C03C
:1000F0001D92A13FB107E1F710E0C6ECD0E004C0CB
:100100002297FE010E944307C23CD107C9F70E9413
:1001100047040C9447070C9400002091480130914B
:1001200049012115310549F4809108019091090197
:1001300090934B0180934A0124C02130310549F44A
:1001400080910A0190910B0190934B0180934A0199
:1001500024C02230310549F480910C0190910D01A9
:1001600090934B0180934A0124C02330310549F418
:1001700080910E0190910F0190934B0180934A0161
:1001800020C02430310549F4809110019091110173
:1001900090934B0180934A011CC02530310549F4EE
:1001A000809112019091130190934B0180934A0129
:1001B0001CC02630310529F480911401909115015D
:1001C0000FC02730310529F4809116019091170155
:1001D00007C02830310549F4809118019091190128
:1001E00090934B0180934A0108952930310541F4E1
:1001F00080911A0190911B0190934B0180934A01C9
:10020000089520914401309145012115310549F4AB
:1002100080910801909109019093470180934601D4
:1002200024C02130310549F480910A0190910B01DD
:10023000909347018093460124C02230310549F450
:1002400080910C0190910D0190934701809346019C
:1002500024C02330310549F480910E0190910F01A3
:10026000909347018093460120C02430310549F422
:100270008091100190911101909347018093460164
:100280001CC02530310549F4809112019091130171
:1002900090934701809346011CC02630310529F414
:1002A00080911401909115010FC02730310529F478
:1002B000809116019091170107C02830310549F44B
:1002C0008091180190911901909347018093460104
:1002D00008952930310541F480911A0190911B0154
:1002E00090934701809346010895209140013091F9
:1002F00041012115310549F48091080190910901CE
:10030000909343018093420124C02130310549F488
:1003100080910A0190910B019093430180934201D7
:1003200024C02230310549F480910C0190910D01D7
:10033000909343018093420124C02330310549F456
:1003400080910E0190910F0190934301809342019F
:1003500020C02430310549F48091100190911101A1
:1003600090934301809342011CC02530310549F42C
:100370008091120190911301909343018093420167
:100380001CC02630310529F480911401909115018B
:100390000FC02730310529F4809116019091170183
:1003A00007C02830310549F4809118019091190156
:1003B000909343018093420108952930310541F41F
:1003C00080911A0190911B01909343018093420107
:1003D000089520913C0130913D012115310549F4EA
:1003E000809108019091090190933F0180933E0113
:1003F00024C02130310549F480910A0190910B010C
:1004000090933F0180933E0124C02230310549F48E
:1004100080910C0190910D0190933F0180933E01DA
:1004200024C02330310549F480910E0190910F01D1
:1004300090933F0180933E0120C02430310549F460
:10044000809110019091110190933F0180933E01A2
:100450001CC02530310549F480911201909113019F
:1004600090933F0180933E011CC02630310529F452
:1004700080911401909115010FC02730310529F4A6
:10048000809116019091170107C02830310549F479
:10049000809118019091190190933F0180933E0142
:1004A00008952930310541F480911A0190911B0182
:1004B00090933F0180933E010895809106019091B1
:1004C000070190933D0180933C01909341018093FB
:1004D000400108950E94340620914E0130914F0151
:1004E000409150015091510129513C4F4F4F5F4F66
:1004F000621773078407950798F00E94340660938B
:100500004E0170934F01809350019093510180915F
:1005100048019091490101969093490180934801C7
:1005200080914801909149010A976CF0109249011D
:100530001092480180914401909145010196909359
:1005400045018093440180914401909145010697B3
:100550006CF01092450110924401809140019091FD
:1005600041010196909341018093400180914001A7
:10057000909141010A976CF0109241011092400154
:1005800080913C0190913D01019690933D018093B3
:100590003C0180913C0190913D0106976CF01092D6
:1005A0003D0110923C0180914C0190914D010196CA
:1005B00090934D0180934C010E948D000E94010197
:1005C0000E9475010E94E90180914C0190914D01BA
:1005D000069724F010924D0110924C018091000179
:1005E00060E00E946E0480914C0190914D0105974E
:1005F00041F4809104016091020141E020912801C1
:1006000007C0809104016091020141E02091200126
:100610000E94AB05809104016091020141E02091AC
:100620003E010E94AB058091000161E00E946E04D2
:1006300060913A0170913B01882777FD8095982F52
:100640000E9442068091000160E00E946E04809149
:1006500004016091020141E020911E010E94AB055E
:10066000809104016091020141E020911C010E94EF
:10067000AB058091000161E00E946E048091000151
:1006800060E00E946E0480914C0190914D010497AE
:1006900041F4809104016091020141E020912A011E
:1006A00007C0809104016091020141E02091220184
:1006B0000E94AB05809104016091020141E020910C
:1006C00042010E94AB058091000161E00E946E042E
:1006D00060913A0170913B01882777FD8095982FB2
:1006E0000E9442068091000160E00E946E048091A9
:1006F00004016091020141E020911E010E94AB05BE
:10070000809104016091020141E020911C010E944E
:10071000AB058091000161E00E946E0480910001B0
:1007200060E00E946E0480914C0190914D0103970E
:1007300041F4809104016091020141E020912C017B
:1007400007C0809104016091020141E020912401E1
:100750000E94AB05809104016091020141E020916B
:1007600046010E94AB058091000161E00E946E0489
:1007700060913A0170913B01882777FD8095982F11
:100780000E9442068091000160E00E946E04809108
:1007900004016091020141E020911E010E94AB051D
:1007A000809104016091020141E020911C010E94AE
:1007B000AB058091000161E00E946E048091000110
:1007C00060E00E946E0480914C0190914D0102976F
:1007D00041F4809104016091020141E020912E01D9
:1007E00007C0809104016091020141E0209126013F
:1007F0000E94AB05809104016091020141E02091CB
:100800004A010E94AB058091000161E00E946E04E4
:1008100060913A0170913B01882777FD8095982F70
:100820000E9442068091000160E00E946E04809167
:1008300004016091020141E020911E010E94AB057C
:10084000809104016091020141E020911C010E940D
:10085000AB058091000161E00E946E04089586ED71
:1008600091E040E855E260E070E00E94F804809179
:10087000000161E00E944E048091020161E00E944B
:100880004E048091040161E00E944E0408950E948C
:100890006C060E942F040E946A02FDCF282F30E0D0
:1008A000C90186569F4FFC0194912A573F4FF90189
:1008B0008491882391F0E82FF0E0EE0FFF1FE859B4
:1008C000FF4FA591B491662329F48C9190958923CB
:1008D0008C9308958C91892B8C930895482F50E028
:1008E000CA0182559F4FFC012491CA0186569F4F31
:1008F000FC0194914A575F4FFA0134913323D1F1AF
:10090000222331F1233021F4809180008F7705C0BC
:10091000243031F4809180008F7D8093800018C056
:10092000213019F484B58F7704C0223021F484B5C6
:100930008F7D84BD0DC0263021F48091B0008F776B
:1009400005C0273029F48091B0008F7D8093B000DE
:10095000E32FF0E0EE0FFF1FEE58FF4FA591B4918B
:10096000662329F48C91909589238C9308958C911A
:10097000892B8C9308951F920F920FB60F9211241A
:100980002F933F934F935F936F937F938F939F9397
:10099000AF93BF93EF93FF934091C600E091D201D4
:1009A000F091D301CF01019660E870E00E94DD066E
:1009B0009C018091D4019091D5012817390739F015
:1009C000EE5AFE4F40833093D3012093D201FF9122
:1009D000EF91BF91AF919F918F917F916F915F91B7
:1009E0004F913F912F910F900FBE0F901F90189530
:1009F000AF92BF92CF92DF92EF92FF920F931F932D
:100A0000CF93DF936C017A018B01DC011496AD90DA
:100A1000BC901597CB01BA0122E030E040E050E0F5
:100A20000E941207205C3D4B404F5F4FCA01B90145
:100A3000A80197010E941207C901DA010197A109D3
:100A4000B109292F3A2F4B2F552747FD5A9501966B
:100A5000A11DB11DE5012883E601EE81FF818150D2
:100A60008083EA85FB85208141E050E0CA010E8445
:100A700002C0880F991F0A94E2F7282B2083EA8589
:100A8000FB852081CA010F8402C0880F991F0A9438
:100A9000E2F7282B2083EA85FB858081088802C045
:100AA000440F551F0A94E2F7842B8083DF91CF9186
:100AB0001F910F91FF90EF90DF90CF90BF90AF907C
:100AC0000895FC01A085B18521898C9190E0022ECA
:100AD00002C0959587950A94E2F780FFF6CF0484CB
:100AE000F585E02D6083089584E391E09093D7012C
:100AF0008093D60182E591E09093D9018093D8014B
:100B000085EC90E09093DB018093DA0184EC90E037
:100B10009093DD018093DC0180EC90E09093DF0105
:100B20008093DE0181EC90E09093E1018093E001FD
:100B300086EC90E09093E3018093E20184E080935F
:100B4000E40183E08093E50187E08093E60185E09E
:100B50008093E7010895BF92CF92DF92EF92FF92C8
:100B60000F931F93CF93DF93E82EF62EB42EC0E0A1
:100B7000D0E0022F10E087E0C82ED12CBB2041F43A
:100B8000B8010C2E02C0759567950A94E2F70AC069
:100B9000B6016C1B7D0BC80102C0959587956A95BF
:100BA000E2F7BC0161708E2D0E946E048F2D61E012
:100BB0000E946E048F2D60E00E946E042196C83062
:100BC000D105E1F6DF91CF911F910F91FF90EF904A
:100BD000DF90CF90BF9008951F920F920FB60F92A3
:100BE00011242F933F938F939F93AF93BF93809143
:100BF000EC019091ED01A091EE01B091EF013091E7
:100C0000F0010196A11DB11D232F2D5F2D3720F07E
:100C10002D570196A11DB11D2093F0018093EC0189
:100C20009093ED01A093EE01B093EF018091E80164
:100C30009091E901A091EA01B091EB010196A11D0B
:100C4000B11D8093E8019093E901A093EA01B0936C
:100C5000EB01BF91AF919F918F913F912F910F9099
:100C60000FBE0F901F9018958FB7F8942091EC014C
:100C70003091ED014091EE015091EF018FBFB9012C
:100C8000CA010895EF92FF920F931F937B018C018D
:100C90008FB7F8944091EC015091ED016091EE0115
:100CA0007091EF018FBF2FB7F8948091EC01909174
:100CB000ED01A091EE01B091EF012FBF841B950BC8
:100CC000A60BB70BE816F9060A071B0760F71F917A
:100CD0000F91FF90EF900895789484B5826084BD61
:100CE00084B5816084BD85B5826085BD85B5816030
:100CF00085BDEEE6F0E0808181608083E1E8F0E090
:100D0000808182608083808181608083E0E8F0E080
:100D1000808181608083E1EBF0E08081846080836A
:100D2000E0EBF0E0808181608083EAE7F0E08081A1
:100D30008460808380818260808380818160808301
:100D40008081806880831092C10008950F931F9363
:100D5000CF93DF938C01EB0109C02196D801ED916F
:100D6000FC910190F081E02DC8010995688166230E
:100D7000A1F7DF91CF911F910F910895EF92FF920C
:100D80000F931F93CF93DF938C017B01EA010CC07B
:100D9000D7016D917D01D801ED91FC910190F08119
:100DA000E02DC80109952197209791F7DF91CF9108
:100DB0001F910F91FF90EF90089597FB092E072642
:100DC0000AD077FD04D049D006D000201AF47095DF
:100DD00061957F4F0895F6F7909581959F4F0895FF
:100DE000A1E21A2EAA1BBB1BFD010DC0AA1FBB1F2F
:100DF000EE1FFF1FA217B307E407F50720F0A21BA1
:100E0000B30BE40BF50B661F771F881F991F1A940D
:100E100069F760957095809590959B01AC01BD0137
:100E2000CF01089597FB092E05260ED057FD04D05B
:100E3000D7DF0AD0001C38F45095409530952195A5
:100E40003F4F4F4F5F4F0895F6F7909580957095FF
:100E500061957F4F8F4F9F4F0895AA1BBB1B51E198
:100E600007C0AA1FBB1FA617B70710F0A61BB70B1A
:100E7000881F991F5A95A9F780959095BC01CD01BF
:100E80000895EE0FFF1F0590F491E02D0994F8945A
:020E9000FFCF92
:100E9200020007000400FF00C000F900A400B00037
:100EA200990092008200F80080009000FF00F0009C
:100EB200C100C200C400C800810082008400880012
:0A0EC200000000006105A606BE0650
:00000001FF
