:100000000C9462000C948A000C948A000C948A0070
:100010000C948A000C948A000C948A000C948A0038
:100020000C948A000C948A000C948A000C948A0028
:100030000C948A000C948A000C948A000C948A0018
:100040000C9421040C948A000C948A000C948A006D
:100050000C948A000C948A000C948A000C948A00F8
:100060000C948A000C948A000000000024002700F1
:100070002A0000000000250028002B0000000000DE
:1000800023002600290004040404040404040202DA
:100090000202020203030303030301020408102007
:1000A0004080010204081020010204081020000012
:1000B0000007000201000003040600000000000029
:1000C00000005C0211241FBECFEFD8E0DEBFCDBF21
:1000D00011E0A0E0B1E0E6ECF9E002C005900D927D
:1000E000A833B107D9F711E0A8E3B1E001C01D9230
:1000F000AB35B107E1F710E0C4ECD0E004C02297C3
:10010000FE010E94DD04C23CD107C9F70E94AD0385
:100110000C94E1040C9400002091480130914901B5
:100120002115310549F480911C0190911D01909396
:100130004B0180934A0124C02130310549F480915C
:100140001E0190911F0190934B0180934A0124C09E
:100150002230310549F48091200190912101909342
:100160004B0180934A0124C02330310549F480912A
:1001700022019091230190934B0180934A0120C06A
:100180002430310549F48091240190912501909308
:100190004B0180934A011CC02530310549F4809100
:1001A00026019091270190934B0180934A011CC036
:1001B0002630310529F480912801909129010FC042
:1001C0002730310529F480912A0190912B0107C035
:1001D0002830310549F480913A0190913B01909388
:1001E0004B0180934A0108952930310541F48091F3
:1001F0002C0190912D0190934B0180934A01089519
:1002000020914401309145012115310549F4809137
:100210001C0190911D01909347018093460124C0D9
:100220002130310549F480911E0190911F01909376
:1002300047018093460124C02230310549F4809162
:10024000200190912101909347018093460124C0A1
:100250002330310549F4809122019091230190933C
:1002600047018093460120C02430310549F4809134
:1002700024019091250190934701809346011CC071
:100280002530310549F48091260190912701909302
:100290004701809346011CC02630310529F4809126
:1002A0002801909129010FC02730310529F4809150
:1002B0002A0190912B0107C02830310549F4809123
:1002C0003A0190913B019093470180934601089534
:1002D0002930310541F480912C0190912D019093AA
:1002E00047018093460108952091400130914101DA
:1002F0002115310549F480911C0190911D019093C5
:1003000043018093420124C02130310549F480919A
:100310001E0190911F01909343018093420124C0DC
:100320002230310549F48091200190912101909370
:1003300043018093420124C02330310549F4809168
:10034000220190912301909343018093420120C0A8
:100350002430310549F48091240190912501909336
:100360004301809342011CC02530310549F480913E
:1003700026019091270190934301809342011CC074
:100380002630310529F480912801909129010FC070
:100390002730310529F480912A0190912B0107C063
:1003A0002830310549F480913A0190913B019093B6
:1003B00043018093420108952930310541F4809131
:1003C0002C0190912D019093430180934201089557
:1003D00020913C0130913D012115310549F4809176
:1003E0001C0190911D0190933F0180933E0124C018
:1003F0002130310549F480911E0190911F019093A5
:100400003F0180933E0124C02230310549F48091A0
:1004100020019091210190933F0180933E0124C0DF
:100420002330310549F4809122019091230190936A
:100430003F0180933E0120C02430310549F4809172
:1004400024019091250190933F0180933E011CC0AF
:100450002530310549F48091260190912701909330
:100460003F0180933E011CC02630310529F4809164
:100470002801909129010FC02730310529F480917E
:100480002A0190912B0107C02830310549F4809151
:100490003A0190913B0190933F0180933E01089572
:1004A0002930310541F480912C0190912D019093D8
:1004B0003F0180933E01089580911A0190911B01A4
:1004C00090933D0180933C019093410180934001C2
:1004D00008950E94690420914E0130914F0140918E
:1004E00050015091510129513C4F4F4F5F4F2617FA
:1004F00037074807590798F40E94690460934E0132
:1005000070934F0180935001909351018091480165
:1005100090914901019690934901809348018091FF
:100520004801909149010A976CF01092490110928C
:1005300048018091440190914501019690934501B5
:1005400080934401809144019091450106976CF09D
:100550001092450110924401809140019091410117
:1005600001969093410180934001809140019091C8
:1005700041010A976CF01092410110924001809164
:100580003C0190913D01019690933D0180933C0187
:1005900080913C0190913D0106976CF010923D01D5
:1005A00010923C0180914C0190914D0101969093E5
:1005B0004D0180934C010E948C000E9400010E941A
:1005C00074010E94E80180914C0190914D010697C1
:1005D00024F010924D0110924C0180914C019091A9
:1005E0004D01059711F481E202C080912E0185B979
:1005F00080913E018BB96091380170913901882753
:1006000077FD8095982F0E94770480911A018BB90D
:100610008091360185B980914C0190914D010497EC
:1006200011F482E202C08091300185B980914201CB
:100630008BB96091380170913901882777FD8095D9
:10064000982F0E94770480911A018BB9809136010E
:1006500085B980914C0190914D01039711F484E28A
:1006600002C08091320185B9809146018BB96091B9
:10067000380170913901882777FD8095982F0E9465
:10068000770480911A018BB98091360185B98091E8
:100690004C0190914D01029711F488E202C08091C3
:1006A000340185B980914A018BB96091380170910C
:1006B0003901882777FD8095982F0E9477048091D3
:1006C0001A018BB98091360185B908958091000196
:1006D00061E00E94B4038091020161E00E94B403D2
:1006E0008091040161E00E94B4038091060161E001
:1006F0000E94B4038091080161E00E94B4038091DC
:100700000A0161E00E94B40380910C0161E00E9443
:10071000B40380910E0161E00E94B4038091100146
:1007200061E00E94B4038091120161E00E94B40371
:100730008091140161E00E94B4038091180161E08E
:100740000E94B4038091160161E00E94B40380917D
:10075000180161E00E94D40308950E94A1040E9440
:1007600066030E946902FDCF282F30E0C90186563A
:100770009F4FFC0194912A573F4FF90184918823A0
:1007800091F0E82FF0E0EE0FFF1FE859FF4FA59121
:10079000B491662329F48C91909589238C930895C4
:1007A0008C91892B8C930895482F50E0CA01825573
:1007B0009F4FFC012491CA0186569F4FFC019491E2
:1007C0004A575F4FFA0134913323D1F1222331F19B
:1007D000233021F4809180008F7705C0243031F4DC
:1007E000809180008F7D8093800018C0213019F4A3
:1007F00084B58F7704C0223021F484B58F7D84BD09
:100800000DC0263021F48091B0008F7705C02730CD
:1008100029F48091B0008F7D8093B000E32FF0E049
:10082000EE0FFF1FEE58FF4FA591B491662329F4F8
:100830008C91909589238C9308958C91892B8C931E
:1008400008951F920F920FB60F9211242F933F938A
:100850008F939F93AF93BF938091560190915701CF
:10086000A0915801B091590130915A010196A11DF2
:10087000B11D232F2D5F2D3720F02D570196A11D7F
:10088000B11D20935A018093560190935701A09374
:100890005801B09359018091520190915301A09158
:1008A0005401B09155010196A11DB11D80935201D3
:1008B00090935301A0935401B0935501BF91AF9110
:1008C0009F918F913F912F910F900FBE0F901F908E
:1008D00018958FB7F89420915601309157014091A7
:1008E0005801509159018FBFB901CA010895EF9283
:1008F000FF920F931F937B018C018FB7F894409167
:1009000056015091570160915801709159018FBF64
:100910002FB7F8948091560190915701A0915801FA
:10092000B09159012FBF841B950BA60BB70BE8168E
:10093000F9060A071B0760F71F910F91FF90EF90D0
:100940000895789484B5826084BD84B5816084BD47
:1009500085B5826085BD85B5816085BDEEE6F0E038
:10096000808181608083E1E8F0E080818260808323
:10097000808181608083E0E8F0E080818160808315
:10098000E1EBF0E0808184608083E0EBF0E0808147
:1009900081608083EAE7F0E08081846080838081E9
:1009A0008260808380818160808380818068808391
:1009B0001092C1000895EE0FFF1F0590F491E02DF5
:0609C0000994F894FFCF3A
:1009C60001000200030004000500060007000800FD
:1009D60009000A000B000C000D00FE008000F2006A
:1009E60048006000330024000400F00020003100BD
:0809F60032003400380030002B
:00000001FF
