:100000000C9463000C948B000C948B000C948B006C
:100010000C948B000C948B000C948B000C948B0034
:100020000C948B000C948B000C948B000C948B0024
:100030000C948B000C948B000C948B000C948B0014
:100040000C9430030C948B000C94EA030C948B00FA
:100050000C948B000C948B000C948B000C948B00F4
:100060000C948B000C948B000000000024002700EF
:100070002A0000000000250028002B0000000000DE
:1000800023002600290004040404040404040202DA
:100090000202020203030303030301020408102007
:1000A0004080010204081020010204081020000012
:1000B0000007000201000003040600000000000029
:1000C0000000C801A30411241FBECFEFD4E0DEBF9F
:1000D000CDBF11E0A0E0B1E0E8E1FDE002C0059095
:1000E0000D92A233B107D9F711E0A2E3B1E001C04C
:1000F0001D92AF3EB107E1F710E0C6ECD0E004C0BE
:100100002297FE010E948606C23CD107C9F70E94D1
:100110006D020C948A060C940000CF92DF92EF924D
:10012000FF920F931F936C017A018B01FC012085D4
:100130003185442737FD4095542F60E67AEE80E004
:1001400090E00E945506CA01B901A80197010E94DA
:100150005506F60124833583468357831F910F91FB
:10016000FF90EF90DF90CF9008950F931F93CF9360
:10017000DF93EC018B018A859B85029731F5613015
:10018000710589F06230710524F46115710541F043
:100190001CC06230710571F063307105B1F40DC09F
:1001A0008E8560E002C08E8561E00E94940288899D
:1001B00061E009C08E8561E002C08E8560E00E942A
:1001C0009402888960E00E9494028A859B85049746
:1001D000E9F501301105A1F0023011051CF4012BE5
:1001E00041F034C002301105D1F00330110571F532
:1001F0001DC08E8561E00E949402888960E006C07F
:100200008E8560E00E949402888961E00E949402D9
:100210008A8961E00E9494028C8960E015C08E8515
:1002200060E00E949402888961E006C08E8561E0EA
:100230000E949402888960E00E9494028A8960E0AA
:100240000E9494028C8961E00E949402DF91CF9118
:100250001F910F9108950F931F93CF93DF93EC019C
:100260001616170624F481E090E09983888377FFBF
:1002700002C0198218828B0177FF46C01095019544
:100280001F4F42C00E9478032E893F89488D598DA7
:10029000621B730B840B950B2C813D814E815F811A
:1002A000621773078407950768F30E9478036E8BC3
:1002B0007F8B888F998F888199812C853D850197C7
:1002C00061F42F5F3F4F3D872C87888599852817DC
:1002D000390771F41D861C860BC0232B21F48885F9
:1002E00099859D878C878C859D8501979D878C87B7
:1002F000015010408C859D8564E070E00E942006CE
:10030000BC01CE010E94B5000115110509F0BACF5C
:10031000DF91CF911F910F910895CF92DF92EF92CD
:10032000FF920F931F936C01842FF601158614869C
:100330001382128211821082168A178A108E118EF1
:100340007187608746875787318B208B138B028B91
:10035000F58AE48A61E00E947402F601808961E016
:100360000E947402F601828961E00E947402F60123
:10037000848961E00E94740284E090E0F601938732
:1003800082871F910F91FF90EF90DF90CF9008959B
:10039000EF92FF920F931F9382E391E060E370E08E
:1003A00045E050E026E030E009E010E0EAE0EE2E23
:1003B000F12C0E948D011F910F91FF90EF900895F5
:1003C00081E00E94020662E070E00E9420067093C5
:1003D0004D0160934C01809124010E94E1026091E3
:1003E0004C0170914D01019799F480914E019091CB
:1003F0004F01681B790B82E391E00E942B018091F1
:100400004C0190914D0190934F0180934E0126C075
:1004100081E0653078077CF082E391E061E070E094
:100420000E942B0163E072E020914C0130914D015C
:10043000621B730B0DC06A3F710584F482E391E087
:100440006FEF7FEF0E942B0160914C0170914D0185
:10045000882777FD8095982F0E9486038DED91E087
:1004600060E071E00E94110560914C0170914D01B6
:100470008DED91E00E94FA058DED91E066E071E06E
:100480000E9411058DED91E06FE071E00E94110571
:1004900060914E0170914F018DED91E00E94FA053F
:1004A0008DED91E069E171E00E94300508958DEDD8
:1004B00091E040E855E260E070E00E94270482E3AA
:1004C00091E04EE150E060E070E00E948D0080918C
:1004D000240160E00E94740208950E94B0030E940B
:1004E00057020E94E001FDCF282F30E0C901865657
:1004F0009F4FFC0194912A573F4FF9018491882323
:1005000091F0E82FF0E0EE0FFF1FE859FF4FA591A3
:10051000B491662329F48C91909589238C93089546
:100520008C91892B8C930895482F50E0CA018255F5
:100530009F4FFC012491CA0186569F4FFC01949164
:100540004A575F4FFA0134913323D1F1222331F11D
:10055000233021F4809180008F7705C0243031F45E
:10056000809180008F7D8093800018C0213019F425
:1005700084B58F7704C0223021F484B58F7D84BD8B
:100580000DC0263021F48091B0008F7705C0273050
:1005900029F48091B0008F7D8093B000E32FF0E0CC
:1005A000EE0FFF1FEE58FF4FA591B491662329F47B
:1005B0008C91909589238C9308958C91892B8C93A1
:1005C0000895682F70E0CB0182559F4FFC01249164
:1005D000CB0186569F4FFC0144916A577F4FFB0128
:1005E0009491992319F420E030E038C0222331F1AE
:1005F000233021F4809180008F7705C0243031F4BE
:10060000809180008F7D8093800018C0213019F484
:1006100084B58F7704C0223021F484B58F7D84BDEA
:100620000DC0263021F48091B0008F7705C02730AF
:1006300029F48091B0008F7D8093B000892F90E0E5
:10064000880F991F84589F4FFC01A591B4918C91FC
:1006500020E030E0842311F021E030E0C90108956A
:100660001F920F920FB60F9211242F933F938F93E7
:100670009F93AF93BF938091540190915501A091A6
:100680005601B0915701309158010196A11DB11D3D
:10069000232F2D5F2D3720F02D570196A11DB11D61
:1006A000209358018093540190935501A0935601D3
:1006B000B09357018091500190915101A091520146
:1006C000B09153010196A11DB11D809350019093EB
:1006D0005101A0935201B0935301BF91AF919F91EB
:1006E0008F913F912F910F900FBE0F901F901895F3
:1006F0008FB7F894209154013091550140915601E3
:10070000509157018FBFB901CA010895EF92FF922E
:100710000F931F937B018C018FB7F8944091540184
:100720005091550160915601709157018FBF2FB7BD
:10073000F8948091540190915501A0915601B09187
:1007400057012FBF841B950BA60BB70BE816F906B4
:100750000A071B0760F71F910F91FF90EF90089514
:10076000789484B5826084BD84B5816084BD85B58C
:10077000826085BD85B5816085BDEEE6F0E0808153
:1007800081608083E1E8F0E0808182608083808105
:1007900081608083E0E8F0E0808181608083E1EB2C
:1007A000F0E0808184608083E0EBF0E08081816014
:1007B0008083EAE7F0E080818460808380818260CA
:1007C00080838081816080838081806880831092B3
:1007D000C10008951F920F920FB60F9211242F930C
:1007E0003F934F935F936F937F938F939F93AF93B9
:1007F000BF93EF93FF934091C600E091D901F09130
:10080000DA01CF01019660E870E00E9420069C01A9
:100810008091DB019091DC012817390739F0E75A04
:10082000FE4F40833093DA012093D901FF91EF917D
:10083000BF91AF919F918F917F916F915F914F91F8
:100840003F912F910F900FBE0F901F901895AF9270
:10085000BF92CF92DF92EF92FF920F931F93CF93AD
:10086000DF936C017A018B01DC011496AD90BC9092
:100870001597CB01BA0122E030E040E050E00E9441
:100880005506205C3D4B404F5F4FCA01B901A8019E
:1008900097010E945506C901DA010197A109B10922
:1008A000292F3A2F4B2F552747FD5A950196A11D09
:1008B000B11DE5012883E601EE81FF81815080832F
:1008C000EA85FB85208141E050E0CA010E8402C028
:1008D000880F991F0A94E2F7282B2083EA85FB856D
:1008E0002081CA010F8402C0880F991F0A94E2F781
:1008F000282B2083EA85FB858081088802C0440F6D
:10090000551F0A94E2F7842B8083DF91CF911F91CA
:100910000F91FF90EF90DF90CF90BF90AF90089530
:10092000FC01A085B18521898C9190E0022E02C046
:10093000959587950A94E2F780FFF6CF0484F585B4
:10094000E02D608308958BE291E09093DE01809327
:10095000DD0189E591E09093E0018093DF0185EC72
:1009600090E09093E2018093E10184EC90E0909319
:10097000E4018093E30180EC90E09093E6018093A2
:10098000E50181EC90E09093E8018093E70186EC2B
:1009900090E09093EA018093E90184E08093EB0179
:1009A00083E08093EC0187E08093ED0185E0809304
:1009B000EE0108950F931F93CF93DF938C01EB010A
:1009C00009C02196D801ED91FC910190F081E02DB4
:1009D000C801099568816623A1F7DF91CF911F9126
:1009E0000F910895EF92FF920F931F93CF93DF9390
:1009F0008C017B01EA010CC0D7016D917D01D8010A
:100A0000ED91FC910190F081E02DC80109952197AD
:100A1000209791F7DF91CF911F910F91FF90EF9069
:100A20000895DC01ED91FC910280F381E02D0995A0
:100A300008950F931F938C01DC01ED91FC910190BF
:100A4000F081E02D6DE00995D801ED91FC910190C8
:100A5000F081E02DC8016AE009951F910F9108957A
:100A60000F931F938C010E941105C8010E94190564
:100A70001F910F9108952F923F924F925F926F9224
:100A80007F928F929F92AF92BF92CF92DF92EF921E
:100A9000FF920F931F93DF93CF93CDB7DEB7A0974D
:100AA0000FB6F894DEBF0FBECDBF1C016A017B01FB
:100AB000411551056105710549F4DC01ED91FC9189
:100AC0000190F081E02D60E3099554C088249924B9
:100AD0005401422E55246624772401E010E00C0FC7
:100AE0001D1F080D191DC701B601A30192010E9427
:100AF0003306F80160830894811C911CA11CB11C71
:100B0000C701B601A30192010E943306C901DA01AF
:100B10006C017D01C114D104E104F104F1F681E01E
:100B2000E82EF12CEC0EFD1EE80CF91C3E01089499
:100B3000611C711CD501C4010197A109B1096C01A7
:100B4000C818D90814C0F601EE0DFF1D60816A3087
:100B500010F4605D01C0695CD101ED91FC910190E0
:100B6000F081E02DC10109950894E108F1086E14A7
:100B70007F0449F7A0960FB6F894DEBF0FBECDBF35
:100B8000CF91DF911F910F91FF90EF90DF90CF9069
:100B9000BF90AF909F908F907F906F905F904F909D
:100BA0003F902F900895EF92FF920F931F93CF9352
:100BB000DF93EC017A018B0177FF0FC0E881F981A7
:100BC0000190F081E02D6DE2099510950095F0946B
:100BD000E094E11CF11C011D111DCE01B801A7011B
:100BE0002AE00E943B05DF91CF911F910F91FF906A
:100BF000EF900895AB01662757FD6095762F0E9410
:100C0000D30508958770909126019295990F990FB9
:100C1000907C982B90937C0080917A0080648093E4
:100C20007A0080917A0086FDFCCF20917800409177
:100C30007900942F80E030E0282B392BC9010895EA
:100C400097FB092E07260AD077FD04D049D006D09D
:100C500000201AF4709561957F4F0895F6F79095EE
:100C600081959F4F0895A1E21A2EAA1BBB1BFD017F
:100C70000DC0AA1FBB1FEE1FFF1FA217B307E4077B
:100C8000F50720F0A21BB30BE40BF50B661F771FD3
:100C9000881F991F1A9469F76095709580959095B3
:100CA0009B01AC01BD01CF01089597FB092E0526DC
:100CB0000ED057FD04D0D7DF0AD0001C38F4509571
:100CC0004095309521953F4F4F4F5F4F0895F6F770
:100CD00090958095709561957F4F8F4F9F4F0895A8
:100CE000AA1BBB1B51E107C0AA1FBB1FA617B70752
:100CF00010F0A61BB70B881F991F5A95A9F780956E
:100D00009095BC01CD010895EE0FFF1F0590F49161
:080D1000E02D0994F894FFCFD7
:100D180076616C3A200020202020202020200070BE
:100D2800726576696F75733A002020202020202094
:100D380020202000070001000000009004DA04F2DF
:020D48000400A5
:00000001FF
