:100000000C9463000C948B000C948B000C948B006C
:100010000C948B000C948B000C948B000C948B0034
:100020000C948B000C948B000C948B000C948B0024
:100030000C948B000C948B000C948B000C948B0014
:100040000C94BB020C948B000C94D6030C948B0084
:100050000C948B000C948B000C948B000C948B00F4
:100060000C948B000C948B000000000024002700EF
:100070002A0000000000250028002B0000000000DE
:1000800023002600290004040404040404040202DA
:100090000202020203030303030301020408102007
:1000A0004080010204081020010204081020000012
:1000B0000007000201000003040600000000000029
:1000C0000000C2018B0411241FBECFEFD4E0DEBFBD
:1000D000CDBF11E0A0E0B1E0ECE5FAE002C0059090
:1000E0000D92AC31B107D9F711E0ACE1B1E001C03C
:1000F0001D92A53DB107E1F710E0C6ECD0E004C0C9
:100100002297FE010E942805C23CD107C9F70E9430
:1001100047020C942C050C940000CF92DF92EF92D2
:10012000FF920F931F936C017A018B01FC012085D4
:100130003185442737FD4095542F60E67AEE80E004
:1001400090E00E94F704CA01B901A80197010E943A
:10015000F704F60124833583468357831F910F915B
:10016000FF90EF90DF90CF9008950F931F93CF9360
:10017000DF93EC018B018A859B85029719F561302D
:10018000710581F06230710524F46115710541F04B
:1001900019C06230710561F06330710599F40AC0CD
:1001A00060E001C061E08E850E946E0261E007C0E0
:1001B00061E001C060E08E850E946E0260E0888987
:1001C0000E946E028A859B850497D1F50130110546
:1001D00099F0023011051CF4012B41F031C00230BE
:1001E0001105C1F00330110559F51AC061E08E8583
:1001F0000E946E0260E005C060E08E850E946E0283
:1002000061E088890E946E0261E08A890E946E0224
:1002100060E013C060E08E850E946E0261E005C060
:1002200061E08E850E946E0260E088890E946E0205
:1002300060E08A890E946E0261E08C890E946E02F1
:10024000DF91CF911F910F9108950F931F93CF933B
:10025000DF93EC011616170624F481E090E09983F1
:10026000888377FF02C0198218828B0177FF46C00E
:10027000109501951F4F42C00E9403032E893F89AC
:10028000488D598D621B730B840B950B2C813D811E
:100290004E815F81621773078407950768F30E9498
:1002A00003036E8B7F8B888F998F888199812C8532
:1002B0003D85019761F42F5F3F4F3D872C878885EF
:1002C00099852817390771F41D861C860BC0232BCE
:1002D00021F4888599859D878C878C859D850197DC
:1002E0009D878C87015010408C859D8564E070E06F
:1002F0000E94C204BC01CE010E94B5000115110587
:1003000009F0BACFDF91CF911F910F910895CF924D
:10031000DF92EF92FF920F931F936C01842FF601EF
:10032000158614861382128211821082168A178A09
:10033000108E118E7187608746875787318B208B8F
:10034000138B028BF58AE48A61E00E944E0261E021
:10035000F60180890E944E0261E0F60182890E94C6
:100360004E0261E0F60184890E944E0284E090E032
:10037000F601938782871F910F91FF90EF90DF9096
:10038000CF900895EF92FF920F931F938AE0E82E8B
:10039000F12C09E010E026E030E045E050E060E3B9
:1003A00070E08CE191E00E9487011F910F91FF9016
:1003B000EF9008950F931F93CF93DF938C01C0E0CC
:1003C000D0E015C061E08DE00E946E0268EC70E044
:1003D00080E090E00E94110360E08DE00E946E02D8
:1003E00068EC70E080E090E00E9411032196C01755
:1003F000D10744F3DF91CF911F910F910895EF92B0
:10040000FF920F931F9393ECE92E91E0F92E60E099
:1004100071E0C7010E94CB030CE111E064E670E0DB
:10042000C8010E94250164EF71E080E090E00E9425
:10043000110368E071E0C7010E94CB036CE97FEF14
:10044000C8010E94250164EF71E080E090E00E9405
:1004500011031F910F91FF90EF9008954CE350E02E
:1004600060E070E08CE191E00E948D0040E855E290
:1004700060E070E083EC91E00E94130461E08DE0A5
:100480000E944E0283E090E00E94DA0108950E94EB
:100490003B030E942E020E94FF01FDCF282F30E077
:1004A000C90186569F4FFC0194912A573F4FF9018D
:1004B0008491882391F0E82FF0E0EE0FFF1FE859B8
:1004C000FF4FA591B491662329F48C9190958923CF
:1004D0008C9308958C91892B8C930895482F50E02C
:1004E000CA0182559F4FFC012491CA0186569F4F35
:1004F000FC0194914A575F4FFA0134913323D1F1B3
:10050000222331F1233021F4809180008F7705C0C0
:10051000243031F4809180008F7D8093800018C05A
:10052000213019F484B58F7704C0223021F484B5CA
:100530008F7D84BD0DC0263021F48091B0008F776F
:1005400005C0273029F48091B0008F7D8093B000E2
:10055000E32FF0E0EE0FFF1FEE58FF4FA591B4918F
:10056000662329F48C91909589238C9308958C911E
:10057000892B8C9308951F920F920FB60F9211241E
:100580002F933F938F939F93AF93BF9380913A01A3
:1005900090913B01A0913C01B0913D0130913E0111
:1005A0000196A11DB11D232F2D5F2D3720F02D5752
:1005B0000196A11DB11D20933E0180933A019093B5
:1005C0003B01A0933C01B0933D0180913601909195
:1005D0003701A0913801B09139010196A11DB11DDB
:1005E0008093360190933701A0933801B09339017D
:1005F000BF91AF919F918F913F912F910F900FBE1F
:100600000F901F9018958FB7F89420913A01309170
:100610003B0140913C0150913D018FBFB901CA019E
:100620000895EF92FF920F931F937B018C018FB778
:10063000F89440913A0150913B0160913C017091D6
:100640003D018FBF2FB7F89480913A0190913B0103
:10065000A0913C01B0913D012FBF841B950BA60BCF
:10066000B70BE816F9060A071B0760F71F910F91F1
:10067000FF90EF900895789484B5826084BD84B52E
:10068000816084BD85B5826085BD85B5816085BD8D
:10069000EEE6F0E0808181608083E1E8F0E0808137
:1006A00082608083808181608083E0E8F0E08081E7
:1006B00081608083E1EBF0E0808184608083E0EB07
:1006C000F0E0808181608083EAE7F0E080818460EF
:1006D000808380818260808380818160808380814B
:1006E000806880831092C10008950F931F93CF9369
:1006F000DF938C01EB0109C02196D801ED91FC91AB
:100700000190F081E02DC801099568816623A1F769
:10071000DF91CF911F910F910895EF92FF920F9368
:100720001F93CF93DF938C017B01EA010CC0D701AB
:100730006D917D01D801ED91FC910190F081E02D4A
:10074000C80109952197209791F7DF91CF911F91CB
:100750000F91FF90EF900895DC01ED91FC910280E4
:10076000F381E02D099508950F931F938C01DC010F
:10077000ED91FC910190F081E02D6DE00995D8019B
:10078000ED91FC910190F081E02D6AE0C80109959E
:100790001F910F9108950F931F938C010E94AC033A
:1007A000C8010E94B4031F910F9108951F920F92E8
:1007B0000FB60F9211242F933F934F935F936F9334
:1007C0007F938F939F93AF93BF93EF93FF9340914A
:1007D000C600E091BF01F091C001CF01019660E831
:1007E00070E00E94C2049C018091C1019091C201FD
:1007F0002817390739F0E15CFE4F40833093C00180
:100800002093BF01FF91EF91BF91AF919F918F9185
:100810007F916F915F914F913F912F910F900FBEFC
:100820000F901F901895AF92BF92CF92DF92EF92E8
:10083000FF920F931F93CF93DF937A018B01EC010B
:10084000AC80BD80CB01BA0122E030E040E050E056
:100850000E94F704205C3D4B404F5F4FCA01B90135
:10086000A80197010E94F704C901DA010197A109C3
:10087000B109292F3A2F4B2F552747FD5A9501963D
:10088000A11DB11DF5012083EE81FF818150808380
:10089000EA85FB85208141E050E0CA010E8402C058
:1008A000880F991F0A94E2F7282B2083EA85FB859D
:1008B0002081CA010F8402C0880F991F0A94E2F7B1
:1008C000282B2083EA85FB858081088802C0440F9D
:1008D000551F0A94E2F7842B8083DF91CF911F91FB
:1008E0000F91FF90EF90DF90CF90BF90AF90089561
:1008F000FC01A085B18521898C9190E0022E02C077
:10090000959587950A94E2F780FFF6CF0484F585E4
:10091000E02D6083089585E191E09093C401809378
:10092000C3018FE391E09093C6018093C50185ECEC
:1009300090E09093C8018093C70184EC90E090937D
:10094000CA018093C90180EC90E09093CC01809320
:10095000CB0181EC90E09093CE018093CD0186ECA9
:1009600090E09093D0018093CF0184E08093D101F7
:1009700083E08093D20187E08093D30185E0809368
:10098000D401089597FB092E07260AD077FD04D0DD
:1009900049D006D000201AF4709561957F4F0895D4
:1009A000F6F7909581959F4F0895A1E21A2EAA1B04
:1009B000BB1BFD010DC0AA1FBB1FEE1FFF1FA2170F
:1009C000B307E407F50720F0A21BB30BE40BF50B0C
:1009D000661F771F881F991F1A9469F76095709595
:1009E000809590959B01AC01BD01CF01089597FBC7
:1009F000092E05260ED057FD04D0D7DF0AD0001CE3
:100A000038F450954095309521953F4F4F4F5F4FAB
:100A10000895F6F790958095709561957F4F8F4F6B
:100A20009F4F0895AA1BBB1B51E107C0AA1FBB1F04
:100A3000A617B70710F0A61BB70B881F991F5A956A
:100A4000A9F780959095BC01CD010895EE0FFF1F89
:0C0A50000590F491E02D0994F894FFCF7C
:100A5C00466F7277617264004261636B7761726496
:0C0A6C000000000000780475038D0300FA
:00000001FF
