:100000000C9461000C947E000C947E000C947E0095
:100010000C947E000C947E000C947E000C947E0068
:100020000C947E000C947E000C947E000C947E0058
:100030000C947E000C947E000C947E000C947E0048
:100040000C94AF030C947E000C947E000C947E0004
:100050000C947E000C947E000C947E000C947E0028
:100060000C947E000C947E00000000002400270009
:100070002A0000000000250028002B0000000000DE
:1000800023002600290004040404040404040202DA
:100090000202020203030303030301020408102007
:1000A0004080010204081020010204081020000012
:1000B0000007000201000003040600000000000029
:1000C000000011241FBECFEFD8E0DEBFCDBF11E08E
:1000D000A0E0B1E0E4E9FCE002C005900D92A2319D
:1000E000B107D9F711E0A2E1B1E001C01D92AF3331
:1000F000B107E1F70E9460030C9448060C940000DD
:10010000A0E0B0E0E6E8F0E00C941906EC01A8806D
:10011000B980CA80DB80A114B104C104D10441F4C8
:1001200084E2A82E89EDB82E8BE5C82E87E0D82E64
:10013000C601B5012DE133EF41E050E00E94C0055A
:1001400027EA31E440E050E00E948E057B018C01FB
:10015000C601B5012DE133EF41E050E00E94C0053A
:10016000CA01B9012CEE34EF4FEF5FEF0E948E050C
:100170006E0D7F1D801F911F97FF04C0615070405E
:1001800080409048688379838A839B839B01AC017C
:100190005F77B901CA01CDB7DEB7EAE00C94350646
:1001A0000E948000089580E091E00E948000089500
:1001B0006093000170930101809302019093030109
:1001C000089580910E010E943F0590931B0180933A
:1001D0001A01809112010E945B0464E070E00E94A9
:1001E000AD05709315016093140180910A010E947E
:1001F0005B0464E070E00E94AD05709317016093AA
:10020000160180910C010E945B0464E070E00E9482
:10021000AD05709319016093180180911A019091B6
:100220001B010097C9F46091140170911501809130
:1002300004010E9479046091160170911701809168
:1002400006010E9479046091180170911901809152
:1002500008010E9479040895019709F0A6C163E09E
:1002600070E080E090E029E030E040E050E00E9463
:1002700089037093350160933401209130013091EE
:1002800031014091320150913301809124019091CC
:100290002501A0912601B0912701281739074A07A7
:1002A0005B07DCF42F5F3F4F4F4F5F4F20933001D0
:1002B0003093310140933201509333018091040116
:1002C000B9010E9479046091340170913501882749
:1002D00077FD8095982F0E94F7032091300130918F
:1002E000310140913201509133018091240190916C
:1002F0002501A0912601B091270182179307A40739
:10030000B507DCF42150304040405040209330018C
:1003100030933101409332015093330180910401B5
:10032000B9010E94790460913401709135018827E8
:1003300077FD8095982F0E94F7032091240130913A
:100340002501409126015091270180913001909123
:100350003101A0913201B0913301281739074A07C2
:100360005B0799F480910401B9010E9479046FEF51
:1003700070E080E090E00E94670360932401709336
:100380002501809326019093270120912C01309123
:100390002D0140912E0150912F01809120019091CB
:1003A0002101A0912201B0912301281739074A07A2
:1003B0005B07DCF42F5F3F4F4F4F5F4F20932C01C3
:1003C00030932D0140932E0150932F01809106010F
:1003D000B9010E9479046091340170913501882738
:1003E00077FD8095982F0E94F70320912C01309182
:1003F0002D0140912E0150912F018091200190916B
:100400002101A0912201B091230182179307A40733
:10041000B507DCF4215030404040504020932C017F
:1004200030932D0140932E0150932F0180910601AE
:10043000B9010E94790460913401709135018827D7
:1004400077FD8095982F0E94F7032091200130912D
:100450002101409122015091230180912C01909122
:100460002D01A0912E01B0912F01281739074A07BD
:100470005B0799F480910601B9010E9479046FEF3E
:1004800070E080E090E00E94670360932001709329
:100490002101809322019093230120912801309122
:1004A000290140912A0150912B0180911C019091CA
:1004B0001D01A0911E01B0911F01281739074A079D
:1004C0005B07DCF42F5F3F4F4F4F5F4F20932801B6
:1004D0003093290140932A0150932B018091080108
:1004E000B9010E9479046091340170913501882727
:1004F00077FD8095982F0E94F70320912801309175
:10050000290140912A0150912B0180911C01909169
:100510001D01A0911E01B0911F0182179307A4072E
:10052000B507DCF421503040404050402093280172
:100530003093290140932A0150932B0180910801A7
:10054000B9010E94790460913401709135018827C6
:1005500077FD8095982F0E94F70320911C01309120
:100560001D0140911E0150911F0180912801909121
:100570002901A0912A01B0912B01281739074A07B8
:100580005B0799F480910801B9010E9479046FEF2B
:1005900070E080E090E00E94670360931C0170931C
:1005A0001D0180931E0190931F01089580E00E9419
:1005B0005B040E94A7036FEF70E080E090E00E9470
:1005C0006703609324017093250180932601909323
:1005D0002701609330017093310180933201909331
:1005E00033016FEF70E080E090E00E94670360935A
:1005F0002001709321018093220190932301609345
:100600002C0170932D0180932E0190932F016FEF99
:1006100070E080E090E00E94670360931C0170939B
:100620001D0180931E0190931F0160932801709318
:10063000290180932A0190932B01609130017091E0
:100640003101809104010E94790460912C01709124
:100650002D01809106010E9479046091280170911A
:100660002901809108010E9479046FEF70E080E019
:1006700090E00E94670360932401709325018093AA
:100680002601909327016FEF70E080E090E00E94D8
:10069000670360932001709321018093220190935E
:1006A00023016FEF70E080E090E00E9467036093A9
:1006B0001C0170931D0180931E0190931F010895EA
:1006C0000E9421040E94D6020E94E100FDCFEF9219
:1006D000FF920F931F937B018C01611571058105BA
:1006E000910529F420E030E040E050E00BC00E948A
:1006F000D300A80197010E94C005AC01CB01DA012B
:100700009C01AD01B901CA011F910F91FF90EF90BB
:100710000895EF92FF920F931F937B018C01621754
:1007200073078407950764F4261B370B480B590B96
:10073000CA01B9010E946703E60EF71E081F191FC0
:10074000B701C8011F910F91FF90EF900895009796
:1007500029F0BC0180E090E00E94D80008951F922B
:100760000F920FB60F9211242F933F938F939F9365
:10077000AF93BF9380913A0190913B01A0913C01CE
:10078000B0913D0130913E010196A11DB11D232F75
:100790002D5F2D3720F02D570196A11DB11D2093FF
:1007A0003E0180933A0190933B01A0933C01B093AA
:1007B0003D018091360190913701A0913801B091AF
:1007C00039010196A11DB11D809336019093370127
:1007D000A0933801B0933901BF91AF919F918F9150
:1007E0003F912F910F900FBE0F901F901895EF9291
:1007F000FF920F931F937B018C018FB7F894409168
:100800003A0150913B0160913C0170913D018FBFD5
:100810002FB7F89480913A0190913B01A0913C014F
:10082000B0913D012FBF841B950BA60BB70BE816AB
:10083000F9060A071B0760F71F910F91FF90EF90D1
:100840000895789484B5826084BD84B5816084BD48
:1008500085B5826085BD85B5816085BDEEE6F0E039
:10086000808181608083E1E8F0E080818260808324
:10087000808181608083E0E8F0E080818160808316
:10088000E1EBF0E0808184608083E0EBF0E0808148
:1008900081608083EAE7F0E08081846080838081EA
:1008A0008260808380818160808380818068808392
:1008B0001092C10008958770909110019295990F40
:1008C000990F907C982B90937C0080917A008064A3
:1008D00080937A0080917A0086FDFCCF2091780089
:1008E00040917900942F80E030E0282B392BC9010A
:1008F00008951F93CF93DF93182FEB0161E00E94BF
:10090000D204E12FF0E0E255FF4F8491833051F49F
:1009100080918000806880938000D0938900C0938C
:1009200088003CC0843051F48091800080628093C4
:100930008000D0938B00C0938A0030C0813039F49E
:10094000209729F184B5806884BDC7BD27C0823057
:1009500039F42097E1F084B5806284BDC8BD1EC023
:10096000863041F48091B00080688093B000C093DD
:10097000B30014C0873041F48091B000806280934E
:10098000B000C093B4000AC0C038D1051CF4812F58
:1009900060E002C0812F61E00E94F204DF91CF91FC
:1009A0001F910895282F30E0C90186569F4FFC0102
:1009B00094912A573F4FF9018491882391F0E82FB1
:1009C000F0E0EE0FFF1FE859FF4FA591B4916623A9
:1009D00029F48C91909589238C9308958C91892B7F
:1009E0008C930895482F50E0CA0182559F4FFC0117
:1009F0002491CA0186569F4FFC0194914A575F4F3C
:100A0000FA0134913323D1F1222331F1233021F43F
:100A1000809180008F7705C0243031F48091800070
:100A20008F7D8093800018C0213019F484B58F77B2
:100A300004C0223021F484B58F7D84BD0DC02630E2
:100A400021F48091B0008F7705C0273029F4809180
:100A5000B0008F7D8093B000E32FF0E0EE0FFF1F1A
:100A6000EE58FF4FA591B491662329F48C9190958F
:100A700089238C9308958C91892B8C930895682FEA
:100A800070E0CB0182559F4FFC012491CB0186562B
:100A90009F4FFC0144916A577F4FFB01949199232A
:100AA00019F420E030E038C0222331F1233021F462
:100AB000809180008F7705C0243031F480918000D0
:100AC0008F7D8093800018C0213019F484B58F7712
:100AD00004C0223021F484B58F7D84BD0DC0263042
:100AE00021F48091B0008F7705C0273029F48091E0
:100AF000B0008F7D8093B000892F90E0880F991F00
:100B000084589F4FFC01A591B4918C9120E030E076
:100B1000842311F021E030E0C9010895629FD001E3
:100B2000739FF001829FE00DF11D649FE00DF11DA8
:100B3000929FF00D839FF00D749FF00D659FF00D57
:100B40009927729FB00DE11DF91F639FB00DE11D44
:100B5000F91FBD01CF011124089597FB092E072627
:100B60000AD077FD04D027D006D000201AF4709563
:100B700061957F4F0895F6F7909581959F4F089561
:100B800097FB092E05260ED057FD04D028D00AD099
:100B9000001C38F450954095309521953F4F4F4FAC
:100BA0005F4F0895F6F790958095709561957F4F0A
:100BB0008F4F9F4F0895AA1BBB1B51E107C0AA1F6F
:100BC000BB1FA617B70710F0A61BB70B881F991FEE
:100BD0005A95A9F780959095BC01CD010895A1E2A1
:100BE0001A2EAA1BBB1BFD010DC0AA1FBB1FEE1FA7
:100BF000FF1FA217B307E407F50720F0A21BB30BF2
:100C0000E40BF50B661F771F881F991F1A9469F76D
:100C100060957095809590959B01AC01BD01CF01C9
:100C200008952F923F924F925F926F927F928F9290
:100C30009F92AF92BF92CF92DF92EF92FF920F936B
:100C40001F93CF93DF93CDB7DEB7CA1BDB0B0FB675
:100C5000F894DEBF0FBECDBF09942A883988488832
:100C60005F846E847D848C849B84AA84B984C884C8
:100C7000DF80EE80FD800C811B81AA81B981CE0FBF
:100C8000D11D0FB6F894DEBF0FBECDBFED010895A4
:040C9000F894FFCF06
:100C9400010000000300050006000100020002003C
:020CA40001004D
:00000001FF
