:100000000C9462000C9493040C94B0040C948A0039
:100010000C948A000C948A000C948A000C948A0038
:100020000C948A000C948A000C948A000C948A0028
:100030000C948A000C948A000C948A000C948A0018
:100040000C94C0050C948A000C94E3020C948A0072
:100050000C948A000C948A000C948A000C948A00F8
:100060000C948A000C948A000000000024002700F1
:100070002A0000000000250028002B0000000000DE
:1000800023002600290004040404040404040202DA
:100090000202020203030303030301020408102007
:1000A0004080010204081020010204081020000012
:1000B0000007000201000003040600000000000029
:1000C0000000980311241FBECFEFD8E0DEBFCDBFE4
:1000D00011E0A0E0B1E0E0EFFDE002C005900D927C
:1000E000A832B107D9F711E0A8E2B1E001C01D9232
:1000F000A33EB107E1F710E0C4ECD0E004C02297C2
:10010000FE010E94F206C23CD107C9F70E94DC0240
:100110000C94F6060C9400006F927F928F929F923F
:10012000AF92BF92CF92DF92EF92FF920F931F9305
:100130008091320190913301892B09F4C7C010924C
:1001400033011092320180912C0190912D01885E33
:1001500093403CF478EE672E73E0772E812C912C3F
:1001600017C080912C0190912D01815D97403CF04A
:1001700060ED662E67E0762E812C912C09C080916F
:100180002C0190912D013C01882477FC8094982CBF
:100190008FEF91E0A0E0B0E0BF93AF939F938F9378
:1001A000AA24BB24650150EDE52E57E0F52E012D64
:1001B000112D28EE33E040E050E0C401B3010E946D
:1001C000CF039B01AC0130933101209330010F909C
:1001D0000F900F900F902115310549F480912E0159
:1001E00090912F0190933101809330011CC0E091D8
:1001F0002E01F0912F0181E06F3F780759F06E1BBF
:100200007F0B660F771F80911C0190911D0186174F
:1002100097072CF4F0933101E093300104C0309340
:100220002F0120932E0120913001309131018091D6
:10023000140190911501821793079CF460E080915E
:1002400002010E94ED0461E0809100010E94ED0432
:1002500060913001709131018091180190911901E4
:1002600019C0809116019091170128173907D4F40D
:1002700060E0809100010E94ED0461E08091020144
:100280000E94ED0460911A0170911B018091300170
:1002900090913101681B790B809104010E94180430
:1002A00060E010C060E0809100010E94ED0460E019
:1002B000809102010E94ED0460E0809104010E949F
:1002C000ED0461E080910C010E94ED0480913E01FB
:1002D00090913F01892B09F4C7C010923F01109201
:1002E0003E018091380190913901885E93403CF441
:1002F00038EE632E33E0732E812C912C17C0809141
:10030000380190913901815D97403CF020ED622EDB
:1003100027E0722E812C912C09C080913801909198
:1003200039013C01882477FC8094982C8FEF91E070
:10033000A0E0B0E0BF93AF939F938F93AA24BB2418
:10034000650190EDE92E97E0F92E012D112D28EE93
:1003500033E040E050E0C401B3010E94CF039B01B1
:10036000AC0130933D0120933C010F900F900F9012
:100370000F902115310549F480913A0190913B018C
:1003800090933D0180933C011CC0E0913A01F091B3
:100390003B0181E06F3F780759F06E1B7F0B660FC2
:1003A000771F80911C0190911D01861797072CF4EF
:1003B000F0933D01E0933C0104C030933B01209356
:1003C0003A0120913C0130913D01809114019091BE
:1003D0001501821793079CF460E0809108010E9448
:1003E000ED0461E080910A010E94ED0460913C01FE
:1003F00070913D01809118019091190119C080916F
:1004000016019091170128173907D4F460E0809104
:100410000A010E94ED0461E0809108010E94ED0450
:1004200060911A0170911B0180913C0190913D01F6
:10043000681B790B809106010E94180460E010C0CF
:1004400060E080910A010E94ED0460E08091080163
:100450000E94ED0460E0809106010E94ED0461E0DD
:1004600080910E010E94ED041F910F91FF90EF907B
:10047000DF90CF90BF90AF909F908F907F906F90C4
:100480000895809112010E943A05019759F40E9443
:100490000806609334017093350180933601909380
:1004A000370108950E9408062091340130913501EA
:1004B000621B730B709339016093380181E090E007
:1004C00090933F0180933E010895809110010E9416
:1004D0003A05019759F40E94080660932801709329
:1004E000290180932A0190932B0108950E94080608
:1004F0002091280130912901621B730B70932D010B
:1005000060932C0181E090E090933301809332015D
:10051000089540E855E260E070E084EC91E00E94CC
:10052000200361E0809100010E94CD0461E0809190
:1005300002010E94CD0461E0809104010E94CD047B
:1005400061E080910A010E94CD0461E08091080180
:100550000E94CD0461E0809106010E94CD0461E01B
:1005600080910C010E94CD0461E080910E010E94F7
:10057000CD0460E0809110010E94CD0460E0809184
:1005800012010E94CD0441E050E065E672E080E097
:100590000E94700441E050E061E472E081E00E945A
:1005A00070048FEF90E090932F0180932E01909331
:1005B0003B0180933A0108950E9433060E9489020C
:1005C0000E948C00FDCF1F920F920FB60F92112444
:1005D0002F933F934F935F936F937F938F939F934B
:1005E000AF93BF93EF93FF934091C600E091C0019A
:1005F000F091C101CF01019660E870E00E948C0685
:100600009C018091C2019091C3012817390739F0EC
:10061000E05CFE4F40833093C1012093C001FF9105
:10062000EF91BF91AF919F918F917F916F915F916A
:100630004F913F912F910F900FBE0F901F901895E3
:10064000AF92BF92CF92DF92EF92FF920F931F93E0
:10065000CF93DF937A018B01EC01AC80BD80CB019D
:10066000BA0122E030E040E050E00E94C106205C88
:100670003D4B404F5F4FCA01B901A80197010E944D
:10068000C106C901DA010197A109B109292F3A2F41
:100690004B2F552747FD5A950196A11DB11DF50118
:1006A0002083EE81FF8181508083EA85FB85208154
:1006B00041E050E0CA010E8402C0880F991F0A94DD
:1006C000E2F7282B2083EA85FB852081CA010F846D
:1006D00002C0880F991F0A94E2F7282B2083EA852D
:1006E000FB858081088802C0440F551F0A94E2F7F9
:1006F000842B8083DF91CF911F910F91FF90EF901A
:10070000DF90CF90BF90AF900895FC01A085B18598
:1007100021898C9190E0022E02C0959587950A94CC
:10072000E2F780FFF6CF0484F585E02D608308951D
:1007300082E291E09093C5018093C40180E491E04E
:100740009093C7018093C60185EC90E09093C90116
:100750008093C80184EC90E09093CB018093CA0110
:1007600080EC90E09093CD018093CC0181EC90E0FF
:100770009093CF018093CE0186EC90E09093D101CD
:100780008093D00184E08093D20183E08093D301F1
:1007900087E08093D40185E08093D50108952F925E
:1007A0003F924F925F926F927F928F929F92AF9201
:1007B000BF92CF92DF92EF92FF920F931F93DF933E
:1007C000CF93CDB7DEB73B014C0119012A016D89EA
:1007D0007E898F89988D6A197B098C099D09621A17
:1007E000730A840A950AA40193010E946D06E21817
:1007F000F30804091509A80197010E94C1062A0DF2
:100800003B1D4C1D5D1DB901CA01CF91DF911F91A8
:100810000F91FF90EF90DF90CF90BF90AF909F909F
:100820008F907F906F905F904F903F902F900895A2
:100830001F93CF93DF93182FEB0161E00E94CD044B
:10084000E12FF0E0E255FF4F8491833051F4809125
:100850008000806880938000D0938900C0938800D6
:100860003BC0843051F4809180008062809380008E
:10087000D0938B00C0938A002FC0813039F4209729
:1008800029F184B5806884BDC7BD26C0823039F4A3
:100890002097E1F084B5806284BDC8BD1DC086305C
:1008A00041F48091B00080688093B000C093B300A1
:1008B00013C0873041F48091B00080628093B00013
:1008C000C093B40009C0C038D10514F460E001C081
:1008D00061E0812F0E94ED04DF91CF911F91089577
:1008E000823000F5E82FF0E0EE0FFF1FEA52FE4FD6
:1008F00071836083882319F08130A1F408C080914E
:1009000069008C7F842B80936900E89A0895809118
:100910006900440F551F440F551F837F842B80931C
:100920006900E99A08951F920F920FB60F92112451
:100930008F939F93EF93FF938091D6019091D7016E
:10094000892B29F0E091D601F091D7010995FF910B
:10095000EF919F918F910F900FBE0F901F90189560
:100960001F920F920FB60F9211248F939F93EF93C4
:10097000FF938091D8019091D901892B29F0E091C2
:10098000D801F091D9010995FF91EF919F918F9135
:100990000F900FBE0F901F901895282F30E0C901BF
:1009A00086569F4FFC0194912A573F4FF90184913D
:1009B000882391F0E82FF0E0EE0FFF1FE859FF4F7A
:1009C000A591B491662329F48C91909589238C93F9
:1009D00008958C91892B8C930895482F50E0CA017B
:1009E00082559F4FFC012491CA0186569F4FFC01FE
:1009F00094914A575F4FFA0134913323D1F1222366
:100A000031F1233021F4809180008F7705C02430AC
:100A100031F4809180008F7D8093800018C0213058
:100A200019F484B58F7704C0223021F484B58F7D0A
:100A300084BD0DC0263021F48091B0008F7705C0B1
:100A4000273029F48091B0008F7D8093B000E32F90
:100A5000F0E0EE0FFF1FEE58FF4FA591B491662313
:100A600029F48C91909589238C9308958C91892BEE
:100A70008C930895682F70E0CB0182559F4FFC0145
:100A80002491CB0186569F4FFC0144916A577F4FBA
:100A9000FB019491992319F420E030E038C022231F
:100AA00031F1233021F4809180008F7705C024300C
:100AB00031F4809180008F7D8093800018C02130B8
:100AC00019F484B58F7704C0223021F484B58F7D6A
:100AD00084BD0DC0263021F48091B0008F7705C011
:100AE000273029F48091B0008F7D8093B000892F4A
:100AF00090E0880F991F84589F4FFC01A591B491F5
:100B00008C9120E030E0842311F021E030E0C90135
:100B100008950F931F93CF93DF938C01EB0109C0CE
:100B20002196D801ED91FC910190F081E02DC80152
:100B3000099568816623A1F7DF91CF911F910F91ED
:100B40000895EF92FF920F931F93CF93DF938C0141
:100B50007B01EA010CC0D7016D917D01D801ED91B7
:100B6000FC910190F081E02DC80109952197209713
:100B700091F7DF91CF911F910F91FF90EF90089522
:100B80001F920F920FB60F9211242F933F938F93C2
:100B90009F93AF93BF938091DE019091DF01A0916D
:100BA000E001B091E1013091E2010196A11DB11D7A
:100BB000232F2D5F2D3720F02D570196A11DB11D3C
:100BC0002093E2018093DE019093DF01A093E00186
:100BD000B093E1018091DA019091DB01A091DC01F9
:100BE000B091DD010196A11DB11D8093DA019093B2
:100BF000DB01A093DC01B093DD01BF91AF919F9128
:100C00008F913F912F910F900FBE0F901F901895CD
:100C10006FB7F89486B590E0A0E0B0E0A89B08C05C
:100C20000097A105B10521F480E091E0A0E0B0E0DB
:100C30002091DA013091DB014091DC015091DD011E
:100C40006FBF542F432F322F2227280F391F4A1FDF
:100C50005B1F82E0220F331F441F551F8A95D1F777
:100C6000B901CA010895789484B5826084BD84B5C1
:100C7000816084BD85B5826085BD85B5816085BD97
:100C8000EEE6F0E0808181608083E1E8F0E0808141
:100C900082608083808181608083E0E8F0E08081F1
:100CA00081608083E1EBF0E0808184608083E0EB11
:100CB000F0E0808181608083EAE7F0E080818460F9
:100CC0008083808182608083808181608083808155
:100CD000806880831092C1000895629FD001739F45
:100CE000F001829FE00DF11D649FE00DF11D929FC8
:100CF000F00D839FF00D749FF00D659FF00D992707
:100D0000729FB00DE11DF91F639FB00DE11DF91F2A
:100D1000BD01CF011124089597FB092E07260AD0A3
:100D200077FD04D049D006D000201AF47095619563
:100D30007F4F0895F6F7909581959F4F0895A1E212
:100D40001A2EAA1BBB1BFD010DC0AA1FBB1FEE1F45
:100D5000FF1FA217B307E407F50720F0A21BB30B90
:100D6000E40BF50B661F771F881F991F1A9469F70C
:100D700060957095809590959B01AC01BD01CF0168
:100D8000089597FB092E05260ED057FD04D0D7DF16
:100D90000AD0001C38F450954095309521953F4F6E
:100DA0004F4F5F4F0895F6F7909580957095619538
:100DB0007F4F8F4F9F4F0895AA1BBB1B51E107C068
:100DC000AA1FBB1FA617B70710F0A61BB70B881FDB
:100DD000991F5A95A9F780959095BC01CD0108956A
:100DE000EE0FFF1F0590F491E02D0994F894FFCFCA
:100DF0000400070009000A0008000B000C000D00A9
:100E0000020003001D01E1000001FF00900100004D
:080E1000000085038905A1051E
:00000001FF
