:100000000C9462000C949D040C94CA040C948A0015
:100010000C948A000C948A000C948A000C948A0038
:100020000C948A000C948A000C948A000C948A0028
:100030000C948A000C948A000C948A000C948A0018
:100040000C9430060C948A000C9440050C948A00A1
:100050000C948A000C948A000C948A000C948A00F8
:100060000C948A000C948A000000000024002700F1
:100070002A0000000000250028002B0000000000DE
:1000800023002600290004040404040404040202DA
:100090000202020203030303030301020408102007
:1000A0004080010204081020010204081020000012
:1000B0000007000201000003040600000000000029
:1000C0000000F90511241FBECFEFD8E0DEBFCDBF81
:1000D00011E0A0E0B1E0EEE1F1E102C005900D9287
:1000E000A433B107D9F711E0A4E3B1E001C01D9238
:1000F000A33FB107E1F710E0C4ECD0E004C02297C1
:10010000FE010E948908C23CD107C9F70E94600421
:100110000C948D080C9400008091040160E00E9412
:1001200080078091080160E00E94800780910A01A9
:1001300060E00E9480078091060160E00E948007D5
:1001400080910C0160E00E9480078091100160E0C6
:100150000E9480078091120160E00E9480078091D8
:100160000E0160E00E9480078091160161E00E940C
:1001700080078091180161E00E94800708958091B6
:100180000C0160E00E9480078091100160E00E94F5
:1001900080078091120161E00E9480076091200138
:1001A0007091210180914C0190914D01681B790B58
:1001B00080910E010E9407078091180160E00E9463
:1001C000800708958091040160E00E94800780917B
:1001D000080160E00E94800780910A0161E00E94AE
:1001E00080076091200170912101809142019091DE
:1001F0004301681B790B809106010E9407078091DB
:10020000160160E00E94800708958091120160E06D
:100210000E94800780910E0160E00E94800780911B
:100220000C0161E00E94800760914C0170914D01CA
:1002300080911E0190911F01681B790B8091100124
:100240000E9407078091180160E00E9480070895CE
:1002500080910A0160E00E9480078091060160E0C1
:100260000E9480078091040161E00E9480076091F4
:1002700042017091430180911E0190911F01681B02
:10028000790B809108010E9407078091160160E0B8
:100290000E9480070895AF92BF92CF92DF92EF92B3
:1002A000FF920F931F938091440190914501892BF8
:1002B00009F444C01092450110924401609140013C
:1002C0007091410100D000D080E090E020912201A7
:1002D00030912301442737FD4095542FE0902401AD
:1002E000F09025010027F7FC0095102FFFEFAF2EAF
:1002F000F1E0BF2EC12CD12CEDB7FEB7A182B282A6
:10030000C382D482AA24BB2465010E94F704CB01D6
:100310000F900F900F900F90F2E060307F0714F075
:100320008FEF91E097FF02C080E090E0909343014F
:1003300080934201909335018093340180914E0166
:1003400090914F01892B09F444C010924F011092F3
:100350004E0160914A0170914B0100D000D080E0C5
:1003600090E02091260130912701442737FD4095E8
:10037000542FE0902801F09029010027F7FC009508
:10038000102FEFEFAE2EE1E0BE2EC12CD12CEDB739
:10039000FEB7A182B282C382D482AA24BB246501A3
:1003A0000E94F704CB010F900F900F900F90F2E096
:1003B00060307F0714F08FEF91E097FF02C080E07C
:1003C00090E090934D0180934C019093370180937E
:1003D0003601609136017091370180911A01909138
:1003E0001B01861797070CF093C040913401509180
:1003F00035018417950774F520911E0130911F0176
:10040000CB01821B930B9093390180933801BC017F
:10041000641B750BAB01420F531F50933B0140937C
:100420003A018F3F910534F08FEF90E090933901BE
:10043000809338018091380190913901181619067E
:1004400024F010923901109238014F3F51050CF4FD
:100450004FC048C080911C0190911D0120911E0148
:1004600030911F0148175907D4F4CB01821B930B1D
:100470009C018091200190912101F901E81BF90B69
:10048000CF01840F951F90933901809338013093E9
:100490003B0120933A018F3F9105B4F00FC0CB018F
:1004A000821B930B9C0190933901809338019093A8
:1004B0003B0180933A018F3F910534F08FEF90E03C
:1004C00090933901809338018091380190913901DE
:1004D0001816190624F010923901109238012F3F96
:1004E000310534F08FEF90E090933B0180933A0117
:1004F00080913A0190913B011816190624F0109250
:100500003B0110923A010E9428010E940501C9C0D6
:1005100020911C0130911D01409134015091350111
:10052000621773070CF085C0841795078CF520912E
:10053000200130912101261B370B30933901209384
:100540003801F901E41BF50BAF0180911E01909178
:100550001F01480F591F50933B0140933A012F3F11
:10056000310534F08FEF90E090933901809338019A
:1005700080913801909139011816190624F01092D3
:100580003901109238014F3F51050CF442C03BC075
:1005900080912001909121014217530794F49C010E
:1005A000261B370BCA01861B970B9093390180934A
:1005B000380130933B0120933A018F3F9105ACF015
:1005C0000EC09C01261B370B309339012093380154
:1005D00030933B0120933A012F3F310534F08FEFE8
:1005E00090E0909339018093380180913801909187
:1005F00039011816190624F01092390110923801A9
:100600002F3F310534F08FEF90E090933B018093C2
:100610003A0180913A0190913B011816190624F095
:1006200010923B0110923A010E94E2000E94BF002A
:1006300038C084179507CCF480911E0190911F015A
:100640009A01281B390BC90162E070E00E9423085F
:10065000609338017093390160933A0170933B01C4
:100660000E9405010E94E2001CC042175307BCF41F
:100670008091200190912101841B950B62E070E034
:100680000E942308609338017093390160933A0106
:1006900070933B010E94BF000E94280102C00E948B
:1006A0008C001F910F91FF90EF90DF90CF90BF9043
:1006B000AF9008950E94780620914601309147013D
:1006C0004091480150914901621B730B70934B019B
:1006D00060934A0181E00E948A0480914A019091CE
:1006E0004B018855924038F080914A0190914B011E
:1006F0008156994090F010924F0110924E018CED6E
:1007000095E090934B0180934A0181E064E973E0A6
:1007100043E050E00E946704089581E090E09093E8
:100720004F0180934E01F1CF0E94780660934601FD
:1007300070934701809348019093490181E00E94A2
:100740008A0481E06AE573E042E050E00E946704B9
:1007500008950E94780620913C0130913D0140911E
:100760003E0150913F01621B730B709341016093F6
:10077000400180E00E948A048091400190914101F3
:100780008855924038F08091400190914101815606
:10079000994090F010924501109244018CED95E043
:1007A000909341018093400180E063EE73E043E069
:1007B00050E00E946704089581E090E09093450125
:1007C00080934401F1CF0E94780660933C017093BE
:1007D0003D0180933E0190933F0180E00E948A0496
:1007E00080E069EA73E042E050E00E946704089507
:1007F00088ED91E040E855E260E070E00E947D0500
:100800008091140161E00E9460078091080161E01D
:100810000E94600780910A0161E00E946007809158
:10082000060161E00E9460078091040161E00E947E
:1008300060078091100161E00E94600780911201C1
:1008400061E00E94600780910E0161E00E946007F4
:1008500080910C0161E00E9460078091160161E0C7
:100860000E9460078091180161E00E9460078091FA
:10087000000160E00E9460078091020160E00E9438
:1008800060078091140161E00E94800768EE73E0C8
:1008900080E090E00E94A30680E063EE73E043E016
:1008A00050E00E94670481E064E973E043E050E0B7
:1008B0000E9467048091140160E00E9480070895FF
:1008C0000E94CD060E94F8030E944B01FDCF8230AA
:1008D00000F5E82FF0E0EE0FFF1FE05BFE4F7183A5
:1008E0006083882319F08130A1F408C080916900E9
:1008F0008C7F842B80936900E89A08958091690029
:10090000440F551F440F551F837F842B809369002C
:10091000E99A0895823080F4882319F0813021F417
:1009200002C0E89801C0E998E82FF0E0EE0FFF1F41
:10093000E05BFE4F1182108208951F920F920FB656
:100940000F9211242F933F934F935F936F937F9355
:100950008F939F93AF93BF93EF93FF938091500139
:1009600090915101892B29F0E0915001F0915101B2
:100970000995FF91EF91BF91AF919F918F917F91D9
:100980006F915F914F913F912F910F900FBE0F90FC
:100990001F9018951F920F920FB60F9211242F934C
:1009A0003F934F935F936F937F938F939F93AF93F7
:1009B000BF93EF93FF938091520190915301892B44
:1009C00029F0E0915201F09153010995FF91EF91C7
:1009D000BF91AF919F918F917F916F915F914F9157
:1009E0003F912F910F900FBE0F901F9018952F924F
:1009F0003F924F925F926F927F928F929F92AF92AF
:100A0000BF92CF92DF92EF92FF920F931F93DF93EB
:100A1000CF93CDB7DEB73B014C0119012A016D8997
:100A20007E898F89988D6A197B098C099D09621AC4
:100A3000730A840A950AA40193010E940408E2182B
:100A4000F30804091509A80197010E9458082A0D06
:100A50003B1D4C1D5D1DB901CA01CF91DF911F9156
:100A60000F91FF90EF90DF90CF90BF90AF909F904D
:100A70008F907F906F905F904F903F902F90089550
:100A80001F920F920FB60F9211242F933F934F9303
:100A90005F936F937F938F939F93AF93BF93EF93E6
:100AA000FF934091C600E091D401F091D501CF01B0
:100AB000019660E870E00E9423089C018091D601B5
:100AC0009091D7012817390739F0EC5AFE4F40832F
:100AD0003093D5012093D401FF91EF91BF91AF9155
:100AE0009F918F917F916F915F914F913F912F9146
:100AF0000F900FBE0F901F901895AF92BF92CF929C
:100B0000DF92EF92FF920F931F93CF93DF936C01CD
:100B10007A018B01DC011496AD90BC901597CB0146
:100B2000BA0122E030E040E050E00E945808205C2A
:100B30003D4B404F5F4FCA01B901A80197010E9488
:100B40005808C901DA010197A109B109292F3A2FE3
:100B50004B2F552747FD5A950196A11DB11DE50163
:100B60002883E601EE81FF8181508083EA85FB8541
:100B7000208141E050E0CA010E8402C0880F991F15
:100B80000A94E2F7282B2083EA85FB852081CA019D
:100B90000F8402C0880F991F0A94E2F7282B208344
:100BA000EA85FB858081088802C0440F551F0A949E
:100BB000E2F7842B8083DF91CF911F910F91FF90FB
:100BC000EF90DF90CF90BF90AF900895FC01A0858B
:100BD000B18521898C9190E0022E02C09595879570
:100BE0000A94E2F780FFF6CF0484F585E02D608358
:100BF00008958EE291E09093D9018093D80184E525
:100C000091E09093DB018093DA0185EC90E0909382
:100C1000DD018093DC0184EC90E09093DF01809310
:100C2000DE0180EC90E09093E1018093E00181ECA3
:100C300090E09093E3018093E20186EC90E0909342
:100C4000E5018093E40184E08093E60183E08093F2
:100C5000E70187E08093E80185E08093E90108954A
:100C60001F920F920FB60F9211242F933F938F93E1
:100C70009F93AF93BF938091EE019091EF01A0916C
:100C8000F001B091F1013091F2010196A11DB11D69
:100C9000232F2D5F2D3720F02D570196A11DB11D5B
:100CA0002093F2018093EE019093EF01A093F00165
:100CB000B093F1018091EA019091EB01A091EC01D8
:100CC000B091ED010196A11DB11D8093EA019093B1
:100CD000EB01A093EC01B093ED01BF91AF919F9117
:100CE0008F913F912F910F900FBE0F901F901895ED
:100CF0006FB7F89486B590E0A0E0B0E0A89B08C07C
:100D00000097A105B10521F480E091E0A0E0B0E0FA
:100D10002091EA013091EB014091EC015091ED01FD
:100D20006FBF542F432F322F2227280F391F4A1FFE
:100D30005B1F82E0220F331F441F551F8A95D1F796
:100D4000B901CA010895EF92FF920F931F937B019F
:100D50008C018FB7F8944091EE015091EF016091B2
:100D6000F0017091F1018FBF2FB7F8948091EE01DF
:100D70009091EF01A091F001B091F1012FBF841B80
:100D8000950BA60BB70BE816F9060A071B0760F7C9
:100D90001F910F91FF90EF900895789484B5826031
:100DA00084BD84B5816084BD85B5826085BD85B50F
:100DB000816085BDEEE6F0E0808181608083E1E8BE
:100DC000F0E0808182608083808181608083E0E8C0
:100DD000F0E0808181608083E1EBF0E080818460DD
:100DE0008083E0EBF0E0808181608083EAE7F0E0DF
:100DF0008081846080838081826080838081816043
:100E000080838081806880831092C10008951F9341
:100E1000CF93DF93182FEB0161E00E946007E12F71
:100E2000F0E0E255FF4F8491833051F480918000CF
:100E3000806880938000D0938900C09388003CC074
:100E4000843051F480918000806280938000D09340
:100E50008B00C0938A0030C0813039F4209729F18B
:100E600084B5806884BDC7BD27C0823039F420971F
:100E7000E1F084B5806284BDC8BD1EC0863041F4F7
:100E80008091B00080688093B000C093B30014C01C
:100E9000873041F48091B00080628093B000C093AD
:100EA000B4000AC0C038D1051CF4812F60E002C034
:100EB000812F61E00E948007DF91CF911F910895FB
:100EC000282F30E0C90186569F4FFC0194912A5784
:100ED0003F4FF9018491882391F0E82FF0E0EE0F65
:100EE000FF1FE859FF4FA591B491662329F48C9117
:100EF000909589238C9308958C91892B8C930895D8
:100F0000482F50E0CA0182559F4FFC012491CA012D
:100F100086569F4FFC0194914A575F4FFA013491D6
:100F20003323D1F1222331F1233021F48091800049
:100F30008F7705C0243031F4809180008F7D8093BD
:100F4000800018C0213019F484B58F7704C0223096
:100F500021F484B58F7D84BD0DC0263021F48091AD
:100F6000B0008F7705C0273029F48091B0008F7DC5
:100F70008093B000E32FF0E0EE0FFF1FEE58FF4F1D
:100F8000A591B491662329F48C91909589238C9333
:100F900008958C91892B8C9308950F931F93CF9371
:100FA000DF938C01EB0109C02196D801ED91FC91F2
:100FB0000190F081E02DC801099568816623A1F7B1
:100FC000DF91CF911F910F910895EF92FF920F93B0
:100FD0001F93CF93DF938C017B01EA010CC0D701F3
:100FE0006D917D01D801ED91FC910190F081E02D92
:100FF000C80109952197209791F7DF91CF911F9113
:101000000F91FF90EF900895629FD001739FF001C0
:10101000829FE00DF11D649FE00DF11D929FF00D88
:10102000839FF00D749FF00D659FF00D9927729FBF
:10103000B00DE11DF91F639FB00DE11DF91FBD014A
:10104000CF011124089597FB092E07260AD077FDBA
:1010500004D049D006D000201AF4709561957F4FD6
:101060000895F6F7909581959F4F0895A1E21A2E65
:10107000AA1BBB1BFD010DC0AA1FBB1FEE1FFF1F3C
:10108000A217B307E407F50720F0A21BB30BE40B8C
:10109000F50B661F771F881F991F1A9469F76095D3
:1010A0007095809590959B01AC01BD01CF0108958D
:1010B00097FB092E05260ED057FD04D0D7DF0AD0A6
:1010C000001C38F450954095309521953F4F4F4F77
:1010D0005F4F0895F6F790958095709561957F4FD5
:1010E0008F4F9F4F0895AA1BBB1B51E107C0AA1F3A
:1010F000BB1FA617B70710F0A61BB70B881F991FB9
:101100005A95A9F780959095BC01CD010895EE0FF1
:0E111000FF1F0590F491E02D0994F894FFCF95
:10111E000200030007000600050004000B000A0091
:10112E00090008000E000C000D001301EB00000179
:10113E00FF004C046C074C046C0700000000E60531
:04114E00CD07E507DD
:00000001FF
