:100000000C9463000C948B000C948B000C948B006C
:100010000C948B000C948B000C948B000C948B0034
:100020000C948B000C948B000C948B000C948B0024
:100030000C948B000C948B000C948B000C948B0014
:100040000C9405020C948B000C9412030C948B00FE
:100050000C948B000C948B000C948B000C948B00F4
:100060000C948B000C948B000000000024002700EF
:100070002A0000000000250028002B0000000000DE
:1000800023002600290004040404040404040202DA
:100090000202020203030303030301020408102007
:1000A0004080010204081020010204081020000012
:1000B0000007000201000003040600000000000029
:1000C0000000F000C70311241FBECFEFD4E0DEBF55
:1000D000CDBF11E0A0E0B1E0E4EDF8E002C0059092
:1000E0000D92A232B107D9F711E0A2E2B1E001C04E
:1000F0001D92AB3DB107E1F710E0C6ECD0E004C0C3
:100100002297FE010E946404C23CD107C9F70E94F5
:1001100091010C9468040C940000CF92DF92EF924E
:10012000FF920F931F936C017A018B01FC012085D4
:100130003185442737FD4095542F60E67AEE80E004
:1001400090E00E943304CA01B901A80197010E94FE
:100150003304F60124833583468357831F910F911F
:10016000FF90EF90DF90CF900895CF92DF92EF92C3
:10017000FF920F931F936C01842FF601158614864E
:100180001382128211821082168A178A108E118EA3
:100190007187608746875787318B208B138B028B43
:1001A000F58AE48A61E00E94980161E0F6018089A5
:1001B0000E94980161E0F60182890E94980161E045
:1001C000F60184890E94980184E090E0F60193870B
:1001D00082871F910F91FF90EF90DF90CF9008954D
:1001E000EF92FF920F931F9386E0E82EF12C05E02B
:1001F00010E024E030E043E050E064E670E082E2AA
:1002000091E00E94B5001F910F91FF90EF9008952B
:10021000EF92FF920F931F9309EC11E060E071E001
:10022000C8010E94E80294E0E92E91E0F92EB7019E
:10023000C8010E94070361E080910E010E94B8018D
:1002400060E0809110010E94B80161E0809112018C
:100250000E94B80160E0809114010E94B80161E041
:10026000809116010E94B80168E873E180E090E097
:100270000E944D0269E071E0C8010E94E802B701E6
:10028000C8010E94070360E080910E010E94B8013E
:1002900061E0809110010E94B80160E0809112013C
:1002A0000E94B80161E0809114010E94B80160E0F1
:1002B000809116010E94B80168E873E180E090E047
:1002C0000E944D021F910F91FF90EF90089540E81A
:1002D00055E260E070E089EC91E00E944F0361E03C
:1002E00080910E010E94980161E0809110010E94AE
:1002F000980161E0809112010E94980161E0809173
:1003000014010E94980161E0809116010E949801F9
:100310004EE150E060E070E082E291E00E948D00EA
:1003200008950E9477020E9467010E940801FDCF94
:10033000282F30E0C90186569F4FFC0194912A571F
:100340003F4FF9018491882391F0E82FF0E0EE0F00
:10035000FF1FE859FF4FA591B491662329F48C91B2
:10036000909589238C9308958C91892B8C93089573
:10037000482F50E0CA0182559F4FFC012491CA01C9
:1003800086569F4FFC0194914A575F4FFA01349172
:100390003323D1F1222331F1233021F480918000E5
:1003A0008F7705C0243031F4809180008F7D809359
:1003B000800018C0213019F484B58F7704C0223032
:1003C00021F484B58F7D84BD0DC0263021F4809149
:1003D000B0008F7705C0273029F48091B0008F7D61
:1003E0008093B000E32FF0E0EE0FFF1FEE58FF4FB9
:1003F000A591B491662329F48C91909589238C93CF
:1004000008958C91892B8C9308951F920F920FB6AB
:100410000F9211242F933F938F939F93AF93BF938A
:100420008091400190914101A0914201B09143011E
:10043000309144010196A11DB11D232F2D5F2D3751
:1004400020F02D570196A11DB11D209344018093EA
:10045000400190934101A0934201B09343018091E8
:100460003C0190913D01A0913E01B0913F01019668
:10047000A11DB11D80933C0190933D01A0933E01CD
:10048000B0933F01BF91AF919F918F913F912F9179
:100490000F900FBE0F901F901895EF92FF920F9341
:1004A0001F937B018C018FB7F894409140015091CC
:1004B000410160914201709143018FBF2FB7F894C1
:1004C0008091400190914101A0914201B09143017E
:1004D0002FBF841B950BA60BB70BE816F9060A076E
:1004E0001B0760F71F910F91FF90EF90089578948C
:1004F00084B5826084BD84B5816084BD85B5826029
:1005000085BD85B5816085BDEEE6F0E080818160C6
:100510008083E1E8F0E08081826080838081816077
:100520008083E0E8F0E0808181608083E1EBF0E0AF
:10053000808184608083E0EBF0E080818160808353
:10054000EAE7F0E08081846080838081826080833C
:100550008081816080838081806880831092C10067
:1005600008950F931F93CF93DF938C01EB0109C084
:100570002196D801ED91FC910190F081E02DC80108
:10058000099568816623A1F7DF91CF911F910F91A3
:100590000895EF92FF920F931F93CF93DF938C01F7
:1005A0007B01EA010CC0D7016D917D01D801ED916D
:1005B000FC910190F081E02DC801099521972097C9
:1005C00091F7DF91CF911F910F91FF90EF900895D8
:1005D000DC01ED91FC910280F381E02D09950895F5
:1005E0000F931F938C01DC01ED91FC910190F08140
:1005F000E02D6DE00995D801ED91FC910190F0811D
:10060000E02D6AE0C80109951F910F9108950F939D
:100610001F938C010E94E802C8010E94F0021F9102
:100620000F9108951F920F920FB60F9211242F93DE
:100630003F934F935F936F937F938F939F93AF936A
:10064000BF93EF93FF934091C600E091C501F091F5
:10065000C601CF01019660E870E00E94FE039C0194
:100660008091C7019091C8012817390739F0EB5BD9
:10067000FE4F40833093C6012093C501FF91EF9157
:10068000BF91AF919F918F917F916F915F914F91AA
:100690003F912F910F900FBE0F901F901895AF9222
:1006A000BF92CF92DF92EF92FF920F931F93CF935F
:1006B000DF937A018B01EC01AC80BD80CB01BA01E4
:1006C00022E030E040E050E00E943304205C3D4BEB
:1006D000404F5F4FCA01B901A80197010E9433043E
:1006E000C901DA010197A109B109292F3A2F4B2F2E
:1006F000552747FD5A950196A11DB11DF50120838F
:10070000EE81FF8181508083EA85FB85208141E075
:1007100050E0CA010E8402C0880F991F0A94E2F7C4
:10072000282B2083EA85FB852081CA010F8402C023
:10073000880F991F0A94E2F7282B2083EA85FB850E
:100740008081088802C0440F551F0A94E2F7842B69
:100750008083DF91CF911F910F91FF90EF90DF90F9
:10076000CF90BF90AF900895FC01A085B1852189FD
:100770008C9190E0022E02C0959587950A94E2F73D
:1007800080FFF6CF0484F585E02D608308958CE129
:1007900091E09093CA018093C90185E491E0909320
:1007A000CC018093CB0185EC90E09093CE018093B7
:1007B000CD0184EC90E09093D0018093CF0180EC48
:1007C00090E09093D2018093D10181EC90E09093DE
:1007D000D4018093D30186EC90E09093D60180936E
:1007E000D50184E08093D70183E08093D80187E02E
:1007F0008093D90185E08093DA01089597FB092E53
:1008000007260AD077FD04D049D006D000201AF47C
:10081000709561957F4F0895F6F7909581959F4F5C
:100820000895A1E21A2EAA1BBB1BFD010DC0AA1F31
:10083000BB1FEE1FFF1FA217B307E407F50720F049
:10084000A21BB30BE40BF50B661F771F881F991FC4
:100850001A9469F760957095809590959B01AC010D
:10086000BD01CF01089597FB092E05260ED057FD37
:1008700004D0D7DF0AD0001C38F45095409530954D
:1008800021953F4F4F4F5F4F0895F6F79095809514
:10089000709561957F4F8F4F9F4F0895AA1BBB1B8B
:1008A00051E107C0AA1FBB1FA617B70710F0A61B70
:1008B000B70B881F991F5A95A9F780959095BC0191
:1008C000CD010895EE0FFF1F0590F491E02D0994DE
:0408D000F894FFCFCA
:1008D4006F6E200020202020006F66662000030039
:1008E4000400050006000D0000000000B403B1027E
:0208F400C90237
:00000001FF
