:100000000C9462000C948A000C948A000C948A0070
:100010000C948A000C948A000C948A000C948A0038
:100020000C948A000C948A000C948A000C948A0028
:100030000C948A000C948A000C948A000C948A0018
:100040000C94CE040C948A000C948A000C948A00C0
:100050000C948A000C948A000C948A000C948A00F8
:100060000C948A000C948A000000000024002700F1
:100070002A0000000000250028002B0000000000DE
:1000800023002600290004040404040404040202DA
:100090000202020203030303030301020408102007
:1000A0004080010204081020010204081020000012
:1000B0000007000201000003040600000000000029
:1000C00000005C0211241FBECFEFD8E0DEBFCDBF21
:1000D00011E0A0E0B1E0E0E2FBE002C005900D928B
:1000E000A433B107D9F711E0A4E3B1E001C01D9238
:1000F000A535B107E1F710E0C4ECD0E004C02297C9
:10010000FE010E948A05C23CD107C9F70E9419046A
:100110000C948E050C94000020914401309145010F
:100120002115310549F480911401909115019093A6
:1001300047018093460124C02130310549F4809164
:10014000160190911701909347018093460124C0B6
:100150002230310549F48091180190911901909352
:1001600047018093460124C02330310549F4809132
:100170001A0190911B01909347018093460120C082
:100180002430310549F480911C0190911D01909318
:100190004701809346011CC02530310549F4809108
:1001A0001E0190911F0190934701809346011CC04E
:1001B0002630310529F480912001909121010FC052
:1001C0002730310529F4809122019091230107C045
:1001D0002830310549F480912401909125019093B4
:1001E00047018093460108952930310541F48091FB
:1001F000260190912701909347018093460108952D
:1002000020914001309141012115310549F480913F
:10021000140190911501909343018093420124C0F1
:100220002130310549F48091160190911701909386
:1002300043018093420124C02230310549F480916A
:10024000180190911901909343018093420124C0B9
:100250002330310549F480911A0190911B0190934C
:1002600043018093420120C02430310549F480913C
:100270001C0190911D0190934301809342011CC089
:100280002530310549F480911E0190911F01909312
:100290004301809342011CC02630310529F480912E
:1002A0002001909121010FC02730310529F4809160
:1002B00022019091230107C02830310549F4809133
:1002C0002401909125019093430180934201089568
:1002D0002930310541F480912601909127019093B6
:1002E000430180934201089520913C0130913D01EA
:1002F0002115310549F480911401909115019093D5
:100300003F0180933E0124C02130310549F48091A2
:1003100016019091170190933F0180933E0124C0F4
:100320002230310549F48091180190911901909380
:100330003F0180933E0124C02330310549F4809170
:100340001A0190911B0190933F0180933E0120C0C0
:100350002430310549F480911C0190911D01909346
:100360003F0180933E011CC02530310549F4809146
:100370001E0190911F0190933F0180933E011CC08C
:100380002630310529F480912001909121010FC080
:100390002730310529F4809122019091230107C073
:1003A0002830310549F480912401909125019093E2
:1003B0003F0180933E0108952930310541F4809139
:1003C00026019091270190933F0180933E0108956B
:1003D00020913801309139012115310549F480917E
:1003E00014019091150190933B0180933A0124C030
:1003F0002130310549F480911601909117019093B5
:100400003B0180933A0124C02230310549F48091A8
:1004100018019091190190933B0180933A0124C0F7
:100420002330310549F480911A0190911B0190937A
:100430003B0180933A0120C02430310549F480917A
:100440001C0190911D0190933B0180933A011CC0C7
:100450002530310549F480911E0190911F01909340
:100460003B0180933A011CC02630310529F480916C
:100470002001909121010FC02730310529F480918E
:1004800022019091230107C02830310549F4809161
:1004900024019091250190933B0180933A010895A6
:1004A0002930310541F480912601909127019093E4
:1004B0003B0180933A0108958091120190911301BC
:1004C000909339018093380190933D0180933C01D2
:1004D00008950E94160520914801309149014091EC
:1004E0004A0150914B0129513C4F4F4F5F4F6217CA
:1004F00073078407950798F00E94160560934801DA
:100500007093490180934A0190934B01809144017B
:10051000909145010196909345018093440180910B
:100520004401909145010A976CF010924501109298
:1005300044018091400190914101019690934101C5
:1005400080934001809140019091410106976CF0A9
:10055000109241011092400180913C0190913D0127
:10056000019690933D0180933C0180913C019091D4
:100570003D010A976CF010923D0110923C01809170
:100580003801909139010196909339018093380197
:10059000809138019091390106976CF010923901E1
:1005A0001092380180913401909135010196909319
:1005B0003501809334010E948C000E9400010E944A
:1005C00074010E94E80180913401909135010697F1
:1005D00024F01092350110923401809134019091F1
:1005E0003501059711F481E202C080912A0185B995
:1005F0008091000160E00E944004809104016091BC
:10060000020141E020913A010E948D048091000195
:1006100061E00E94400460913601709137018827A3
:1006200077FD8095982F0E9424058091000160E05D
:100630000E944004809104016091020141E02091F8
:1006400028010E948D048091000161E00E94400415
:100650008091320185B980913401909135010497E0
:1006600011F482E202C080912C0185B980910001D1
:1006700060E00E944004809104016091020141E029
:1006800020913E010E948D048091000161E00E9452
:1006900040046091360170913701882777FD80957D
:1006A000982F0E9424058091000160E00E94400480
:1006B000809104016091020141E0209128010E9493
:1006C0008D048091000161E00E944004809132011C
:1006D00085B98091340190913501039711F484E23A
:1006E00002C080912E0185B98091000160E00E94D6
:1006F0004004809104016091020141E02091420197
:100700000E948D048091000161E00E94400460918C
:10071000360170913701882777FD8095982F0E94C8
:1007200024058091000160E00E9440048091040152
:100730006091020141E0209128010E948D04809186
:10074000000161E00E9440048091320185B98091EE
:10075000340190913501029711F488E202C0809132
:10076000300185B98091000160E00E9440048091D1
:1007700004016091020141E0209146010E948D0434
:100780008091000161E00E94400460913601709107
:100790003701882777FD8095982F0E942405809146
:1007A000000160E00E944004809104016091020118
:1007B00041E0209128010E948D048091000161E0B8
:1007C0000E9440048091320185B908958091000112
:1007D00061E00E9420048091020161E00E942004F7
:1007E0008091040161E00E9420048091060161E093
:1007F0000E9420048091080161E00E942004809101
:100800000A0161E00E94200480910C0161E00E94D5
:1008100020048091100161E00E94200480910E016B
:1008200061E00E9420048091100161E00E94400478
:1008300008950E944E050E94E6030E946902FDCFC2
:10084000282F30E0C90186569F4FFC0194912A570A
:100850003F4FF9018491882391F0E82FF0E0EE0FEB
:10086000FF1FE859FF4FA591B491662329F48C919D
:10087000909589238C9308958C91892B8C9308955E
:10088000482F50E0CA0182559F4FFC012491CA01B4
:1008900086569F4FFC0194914A575F4FFA0134915D
:1008A0003323D1F1222331F1233021F480918000D0
:1008B0008F7705C0243031F4809180008F7D809344
:1008C000800018C0213019F484B58F7704C022301D
:1008D00021F484B58F7D84BD0DC0263021F4809134
:1008E000B0008F7705C0273029F48091B0008F7D4C
:1008F0008093B000E32FF0E0EE0FFF1FEE58FF4FA4
:10090000A591B491662329F48C91909589238C93B9
:1009100008958C91892B8C930895BF92CF92DF928A
:10092000EF92FF920F931F93CF93DF93E82EF62E53
:10093000B42EC0E0D0E0022F10E087E0C82ED12C0A
:10094000BB2041F4B8010C2E02C0759567950A943E
:10095000E2F70AC0B6016C1B7D0BC80102C0959579
:1009600087956A95E2F7BC0161708E2D0E94400464
:100970008F2D61E00E9440048F2D60E00E944004B2
:100980002196C830D105E1F6DF91CF911F910F91EB
:10099000FF90EF90DF90CF90BF9008951F920F923D
:1009A0000FB60F9211242F933F938F939F93AF9382
:1009B000BF938091500190915101A0915201B0914B
:1009C0005301309154010196A11DB11D232F2D5FBC
:1009D0002D3720F02D570196A11DB11D20935401F4
:1009E0008093500190935101A0935201B093530111
:1009F00080914C0190914D01A0914E01B0914F0119
:100A00000196A11DB11D80934C0190934D01A093BF
:100A10004E01B0934F01BF91AF919F918F913F9144
:100A20002F910F900FBE0F901F9018958FB7F894CD
:100A30002091500130915101409152015091530148
:100A40008FBFB901CA010895EF92FF920F931F93D0
:100A50007B018C018FB7F894409150015091510166
:100A600060915201709153018FBF2FB7F89480911C
:100A7000500190915101A0915201B09153012FBFAB
:100A8000841B950BA60BB70BE816F9060A071B0784
:100A900060F71F910F91FF90EF900895789484B5BF
:100AA000826084BD84B5816084BD85B5826085BD6A
:100AB00085B5816085BDEEE6F0E080818160808350
:100AC000E1E8F0E0808182608083808181608083C2
:100AD000E0E8F0E0808181608083E1EBF0E08081FC
:100AE00084608083E0EBF0E0808181608083EAE7CE
:100AF000F0E0808184608083808182608083808157
:100B0000816080838081806880831092C100089515
:100B1000EE0FFF1F0590F491E02D0994F894FFCF9C
:100B2000020007000400080009000A000B000C0086
:100B30000D00FF00C000F900A400B0009900920071
:100B40008200F80080009000FF0031003200340085
:040B50003800300039
:00000001FF
