:100000000C9462000C943B050C9468050C948A00D7
:100010000C948A000C948A000C948A000C948A0038
:100020000C948A000C948A000C948A000C948A0028
:100030000C948A000C948A000C948A000C948A0018
:100040000C947B030C948A000C9428040C948A0072
:100050000C948A000C948A000C948A000C948A00F8
:100060000C948A000C948A000000000024002700F1
:100070002A0000000000250028002B0000000000DE
:1000800023002600290004040404040404040202DA
:100090000202020203030303030301020408102007
:1000A0004080010204081020010204081020000012
:1000B0000007000201000003040600000000000029
:1000C0000000E10411241FBECFEFD4E0DEBFCDBF9E
:1000D00011E0A0E0B1E0E2EFFDE002C005900D927A
:1000E000A432B107D9F711E0A4E2B1E001C01D923A
:1000F000AF3DB107E1F710E0C4ECD0E004C02297B7
:10010000FE010E94F306C23CD107C9F70E94B80263
:100110000C94F7060C940000AF92BF92CF92DF923E
:10012000EF92FF920F931F9380912E0190912F01D8
:10013000892B09F4BEC010922F0110922E018091DC
:10014000280190912901885E93402CF428EE33E039
:1001500040E050E015C08091280190912901815D17
:1001600097402CF020ED37E040E050E009C080914E
:100170002801909129019C01442737FD4095542F77
:1001800000D000D08FEF91E0A0E0B0E0EDB7FEB777
:1001900081839283A383B483CA01B90128EE33E03B
:1001A00040E050E0B0EDEB2EB7E0FB2E012D112D1D
:1001B000AA24BB2465010E94CC059B01AC013093AD
:1001C0002D0120932C010F900F900F900F9021156F
:1001D000310549F480912A0190912B0190932D01D2
:1001E00080932C011CC0E0912A01F0912B0181E049
:1001F0006F3F780759F06E1B7F0B660F771F80915A
:10020000180190911901861797072CF4F0932D018E
:10021000E0932C0104C030932B0120932A012091FC
:100220002C0130912D0180911001909111018217C4
:10023000930794F48091020160E00E94DF026091D4
:100240002C0170912D018091140190911501681B72
:10025000790B8091000118C08091120190911301D7
:1002600028173907BCF48091000160E00E94DF028A
:10027000609116017091170180912C0190912D01D0
:10028000681B790B809102010E941506809108017C
:1002900060E00DC08091000160E00E94DF0280916B
:1002A000020160E00E94DF028091080161E00E948B
:1002B000DF0280913A0190913B01892B09F4BEC085
:1002C00010923B0110923A018091340190913501D6
:1002D000885E93402CF428EE33E040E050E015C0F7
:1002E0008091340190913501815D97402CF020ED93
:1002F00037E040E050E009C0809134019091350131
:100300009C01442737FD4095542F00D000D08FEF3B
:1003100091E0A0E0B0E0EDB7FEB781839283A383C4
:10032000B483CA01B90128EE33E040E050E0E0EDCB
:10033000EE2EE7E0FE2E012D112DAA24BB2465012F
:100340000E94CC059B01AC01309339012093380108
:100350000F900F900F900F902115310549F4809167
:1003600036019091370190933901809338011CC078
:10037000E0913601F091370181E06F3F780759F045
:100380006E1B7F0B660F771F8091180190911901EA
:10039000861797072CF4F0933901E093380104C0D5
:1003A0003093370120933601209138013091390183
:1003B00080911001909111018217930794F480911C
:1003C000060160E00E94DF026091380170913901FE
:1003D0008091140190911501681B790B80910401A3
:1003E00018C0809112019091130128173907BCF4AD
:1003F0008091040160E00E94DF026091160170911B
:1004000017018091380190913901681B790B809117
:1004100006010E94150680910A0160E00DC08091DE
:10042000040160E00E94DF028091060160E00E940A
:10043000DF0280910A0161E00E94DF021F910F91AB
:10044000FF90EF90DF90CF90BF90AF900895809194
:100450000E010E942C03019759F40E94C30360937C
:1004600030017093310180933201909333010895EC
:100470000E94C3032091300130913101621B730B44
:10048000709335016093340181E090E090933B01DB
:1004900080933A01089580910C010E942C030197EA
:1004A00059F40E94C3036093240170932501809343
:1004B00026019093270108950E94C30320912401EF
:1004C00030912501621B730B709329016093280101
:1004D00081E090E090932F0180932E01089589ECA4
:1004E00091E040E855E260E070E00E946504809190
:1004F000000161E00E94BF028091020161E00E9460
:10050000BF028091040161E00E94BF028091060158
:1005100061E00E94BF028091080161E00E94BF0279
:1005200080910A0161E00E94BF0280910C0160E0AD
:100530000E94BF0280910E0160E00E94BF0280E035
:100540006BE472E041E050E00E94180581E067E250
:1005500072E041E050E00E9418058FEF90E0909328
:100560002B0180932A0190933701809336010895DF
:100570000E94EE030E946F020E948C00FDCF282F84
:1005800030E0C90186569F4FFC0194912A573F4F96
:10059000F9018491882391F0E82FF0E0EE0FFF1F1E
:1005A000E859FF4FA591B491662329F48C91909559
:1005B00089238C9308958C91892B8C930895482FCF
:1005C00050E0CA0182559F4FFC012491CA01865612
:1005D0009F4FFC0194914A575F4FFA0134913323A6
:1005E000D1F1222331F1233021F4809180008F77E3
:1005F00005C0243031F4809180008F7D809380008D
:1006000018C0213019F484B58F7704C0223021F44A
:1006100084B58F7D84BD0DC0263021F48091B0005B
:100620008F7705C0273029F48091B0008F7D8093AB
:10063000B000E32FF0E0EE0FFF1FEE58FF4FA59143
:10064000B491662329F48C91909589238C93089515
:100650008C91892B8C930895682F70E0CB01825583
:100660009F4FFC012491CB0186569F4FFC01449182
:100670006A577F4FFB019491992319F420E030E0F1
:1006800038C0222331F1233021F4809180008F770C
:1006900005C0243031F4809180008F7D80938000EC
:1006A00018C0213019F484B58F7704C0223021F4AA
:1006B00084B58F7D84BD0DC0263021F48091B000BB
:1006C0008F7705C0273029F48091B0008F7D80930B
:1006D000B000892F90E0880F991F84589F4FFC012C
:1006E000A591B4918C9120E030E0842311F021E0B9
:1006F00030E0C90108951F920F920FB60F92112496
:100700002F933F938F939F93AF93BF93809140011B
:1007100090914101A0914201B09143013091440177
:100720000196A11DB11D232F2D5F2D3720F02D57D0
:100730000196A11DB11D2093440180934001909327
:100740004101A0934201B093430180913C019091FB
:100750003D01A0913E01B0913F010196A11DB11D47
:1007600080933C0190933D01A0933E01B0933F01E3
:10077000BF91AF919F918F913F912F910F900FBE9D
:100780000F901F9018956FB7F89486B590E0A0E091
:10079000B0E0A89B08C00097A105B10521F480E056
:1007A00091E0A0E0B0E020913C0130913D0140910A
:1007B0003E0150913F016FBF542F432F322F22270C
:1007C000280F391F4A1F5B1F82E0220F331F441F6F
:1007D000551F8A95D1F7B901CA010895789484B557
:1007E000826084BD84B5816084BD85B5826085BD2D
:1007F00085B5816085BDEEE6F0E080818160808313
:10080000E1E8F0E080818260808380818160808384
:10081000E0E8F0E0808181608083E1EBF0E08081BE
:1008200084608083E0EBF0E0808181608083EAE790
:10083000F0E0808184608083808182608083808119
:10084000816080838081806880831092C1000895D8
:100850001F920F920FB60F9211242F933F934F9335
:100860005F936F937F938F939F93AF93BF93EF9318
:10087000FF934091C600E091C501F091C601CF0100
:10088000019660E870E00E948D069C018091C7018E
:100890009091C8012817390739F0EB5BFE4F408370
:1008A0003093C6012093C501FF91EF91BF91AF91A5
:1008B0009F918F917F916F915F914F913F912F9178
:1008C0000F900FBE0F901F901895AF92BF92CF92CE
:1008D000DF92EF92FF920F931F93CF93DF936C0100
:1008E0007A018B01DC011496AD90BC901597CB0179
:1008F000BA0122E030E040E050E00E94C206205CF5
:100900003D4B404F5F4FCA01B901A80197010E94BA
:10091000C206C901DA010197A109B109292F3A2FAD
:100920004B2F552747FD5A950196A11DB11DE50195
:100930002883E601EE81FF8181508083EA85FB8573
:10094000208141E050E0CA010E8402C0880F991F47
:100950000A94E2F7282B2083EA85FB852081CA01CF
:100960000F8402C0880F991F0A94E2F7282B208376
:10097000EA85FB858081088802C0440F551F0A94D0
:10098000E2F7842B8083DF91CF911F910F91FF902D
:10099000EF90DF90CF90BF90AF900895FC01A085BD
:1009A000B18521898C9190E0022E02C095958795A2
:1009B0000A94E2F780FFF6CF0484F585E02D60838A
:1009C00008958EE191E09093CA018093C90185E476
:1009D00091E09093CC018093CB0185EC90E09093D3
:1009E000CE018093CD0184EC90E09093D001809370
:1009F000CF0180EC90E09093D2018093D10181EC03
:100A000090E09093D4018093D30186EC90E0909392
:100A1000D6018093D50184E08093D70183E0809351
:100A2000D80187E08093D90185E08093DA010895A9
:100A3000823000F5E82FF0E0EE0FFF1FE552FE4F89
:100A400071836083882319F08130A1F408C08091FC
:100A500069008C7F842B80936900E89A08958091C7
:100A60006900440F551F440F551F837F842B8093CB
:100A70006900E99A08951F920F920FB60F92112400
:100A80002F933F934F935F936F937F938F939F9396
:100A9000AF93BF93EF93FF938091DB019091DC01C3
:100AA000892B29F0E091DB01F091DC010995FF91A0
:100AB000EF91BF91AF919F918F917F916F915F91D6
:100AC0004F913F912F910F900FBE0F901F9018954F
:100AD0001F920F920FB60F9211242F933F934F93B3
:100AE0005F936F937F938F939F93AF93BF93EF9396
:100AF000FF938091DD019091DE01892B29F0E09137
:100B0000DD01F091DE010995FF91EF91BF91AF9169
:100B10009F918F917F916F915F914F913F912F9115
:100B20000F900FBE0F901F9018950F931F93CF93A8
:100B3000DF938C01EB0109C02196D801ED91FC9166
:100B40000190F081E02DC801099568816623A1F725
:100B5000DF91CF911F910F910895EF92FF920F9324
:100B60001F93CF93DF938C017B01EA010CC0D70167
:100B70006D917D01D801ED91FC910190F081E02D06
:100B8000C80109952197209791F7DF91CF911F9187
:100B90000F91FF90EF9008952F923F924F925F92A6
:100BA0006F927F928F929F92AF92BF92CF92DF927D
:100BB000EF92FF920F931F93DF93CF93CDB7DEB7E2
:100BC0003B014C0119012A016D897E898F89988D1D
:100BD0006A197B098C099D09621A730A840A950AAD
:100BE000A40193010E946E06E218F3080409150996
:100BF000A80197010E94C2062A0D3B1D4C1D5D1DD8
:100C0000B901CA01CF91DF911F910F91FF90EF9031
:100C1000DF90CF90BF90AF909F908F907F906F901C
:100C20005F904F903F902F9008951F93CF93DF9345
:100C3000182FEB0161E00E94BF02E12FF0E0E255C6
:100C4000FF4F8491833051F48091800080688093BD
:100C50008000D0938900C09388003CC0843051F458
:100C600080918000806280938000D0938B00C0933D
:100C70008A0030C0813039F4209729F184B580682A
:100C800084BDC7BD27C0823039F42097E1F084B518
:100C9000806284BDC8BD1EC0863041F48091B00022
:100CA00080688093B000C093B30014C0873041F4D3
:100CB0008091B00080628093B000C093B4000AC0FD
:100CC000C038D1051CF4812F60E002C0812F61E0A3
:100CD0000E94DF02DF91CF911F910895629FD001A2
:100CE000739FF001829FE00DF11D649FE00DF11DE7
:100CF000929FF00D839FF00D749FF00D659FF00D96
:100D00009927729FB00DE11DF91F639FB00DE11D82
:100D1000F91FBD01CF011124089597FB092E072665
:100D20000AD077FD04D049D006D000201AF470957F
:100D300061957F4F0895F6F7909581959F4F08959F
:100D4000A1E21A2EAA1BBB1BFD010DC0AA1FBB1FCF
:100D5000EE1FFF1FA217B307E407F50720F0A21B41
:100D6000B30BE40BF50B661F771F881F991F1A94AE
:100D700069F760957095809590959B01AC01BD01D8
:100D8000CF01089597FB092E05260ED057FD04D0FC
:100D9000D7DF0AD0001C38F4509540953095219546
:100DA0003F4F4F4F5F4F0895F6F7909580957095A0
:100DB00061957F4F8F4F9F4F0895AA1BBB1B51E139
:100DC00007C0AA1FBB1FA617B70710F0A61BB70BBB
:100DD000881F991F5A95A9F780959095BC01CD0160
:100DE0000895EE0FFF1F0590F491E02D0994F894FB
:020DF000FFCF33
:100DF2000500090006000A000C000D0002000300B5
:100E02000901F5000001FF00900100000000CE047E
:040E12009505AD0590
:00000001FF
