:100000000C9462000C948A000C948A000C948A0070
:100010000C948A000C948A000C948A000C948A0038
:100020000C948A000C948A000C948A000C948A0028
:100030000C948A000C948A000C948A000C948A0018
:100040000C9415060C948A000C94E4040C948A0019
:100050000C948A000C948A000C948A000C948A00F8
:100060000C948A000C948A000000000024002700F1
:100070002A0000000000250028002B0000000000DE
:1000800023002600290004040404040404040202DA
:100090000202020203030303030301020408102007
:1000A0004080010204081020010204081020000012
:1000B0000007000201000003040600000000000029
:1000C00000009D0511241FBECFEFD8E0DEBFCDBFDD
:1000D00011E0A0E0B1E0E4EEFEE002C005900D9278
:1000E000A034B107D9F711E0A0E4B1E001C01D923E
:1000F000A53FB107E1F710E0C4ECD0E004C02297BF
:10010000FE010E946C07C23CD107C9F70E9470042F
:100110000C9470070C940000209148013091490123
:100120002115310549F480910801909109019093BE
:100130004B0180934A0124C02130310549F480915C
:100140000A0190910B0190934B0180934A0124C0C6
:100150002230310549F480910C0190910D0190936A
:100160004B0180934A0124C02330310549F480912A
:100170000E0190910F0190934B0180934A0120C092
:100180002430310549F48091100190911101909330
:100190004B0180934A011CC02530310549F4809100
:1001A00012019091130190934B0180934A011CC05E
:1001B0002630310529F480911401909115010FC06A
:1001C0002730310529F4809116019091170107C05D
:1001D0002830310549F480911801909119019093CC
:1001E0004B0180934A0108952930310541F48091F3
:1001F0001A0190911B0190934B0180934A0108953D
:1002000020913401309135012115310549F4809157
:10021000080190910901909347018093460124C001
:100220002130310549F480910A0190910B0190939E
:1002300047018093460124C02230310549F4809162
:100240000C0190910D01909347018093460124C0C9
:100250002330310549F480910E0190910F01909364
:1002600047018093460120C02430310549F4809134
:1002700010019091110190934701809346011CC099
:100280002530310549F4809112019091130190932A
:100290004701809346011CC02630310529F4809126
:1002A0001401909115010FC02730310529F4809178
:1002B00016019091170107C02830310549F480914B
:1002C0001801909119019093470180934601089578
:1002D0002930310541F480911A0190911B019093CE
:1002E00047018093460108952091320130913301F6
:1002F0002115310549F480910801909109019093ED
:1003000045018093440124C02130310549F4809196
:100310000A0190910B01909345018093440124C000
:100320002230310549F480910C0190910D01909398
:1003300045018093440124C02330310549F4809164
:100340000E0190910F01909345018093440120C0CC
:100350002430310549F4809110019091110190935E
:100360004501809344011CC02530310549F480913A
:1003700012019091130190934501809344011CC098
:100380002630310529F480911401909115010FC098
:100390002730310529F4809116019091170107C08B
:1003A0002830310549F480911801909119019093FA
:1003B00045018093440108952930310541F480912D
:1003C0001A0190911B019093450180934401089577
:1003D00020913001309131012115310549F480918E
:1003E000060190910701909343018093420124C03C
:1003F0002130310549F480910A0190910B019093CD
:1004000043018093420124C02230310549F4809198
:100410000C0190910D01909343018093420124C0FF
:100420002330310549F480910E0190910F01909392
:1004300043018093420120C02430310549F480916A
:1004400010019091110190934301809342011CC0CF
:100450002530310549F48091120190911301909358
:100460004301809342011CC02630310529F480915C
:100470001401909115010FC02730310529F48091A6
:1004800016019091170107C02830310549F4809179
:1004900018019091190190934301809342010895AE
:1004A0002930310541F480911A0190911B019093FC
:1004B00043018093420108950E945D0620914E0100
:1004C00030914F01409150015091510129513C4FC1
:1004D0004F4F5F4F6217730784079507E8F00E943C
:1004E0005D0660934E0170934F018093500190938D
:1004F00051018091520190915301A0915401B0910A
:1005000055010196A11DB11D809352019093530195
:10051000A0935401B09355018091520190915301E1
:10052000A0915401B0915501CC97A105B10588F077
:1005300010925201109253011092540110925501E1
:1005400080914801909149010196909349018093CF
:100550004801809130019091310102976CF0109226
:1005600031011092300180914C0190914D01019622
:1005700090934D0180934C01809130019091310115
:1005800020913201309133018130910561F42330A3
:100590003105ACF090933301809332011092310118
:1005A000109230010CC02A3031054CF0109233010A
:1005B0001092320101969093310180933001809125
:1005C00034019091350106976CF01092350110922C
:1005D000340180913201909133010196909333015F
:1005E0008093320180914801909149010A976CF003
:1005F0001092490110924801809134019091350187
:100600000196909335018093340180914C01909133
:100610004D01069724F010924D0110924C010E945A
:100620008C000E9400010E9474010E94E8018091E8
:10063000000160E00E94970480914C0190914D016F
:10064000059741F4809104016091020141E02091FD
:10065000280107C0809104016091020141E02091CE
:1006600020010E94D405809104016091020141E0C3
:10067000209142010E94D4058091000161E00E9416
:1006800097046091400170914101882777FD809522
:10069000982F0E946B068091000160E00E949704F1
:1006A000809104016091020141E020911E010E94AD
:1006B000D405809104016091020141E020911C0168
:1006C0000E94D4058091000161E00E94970480910E
:1006D000000160E00E94970480914C0190914D01CF
:1006E000049741F4809104016091020141E020915E
:1006F0002A0107C0809104016091020141E020912C
:1007000022010E94D405809104016091020141E020
:10071000209144010E94D4058091000161E00E9473
:1007200097046091400170914101882777FD809581
:10073000982F0E946B068091000160E00E94970450
:10074000809104016091020141E020911E010E940C
:10075000D405809104016091020141E020911C01C7
:100760000E94D4058091000161E00E94970480916D
:10077000000160E00E94970480914C0190914D012E
:10078000039741F4809104016091020141E02091BE
:100790002C0107C0809104016091020141E0209189
:1007A00024010E94D405809104016091020141E07E
:1007B000209146010E94D4058091000161E00E94D1
:1007C00097046091400170914101882777FD8095E1
:1007D000982F0E946B068091000160E00E949704B0
:1007E000809104016091020141E020911E010E946C
:1007F000D405809104016091020141E020911C0127
:100800000E94D4058091000161E00E9497048091CC
:10081000000160E00E94970480914C0190914D018D
:10082000029741F4809104016091020141E020911E
:100830002E0107C0809104016091020141E02091E6
:1008400026010E94D405809104016091020141E0DB
:1008500020914A010E94D4058091000161E00E942C
:1008600097046091400170914101882777FD809540
:10087000982F0E946B068091000160E00E9497040F
:10088000809104016091020141E020911E010E94CB
:10089000D405809104016091020141E020911C0186
:1008A0000E94D4058091000161E00E9497040895A0
:1008B0008AED91E040E855E260E070E00E94210599
:1008C0008091000161E00E9477048091020161E063
:1008D0000E9477048091040161E00E9477040895EA
:1008E0000E9495060E9458040E945C02FDCF282FAA
:1008F00030E0C90186569F4FFC0194912A573F4F23
:10090000F9018491882391F0E82FF0E0EE0FFF1FAA
:10091000E859FF4FA591B491662329F48C919095E5
:1009200089238C9308958C91892B8C930895482F5B
:1009300050E0CA0182559F4FFC012491CA0186569E
:100940009F4FFC0194914A575F4FFA013491332332
:10095000D1F1222331F1233021F4809180008F776F
:1009600005C0243031F4809180008F7D8093800019
:1009700018C0213019F484B58F7704C0223021F4D7
:1009800084B58F7D84BD0DC0263021F48091B000E8
:100990008F7705C0273029F48091B0008F7D809338
:1009A000B000E32FF0E0EE0FFF1FEE58FF4FA591D0
:1009B000B491662329F48C91909589238C930895A2
:1009C0008C91892B8C9308951F920F920FB60F92E2
:1009D00011242F933F934F935F936F937F938F9344
:1009E0009F93AF93BF93EF93FF934091C600E09125
:1009F000D601F091D701CF01019660E870E00E9426
:100A000006079C018091D8019091D90128173907D8
:100A100039F0EA5AFE4F40833093D7012093D60134
:100A2000FF91EF91BF91AF919F918F917F916F91C6
:100A30005F914F913F912F910F900FBE0F901F909C
:100A40001895AF92BF92CF92DF92EF92FF920F93E1
:100A50001F93CF93DF936C017A018B01DC01149615
:100A6000AD90BC901597CB01BA0122E030E040E098
:100A700050E00E943B07205C3D4B404F5F4FCA0156
:100A8000B901A80197010E943B07C901DA0101974A
:100A9000A109B109292F3A2F4B2F552747FD5A9508
:100AA0000196A11DB11DE5012883E601EE81FF81BC
:100AB00081508083EA85FB85208141E050E0CA01B6
:100AC0000E8402C0880F991F0A94E2F7282B208316
:100AD000EA85FB852081CA010F8402C0880F991F17
:100AE0000A94E2F7282B2083EA85FB858081088819
:100AF00002C0440F551F0A94E2F7842B8083DF91D4
:100B0000CF911F910F91FF90EF90DF90CF90BF900A
:100B1000AF900895FC01A085B18521898C9190E06A
:100B2000022E02C0959587950A94E2F780FFF6CFD2
:100B30000484F585E02D608308958AE391E0909325
:100B4000DB018093DA0186E591E09093DD018093EB
:100B5000DC0185EC90E09093DF018093DE0184EC72
:100B600090E09093E1018093E00180EC90E090931D
:100B7000E3018093E20181EC90E09093E5018093A2
:100B8000E40186EC90E09093E7018093E60184E035
:100B90008093E80183E08093E90187E08093EA0194
:100BA00085E08093EB010895BF92CF92DF92EF92A0
:100BB000FF920F931F93CF93DF93E82EF62EB42E60
:100BC000C0E0D0E0022F10E087E0C82ED12CBB207F
:100BD00041F4B8010C2E02C0759567950A94E2F7AE
:100BE0000AC0B6016C1B7D0BC80102C095958795A4
:100BF0006A95E2F7BC0161708E2D0E9497048F2DDB
:100C000061E00E9497048F2D60E00E949704219676
:100C1000C830D105E1F6DF91CF911F910F91FF9080
:100C2000EF90DF90CF90BF9008951F920F920FB674
:100C30000F9211242F933F938F939F93AF93BF9362
:100C40008091F0019091F101A091F201B091F30136
:100C50003091F4010196A11DB11D232F2D5F2D3779
:100C600020F02D570196A11DB11D2093F401809312
:100C7000F0019093F101A093F201B093F301809100
:100C8000EC019091ED01A091EE01B091EF01019680
:100C9000A11DB11D8093EC019093ED01A093EE0195
:100CA000B093EF01BF91AF919F918F913F912F91A1
:100CB0000F900FBE0F901F9018958FB7F89420914A
:100CC000F0013091F1014091F2015091F3018FBF99
:100CD000B901CA010895EF92FF920F931F937B0110
:100CE0008C018FB7F8944091F0015091F10160911F
:100CF000F2017091F3018FBF2FB7F8948091F0014A
:100D00009091F101A091F201B091F3012FBF841BEA
:100D1000950BA60BB70BE816F9060A071B0760F739
:100D20001F910F91FF90EF900895789484B58260A1
:100D300084BD84B5816084BD85B5826085BD85B57F
:100D4000816085BDEEE6F0E0808181608083E1E82E
:100D5000F0E0808182608083808181608083E0E830
:100D6000F0E0808181608083E1EBF0E0808184604D
:100D70008083E0EBF0E0808181608083EAE7F0E04F
:100D800080818460808380818260808380818160B3
:100D900080838081806880831092C10008950F93C2
:100DA0001F93CF93DF938C01EB0109C02196D801EB
:100DB000ED91FC910190F081E02DC80109956881C9
:100DC0006623A1F7DF91CF911F910F910895EF92C4
:100DD000FF920F931F93CF93DF938C017B01EA0166
:100DE0000CC0D7016D917D01D801ED91FC9101906E
:100DF000F081E02DC80109952197209791F7DF91A7
:100E0000CF911F910F91FF90EF90089597FB092EBE
:100E100007260AD077FD04D049D006D000201AF466
:100E2000709561957F4F0895F6F7909581959F4F46
:100E30000895A1E21A2EAA1BBB1BFD010DC0AA1F1B
:100E4000BB1FEE1FFF1FA217B307E407F50720F033
:100E5000A21BB30BE40BF50B661F771F881F991FAE
:100E60001A9469F760957095809590959B01AC01F7
:100E7000BD01CF01089597FB092E05260ED057FD21
:100E800004D0D7DF0AD0001C38F450954095309537
:100E900021953F4F4F4F5F4F0895F6F790958095FE
:100EA000709561957F4F8F4F9F4F0895AA1BBB1B75
:100EB00051E107C0AA1FBB1FA617B70710F0A61B5A
:100EC000B70B881F991F5A95A9F780959095BC017B
:100ED000CD010895EE0FFF1F0590F491E02D0994C8
:040EE000F894FFCFB4
:100EE400020007000400FF00C000F900A400B000E5
:100EF400990092008200F80080009000FF00F0004A
:100F0400C100C200C400C8008100820084008800BF
:100F1400010002000300000000008A05CF06E70676
:00000001FF
