:100000000C9462000C948A000C948A000C948A0070
:100010000C948A000C948A000C948A000C948A0038
:100020000C948A000C948A000C948A000C948A0028
:100030000C948A000C948A000C948A000C948A0018
:100040000C948E010C948A000C943A020C948A0051
:100050000C948A000C948A000C948A000C948A00F8
:100060000C948A000C948A000000000024002700F1
:100070002A0000000000250028002B0000000000DE
:1000800023002600290004040404040404040202DA
:100090000202020203030303030301020408102007
:1000A0004080010204081020010204081020000012
:1000B0000007000201000003040600000000000029
:1000C0000000F30211241FBECFEFD4E0DEBFCDBF8E
:1000D00011E0A0E0B1E0ECEFFBE002C005900D9272
:1000E000AE32B107D9F711E0AEE2B1E001C01D9226
:1000F000A53DB107E1F710E0C4ECD0E004C02297C1
:10010000FE010E94F805C23CD107C9F70E941A01FE
:100110000C94FC050C940000EF92FF920F931F9338
:1001200081E00E945204AA2797FDA095BA2FBC0136
:10013000CD010E94A30460932E0170932F01809340
:1001400030019093310120E030E040EA50E40E9419
:100150002F0520E030E048EC52E40E942F0520E01B
:1001600030E040E85AE30E942F050E9470049B0192
:100170007093330160933201CB0143E0880F991FE4
:100180004A95E1F7820F931F65E070E00E949205A7
:10019000605E7F4F709335016093340103EC11E092
:1001A000C80160E071E00E946103609132017091CA
:1001B0003301C8010E944A0489E0E82E81E0F82E4C
:1001C000C801B7010E946103C80165E171E00E94A6
:1001D00061036091340170913501C8010E944A04A5
:1001E000C801B7010E94800364EF71E080E090E0F5
:1001F0000E94D6011F910F91FF90EF90089583EC1C
:1002000091E040E855E260E070E00E9477028EE005
:1002100061E00E94210180E161E00E942101809162
:100220001E0161E00E9441018091200160E00E9476
:10023000410108950E9400020E94FF000E948C006C
:10024000FDCF282F30E0C90186569F4FFC019491C5
:100250002A573F4FF9018491882391F0E82FF0E06D
:10026000EE0FFF1FE859FF4FA591B491662329F4C3
:100270008C91909589238C9308958C91892B8C93E4
:100280000895482F50E0CA0182559F4FFC012491E8
:10029000CA0186569F4FFC0194914A575F4FFA015D
:1002A00034913323D1F1222331F1233021F4809191
:1002B00080008F7705C0243031F4809180008F7DDD
:1002C0008093800018C0213019F484B58F7704C062
:1002D000223021F484B58F7D84BD0DC0263021F4F9
:1002E0008091B0008F7705C0273029F48091B0004D
:1002F0008F7D8093B000E32FF0E0EE0FFF1FEE58EC
:10030000FF4FA591B491662329F48C919095892390
:100310008C9308958C91892B8C9308951F920F9242
:100320000FB60F9211242F933F938F939F93AF9308
:10033000BF9380913A0190913B01A0913C01B09113
:100340003D0130913E010196A11DB11D232F2D5F6E
:100350002D3720F02D570196A11DB11D20933E0190
:1003600080933A0190933B01A0933C01B0933D01EF
:100370008091360190913701A0913801B0913901F7
:100380000196A11DB11D8093360190933701A09372
:100390003801B0933901BF91AF919F918F913F91F7
:1003A0002F910F900FBE0F901F901895EF92FF9214
:1003B0000F931F937B018C018FB7F89440913A0102
:1003C00050913B0160913C0170913D018FBF2FB76F
:1003D000F89480913A0190913B01A0913C01B09139
:1003E0003D012FBF841B950BA60BB70BE816F90632
:1003F0000A071B0760F71F910F91FF90EF90089578
:10040000789484B5826084BD84B5816084BD85B5EF
:10041000826085BD85B5816085BDEEE6F0E08081B6
:1004200081608083E1E8F0E0808182608083808168
:1004300081608083E0E8F0E0808181608083E1EB8F
:10044000F0E0808184608083E0EBF0E08081816077
:100450008083EAE7F0E0808184608083808182602D
:100460008083808181608083808180688083109216
:10047000C10008951F920F920FB60F9211242F936F
:100480003F934F935F936F937F938F939F93AF931C
:10049000BF93EF93FF934091C600E091BF01F091AD
:1004A000C001CF01019660E870E00E9492059C01B6
:1004B0008091C1019091C2012817390739F0E15CA0
:1004C000FE4F40833093C0012093BF01FF91EF9115
:1004D000BF91AF919F918F917F916F915F914F915C
:1004E0003F912F910F900FBE0F901F901895AF92D4
:1004F000BF92CF92DF92EF92FF920F931F93CF9311
:10050000DF936C017A018B01DC011496AD90BC90F5
:100510001597CB01BA0122E030E040E050E00E94A4
:10052000C705205C3D4B404F5F4FCA01B901A80190
:1005300097010E94C705C901DA010197A109B10914
:10054000292F3A2F4B2F552747FD5A950196A11D6C
:10055000B11DE5012883E601EE81FF818150808392
:10056000EA85FB85208141E050E0CA010E8402C08B
:10057000880F991F0A94E2F7282B2083EA85FB85D0
:100580002081CA010F8402C0880F991F0A94E2F7E4
:10059000282B2083EA85FB858081088802C0440FD0
:1005A000551F0A94E2F7842B8083DF91CF911F912E
:1005B0000F91FF90EF90DF90CF90BF90AF90089594
:1005C000FC01A085B18521898C9190E0022E02C0AA
:1005D000959587950A94E2F780FFF6CF0484F58518
:1005E000E02D6083089587E291E09093C4018093A9
:1005F000C3018FE391E09093C6018093C50185EC20
:1006000090E09093C8018093C70184EC90E09093B0
:10061000CA018093C90180EC90E09093CC01809353
:10062000CB0181EC90E09093CE018093CD0186ECDC
:1006300090E09093D0018093CF0184E08093D1012A
:1006400083E08093D20187E08093D30185E080939B
:10065000D40108950F931F93CF93DF938C01EB0187
:1006600009C02196D801ED91FC910190F081E02D17
:10067000C801099568816623A1F7DF91CF911F9189
:100680000F910895EF92FF920F931F93CF93DF93F3
:100690008C017B01EA010CC0D7016D917D01D8016D
:1006A000ED91FC910190F081E02DC8010995219711
:1006B000209791F7DF91CF911F910F91FF90EF90CD
:1006C0000895DC01ED91FC910280F381E02D099504
:1006D00008950F931F938C01DC01ED91FC91019023
:1006E000F081E02D6DE00995D801ED91FC9101902C
:1006F000F081E02DC8016AE009951F910F910895DE
:100700000F931F938C010E946103C8010E9469032B
:100710001F910F9108952F923F924F925F926F9287
:100720007F928F929F92AF92BF92CF92DF92EF9281
:10073000FF920F931F93DF93CF93CDB7DEB7A097B0
:100740000FB6F894DEBF0FBECDBF1C016A017B015E
:10075000411551056105710549F4DC01ED91FC91EC
:100760000190F081E02D60E3099554C0882499241C
:100770005401422E55246624772401E010E00C0F2A
:100780001D1F080D191DC701B601A30192010E948A
:10079000A505F80160830894811C911CA11CB11C63
:1007A000C701B601A30192010E94A505C901DA01A2
:1007B0006C017D01C114D104E104F104F1F681E082
:1007C000E82EF12CEC0EFD1EE80CF91C3E010894FD
:1007D000611C711CD501C4010197A109B1096C010B
:1007E000C818D90814C0F601EE0DFF1D60816A30EB
:1007F00010F4605D01C0695CD101ED91FC91019044
:10080000F081E02DC10109950894E108F1086E140A
:100810007F0449F7A0960FB6F894DEBF0FBECDBF98
:10082000CF91DF911F910F91FF90EF90DF90CF90CC
:10083000BF90AF909F908F907F906F905F904F9000
:100840003F902F900895EF92FF920F931F93CF93B5
:10085000DF93EC017A018B0177FF0FC0E881F9810A
:100860000190F081E02D6DE2099510950095F094CE
:10087000E094E11CF11C011D111DCE01B801A7017E
:100880002AE00E948B03DF91CF911F910F91FF907F
:10089000EF900895AB01662757FD6095762F0E9473
:1008A000230408958770909122019295990F990FD2
:1008B000907C982B90937C0080917A008064809348
:1008C0007A0080917A0086FDFCCF209178004091DB
:1008D0007900942F80E030E0282B392BC90108954E
:1008E00004D06894B111B5C0089598D088F09F578E
:1008F00090F0B92F9927B751A0F0D1F0660F771F6C
:10090000881F991F1AF0BA95C9F712C0B13081F04B
:100910009FD0B1E008959CC0672F782F8827B85FDB
:1009200039F0B93FCCF3869577956795B395D9F7AC
:100930003EF490958095709561957F4F8F4F9F4FB6
:100940000895E89409C097FB3EF4909580957095C2
:1009500061957F4F8F4F9F4F9923A9F0F92F96E90B
:10096000BB279395F695879577956795B795F11180
:10097000F8CFFAF4BB0F11F460FF1BC06F5F7F4F1D
:100980008F4F9F4F16C0882311F096E911C077232F
:1009900021F09EE8872F762F05C0662371F096E838
:1009A000862F70E060E02AF09A95660F771F881F07
:1009B000DAF7880F9695879597F9089597F99F67C5
:1009C00080E870E060E008959FEF80EC08950024D7
:1009D0000A941616170618060906089500240A94A4
:1009E00012161306140605060895092E0394000C2A
:1009F00011F4882352F0BB0F40F4BF2B11F460FFB9
:100A000004C06F5F7F4F8F4F9F4F089557FD9058E1
:100A1000440F551F59F05F3F71F04795880F97FBC2
:100A2000991F61F09F3F79F087950895121613067C
:100A30001406551FF2CF4695F1DF08C016161706AB
:100A40001806991FF1CF86957105610508940895E0
:100A5000E894BB2766277727CB0197F908950BD039
:100A6000C4CFB5DF28F0BADF18F0952309F0A6CF80
:100A7000ABCF1124EECFCADFA0F3959FD1F3950F32
:100A800050E0551F629FF001729FBB27F00DB11D12
:100A9000639FAA27F00DB11DAA1F649F6627B00DA2
:100AA000A11D661F829F2227B00DA11D621F739F8B
:100AB000B00DA11D621F839FA00D611D221F749F99
:100AC0003327A00D611D231F849F600D211D822FE0
:100AD000762F6A2F11249F5750408AF0E1F0882327
:100AE0004AF0EE0FFF1FBB1F661F771F881F915034
:100AF0005040A9F79E3F510570F060CFAACF5F3FED
:100B0000ECF3983EDCF3869577956795B795F79566
:100B1000E7959F5FC1F7FE2B880F911D96958795EE
:100B200097F9089597FB092E07260AD077FD04D080
:100B300049D006D000201AF4709561957F4F089532
:100B4000F6F7909581959F4F0895A1E21A2EAA1B62
:100B5000BB1BFD010DC0AA1FBB1FEE1FFF1FA2176D
:100B6000B307E407F50720F0A21BB30BE40BF50B6A
:100B7000661F771F881F991F1A9469F760957095F3
:100B8000809590959B01AC01BD01CF01089597FB25
:100B9000092E05260ED057FD04D0D7DF0AD0001C41
:100BA00038F450954095309521953F4F4F4F5F4F0A
:100BB0000895F6F790958095709561957F4F8F4FCA
:100BC0009F4F0895AA1BBB1B51E107C0AA1FBB1F63
:100BD000A617B70710F0A61BB70B881F991F5A95C9
:100BE000A9F780959095BC01CD010895EE0FFF1FE8
:0C0BF0000590F491E02D0994F894FFCFDB
:100BFC0074656D70433A2020002020202020202096
:100C0C00202020200074656D70463A2020000E00D4
:0E0C1C0010000100000000E0022A0342030065
:00000001FF
