:100000000C94A5000C94CD000C94CD000C94CD0064
:100010000C94CD000C94CD000C94CD000C94CD002C
:100020000C94CD000C94CD000C94CD000C94CD001C
:100030000C94CD000C94CD000C94CD000C94CD000C
:100040000C945A100C94CD000C94EC0D0C94CD0033
:100050000C94CD000C94CD000C94CD000C94CD00EC
:100060000C94CD000C94CD00084AD73B3BCE016EDA
:1000700084BCBFFDC12F3D6C74319ABD56833DDAFF
:100080003D00C77F11BED9E4BB4C3E916BAAAABE0E
:10009000000000803F05A84CCDB2D44EB93836A937
:1000A000020C50B9918688083CA6AAAA2ABE000074
:1000B00000803F00000000240027002A000000000C
:1000C00000250028002B0000000000230026002946
:1000D00000040404040404040402020202020203F1
:1000E00003030303030102040810204080010204FB
:1000F000081020010204081020000000070002017F
:1001000000000304060000000000000000494E4605
:10011000494E4954594E414ECDCCCC3D0AD7233C93
:1001200017B7D13877CC2B329595E6241FB14F0AFB
:10013000000020410000C84200401C4620BCBE4CCC
:10014000CA1B0E5AAEC59D74E10E11241FBECFEF1F
:10015000D8E0DEBFCDBF12E0A0E0B1E0EEE4FBE20C
:1001600002C005900D92A231B107D9F713E0A2E1C8
:10017000B2E001C01D92A835B107E1F711E0CAE471
:10018000D1E004C02297FE010E945F15C834D10758
:10019000C9F70E94E50D0C94A5150C940000CF93AF
:1001A000DF93BC018230910510F462E070E0A09111
:1001B0005403B0915503ED01E0E0F0E040E050E081
:1001C00021C0888199818617970769F48A819B816C
:1001D000309719F09383828304C0909355038093E2
:1001E0005403FE0134C06817790738F441155105EE
:1001F00019F08417950708F4AC01FE018A819B81F0
:100200009C01E9012097E9F641155105A9F1CA01C0
:10021000861B970B049708F4BA01E0E0F0E02AC0CF
:100220008D919C91119784179507F9F464177507C0
:1002300081F412968D919C911397309719F09383C6
:10024000828304C09093550380935403FD0132963A
:100250004CC0CA01861B970BFD01E80FF91F619383
:10026000719302978D939C9340C0FD01828193818D
:100270009C01D9011097A1F68091520390915303EC
:10028000892B41F48091B0019091B1019093530377
:10029000809352034091B2015091B3014115510531
:1002A00041F44DB75EB78091AE019091AF01481B0C
:1002B000590B2091520330915303CA01821B930BB7
:1002C0008617970780F0AB014E5F5F4F8417950745
:1002D00050F0420F531F5093530340935203F901C0
:1002E0006193719302C0E0E0F0E0CF01DF91CF9124
:1002F0000895CF93DF93009709F450C0EC01229743
:100300001B821A82A0915403B0915503109709F1F2
:1003100040E050E0AC17BD0708F1BB83AA83FE01A3
:1003200021913191E20FF31FAE17BF0779F48D9140
:100330009C911197280F391F2E5F3F4F39832883D7
:1003400012968D919C9113979B838A834115510539
:1003500071F4D0935503C093540320C012968D912D
:100360009C911397AD01009711F0DC01D3CFFA01F6
:10037000D383C28321913191E20FF31FCE17DF07A0
:1003800069F488819981280F391F2E5F3F4FFA0148
:10039000318320838A819B8193838283DF91CF91F4
:1003A00008952F923F925F926F927F928F929F92C9
:1003B000AF92BF92CF92DF92EF92FF920F931F9373
:1003C000CF93DF938C011B01EA016115710519F0D0
:1003D000FB0191838083209749F0CE010297839798
:1003E00028F020E030E040E050E0F6C0F801A190B5
:1003F0008F018A2D90E00E946315892BB9F7FDE2E9
:10040000AF1631F4F801A1908F015524539407C021
:10041000FBE2AF1619F4F801A1908F015524209743
:1004200019F0C031D105C1F4F0E3AF1679F4F80149
:100430008081883711F0883549F4F801A1800E5F7A
:100440001F4FF2E05F2AC0E1D0E006C0209721F400
:1004500080E3A816E9F427C0C830D10531F1C930CE
:10046000D10524F4C230D10531F50CC0CA30D10514
:1004700089F0C031D105F9F4C12CD12CE12CB8E0C0
:10048000FB2E28C0C12CD12CE12CA0E4FA2E22C0D6
:10049000CAE0D0E0FCECCF2EFCECDF2EFCECEF2E23
:1004A000FCE0FF2E17C0C8E0D0E0C12CD12CE12C1D
:1004B000E0E1FE2E0FC09E01442737FD4095542FEA
:1004C00060E070E080E090E80E940C15C901DA015C
:1004D0006C017D0120E030E040E050E060E03E0152
:1004E000882477FC8094982C70EDB72EBA0CE9E044
:1004F000EB1570F48A2D81548A3118F499ECB92ED9
:1005000006C08A2D81568A3150F589EAB82EBA0C78
:100510008B2D90E08C179D0714F56F3FE1F0C2160C
:10052000D306E406F506B0F0CA01B901A4019301AF
:100530000E94DA149B01AC012B0D311D411D511D90
:100540002130F0E03F07F0E04F07F0E85F0710F4DC
:1005500061E001C06FEFF801A1908F01C5CF2114B8
:10056000310481F0662331F001501040F101118314
:10057000008308C051FE1AC002501040F1011183DF
:10058000008314C067FF12C050FC05C02FEF3FEF7F
:100590004FEF5FE704C020E030E040E050E882E247
:1005A00090E0909357038093560316C050FE08C006
:1005B00050954095309521953F4F4F4F5F4F0CC060
:1005C00057FF0AC082E290E090935703809356034E
:1005D0002FEF3FEF4FEF5FE7B901CA01DF91CF91F6
:1005E0001F910F91FF90EF90DF90CF90BF90AF9051
:1005F0009F908F907F906F905F903F902F90089585
:10060000662777270C94A603FC0188279927E8948E
:1006100021912032E9F3293010F02E30C8F32B322B
:1006200041F02D3239F4689404C00E949E03820F79
:10063000911D219120532A30C0F31EF4909581958D
:100640009F4F08951F93FC0199278827BC01E894C8
:1006500011911032E9F3193010F01E30C8F31B323B
:1006600051F01D3249F4689406C00E948903610F5D
:10067000711D811D911D119110531A30B0F33EF47C
:1006800090958095709561957F4F8F4F9F4F1F91EB
:100690000895FB01DC014150504030F08D910190F4
:1006A000801919F40020B9F7881B990B0895009759
:1006B00031F4DA018D919C91009709F40EC0DC01B0
:1006C000FB013D912191222319F03217C9F3FACF92
:1006D000332331F4DA011D921C928827992708955B
:1006E0001197AF93BF93FB013D912191321771F4A4
:1006F000332321F488279927119702C01E9211965F
:10070000FA01A193B0839F918F910895222369F7F5
:10071000EACF592F482F372F262F660F771F881FB4
:10072000991F660F771F881F991F620F731F841F01
:10073000951F660F771F881F991F08957AE0979F6E
:10074000902D879F802D910D11240895A0E0B0E099
:10075000ECEAF3E00C947415EC015B016115710592
:1007600019F0FB0191838083F9908F2D90E00E9416
:100770006315892BC9F7FDE2FF1621F4F990EE24E9
:10078000E39405C02BE2F21609F4F990EE248E01F1
:1007900001501040C8016DE071E043E050E00E945C
:1007A0000605892B01F58E010E5F1F4FC80160E120
:1007B00071E045E050E00E940605892B19F48E0196
:1007C000095F1F4FA114B10419F0F50111830083D3
:1007D000E0FC04C070E090E080E814C070E090E0BD
:1007E00080E86FEF08C1C80165E171E043E050E0C7
:1007F0000E940605892B69F4A114B10429F470E064
:1008000090E080EC6FE7F7C02296F501D183C083BA
:10081000F6CF8824992440E050E060E070E0EF2DAE
:10082000E053EA30A0F5F2E0EF2A8E2D90E09C0133
:1008300028703070E2FE06C0232B79F50894811CE5
:10084000911C2BC0232B19F0089481089108DB011F
:10085000CA0112E0880F991FAA1FBB1F1A95D1F772
:10086000480F591F6A1F7B1F440F551F661F771FB4
:100870004E0F511D611D711D483929E9520729E9A3
:10088000620729E1720748F084E0E82A06C0EE3FDB
:1008900031F4E3FC39C098E0E92AF990C0CFE533A0
:1008A00011F0E53189F529912D3219F4E0E1EE2AB4
:1008B00005C02B3219F081E090E003C0299182E05D
:1008C00090E0E22FE053EA3018F0C81BD90B1CC0AF
:1008D00020E030E0FCE020383F075CF4C901880FDD
:1008E000991F880F991F280F391F220F331F2E0FB2
:1008F000311DE991E053EA3068F3E4FE03C030951E
:1009000021953F4F820E931ECE2CDD24E1FE07C0C1
:10091000A114B10421F02197F501D183C083CB014B
:10092000BA010E94DA127B018C01F3E0CF22DD24B0
:1009300023E0C216D10421F417FB109517F9109586
:1009400057016801C801B70120E030E040E050E005
:100950000E943A12882309F44AC097FE0DC02CE287
:10096000E22E21E0F22E9094819491089394C0E2BB
:10097000D0E000E010E012C094E4E92E91E0F92EFE
:10098000F6CFF7012591359145915491C601B501F6
:100990000E94FE135B016C018C1A9D0A8C169D0649
:1009A00084F7D595C7950F5F1F4F0630110529F0C5
:1009B0008CEF9FEFE80EF91EF1CFC501D6017C0147
:1009C0008D018C2D880F8D2D881F8F3F51F0C60112
:1009D000B50120E030E040E050E00E943A12882368
:1009E00031F482E290E090935703809356037E2D7A
:1009F0009F2D802F612F272F392F482F562FB90178
:100A0000CA01CDB7DEB7ECE00C949015FB01DC0118
:100A10004150504088F08D9181341CF08B350CF49E
:100A2000805E659161341CF06B350CF4605E861B52
:100A3000611171F3990B0895881BFCCFAF92BF929F
:100A4000CF92DF92EF92FF920F931F93CF93DF939A
:100A5000EC016B015C01A61AB70AB501882777FD86
:100A60008095982F0E94DC127B018C019F7720E0FB
:100A700030E044E353E40E94F3131816ACF48CE422
:100A8000A8168FEFB8061CF4C859DE4F02C0C8562E
:100A9000D140CC19DD09BE01882777FD8095982FBC
:100AA0000E94DC127B018C01C801B7010E94A912CF
:100AB000CB01DF91CF911F910F91FF90EF90DF90CD
:100AC000CF90BF90AF9008956F927F928F929F9238
:100AD000AF92BF92CF92DF92EF92FF920F931F934C
:100AE000CF93DF93EC0190932F0280932E02BE01EF
:100AF000882777FD8095982F0E94DC123B014C01DE
:100B000020911E0230911F0240912002509121023B
:100B10000E9474117B018C0120E030E849E854EC1C
:100B20000E943A1288235CF40F2EF0E0EF2EF0E8DA
:100B3000FF2EF9E80F2FF4EC1F2FF02D14C0C80181
:100B4000B70120E030E849E854E40E94F313181696
:100B500054F40F2EF0E0EF2EF0E8FF2EF9E80F2FFF
:100B6000F4E41F2FF02DE0921E02F0921F0200937A
:100B700020021093210260911C0270911D028827AF
:100B800077FD8095982F0E94DC129B01AC01C40177
:100B9000B3010E9473115B016C016093AC0270930E
:100BA000AD028093AE029093AF02C401B30120E086
:100BB00030E040E250E40E94FE133B014C016093A0
:100BC0002202709323028093240290932502C8018D
:100BD000B7012FE832EC45EF5CE30E94FE137B0186
:100BE0008C016093260270932702809328029093D1
:100BF0002902C601B5012DEC3CEC4CEC5DE30E94F2
:100C0000FE135B016C01C401B301A80197010E94AE
:100C10007411A60195010E9474117B018C01A092B0
:100C20002A02B0922B02C0922C02D0922D0220E018
:100C300030E04CE852EC0E943A1288235CF40F2E0C
:100C4000F0E0EF2EF0E0FF2EFCE80F2FF2EC1F2F6C
:100C5000F02D14C0C801B70120E030E04CE852E4A8
:100C60000E94F313181654F40F2EF0E0EF2EF0E06C
:100C7000FF2EFCE80F2FF2E41F2FF02DE092A802C8
:100C8000F092A9020093AA021093AB02D0931D0226
:100C9000C0931C02C801B70190580E94A912CB0151
:100CA000DF91CF911F910F91FF90EF90DF90CF9048
:100CB000BF90AF909F908F907F906F9008952CE49D
:100CC00034E040E050E00E94DA1424EB30E040E0F1
:100CD00050E00E942E1528513C4F4F4F5F4F220F7E
:100CE000331F441F551F30938900209388000895B7
:100CF0002CE434E040E050E00E94DA1424EB30E0D1
:100D000040E050E00E942E1528513C4F4F4F5F4F5E
:100D1000220F331F441F551F30938B0020938A00EE
:100D200008956AE570E080E090E00E945F06089513
:100D300065E070E080E090E00E945F06089564E165
:100D400070E080E090E00E9478068DE061E00E9413
:100D500026116CED75E080E090E00E94A21060EA40
:100D600070E080E090E00E9478068DE060E00E94F4
:100D700026116CED75E080E090E00E94A2108DE0FD
:100D800061E00E9426116AE570E080E090E00E9438
:100D900078066CED75E080E090E00E94A210089566
:100DA0006AE570E080E090E00E945F0664EF71E029
:100DB00080E090E00E94A21065E070E080E090E0AA
:100DC0000E945F0664EF71E080E090E00E94A21054
:100DD00008950E9498068DE060E00E94261164E666
:100DE00070E080E090E00E94A2108DE061E00E943F
:100DF000261164E670E080E090E00E94A210EBCF44
:100E00008AE060E00E9426118AE061E00E940611FB
:100E100089E060E00E94261189E061E00E940611ED
:100E200082EA809380008AE18093810084EC99E0DB
:100E3000909389008093880088EB9BE090938B00CF
:100E400080938A0080E49CE99093870080938600D9
:100E500008950F931F9307E313E0C80140EC52E19C
:100E600060E070E00E94290E64E670E080E090E0AF
:100E70000E94A210C80160E071E00E946E0F64E65B
:100E800070E080E090E00E94A210C80140E855E2C6
:100E900060E070E00E94290E1F910F9108950E945A
:100EA000290787E393E040E855E260E070E00E94A4
:100EB000290E82E060E00E94061183E060E00E945B
:100EC000061184E060E00E94061185E060E00E9467
:100ED00006118BE061E00E9406118CE061E00E9447
:100EE00006118DE061E00E94061108952F923F9255
:100EF0004F925F926F927F928F929F92AF92BF922A
:100F0000CF92DF92EF92FF920F931F93DF93CF93D5
:100F100000D000D0CDB7DEB73B014C0129833A8326
:100F20004B835C83C801B701A40193010E94731134
:100F300023E333E34AE852E40E94FE131B012C0131
:100F4000C401B30123E333E345E652E40E944112B6
:100F50000E943E127B018C01C601B50129813A81B4
:100F60004B815C810E94731123E333E34AE852E42E
:100F70000E94FE13A80197010E94FE137B018C01C1
:100F8000C201B101A20191010E94FE135B016C013B
:100F9000C801B701A80197010E94FE139B01AC0193
:100FA000C601B5010E9474110E94651422E03BE263
:100FB00049EC54E40E94FE130E94AE12CB010F9044
:100FC0000F900F900F90CF91DF911F910F91FF9095
:100FD000EF90DF90CF90BF90AF909F908F907F90D9
:100FE0006F905F904F903F902F9008952F923F9277
:100FF0004F925F926F927F928F929F92AF92BF9229
:10100000CF92DF92EF92FF920F931F93DF93CF93D4
:1010100000D000D0CDB7DEB769837A838B839C8301
:1010200019012A0123E333E345E652E40E94411209
:101030000E943E123B014C01C601B501A201910183
:101040000E94731123E333E34AE852E40E94FE1343
:10105000A40193010E94FE135B016C01C801B7015A
:1010600029813A814B815C810E94731123E333E330
:101070004AE852E40E94FE139B01AC01C601B5018F
:101080000E94E71121EE3EE245E652E40E94FE1383
:101090007B018C0120E030E040E85FE30E943A12DF
:1010A000181654F0C801B70120E030E044EB53E4D7
:1010B0000E9474117B018C01C801B7010E94A91222
:1010C000CB010F900F900F900F90CF91DF911F9158
:1010D0000F91FF90EF90DF90CF90BF90AF909F90D7
:1010E0008F907F906F905F904F903F902F900895DA
:1010F0008F929F92AF92BF92CF92DF92EF92FF9228
:101100000F931F93E0911602F0E0609191027091AD
:1011100092028091930290919402209195023091D5
:101120009602409197025091980213E0EE0FFF1F34
:101130001A95E1F7B4EB8B2EB1E09B2ED401AE0FE4
:10114000BF1F1496ED90FD900D911C911797E80D1F
:10115000F91DA080B180C280D3800E94F6079093D1
:10116000190280931802E0911602F0E0609191025A
:101170007091920280919302909194022091950235
:10118000309196024091970250919802B3E0EE0F91
:10119000FF1FBA95E1F7D401AE0FBF1F1496ED9073
:1011A000FD900D911C9117978E0E9F1EF401A0804B
:1011B000B180C280D3800E94760790931B028093F7
:1011C0001A026091A1027091A2028091180290917E
:1011D00019020E941E050E946405865A9F4F909333
:1011E000A7028093A602AA2797FDA095BA2FBC015B
:1011F000CD010E9478061F910F91FF90EF90DF9034
:10120000CF90BF90AF909F908F9008952F923F9274
:101210004F925F926F927F928F929F92AF92BF9206
:10122000CF92DF92EF92FF920F931F93DF93CF93B2
:10123000CDB7DEB72C970FB6F894DEBF0FBECDBF8B
:10124000DE011196E9E1F1E086E001900D92815016
:10125000E1F7DE011796EFE1F1E086E001900D92F3
:101260008150E1F7C0C280910602882369F487E3C8
:1012700093E00E94A60E80933002843209F0BCC233
:1012800081E080930602B8C28091B002882E992432
:1012900087E393E00E94A60E20E332E0820E931EC5
:1012A000F40180839091B002E92FF0E0E20FF31F88
:1012B00080818A3009F093C210920602C901B201FE
:1012C00045E050E00E944903009709F09AC120913F
:1012D000B20280E090E0FC01E05DFD4FE08101960C
:1012E000EA3269F42093B202805D9D4F60E070E0C5
:1012F00040E150E00E94D1016093B10206C02E2768
:101300008436910541F72093B2029091B102809109
:10131000B202981709F073C160910402709105023E
:1013200080E392E04CE852E00E94570390938B02D6
:1013300080938A02609104027091050280E090E03F
:101340004CE852E00E94570390938B0280938A02EC
:101350000E9422036093990270939A0280939B02E9
:1013600090939C02609104027091050280E090E0ED
:101370004CE852E00E94570390938B0280938A02BC
:10138000609104027091050280E090E04CE852E028
:101390000E94570390938B0280938A026EE872E05A
:1013A0004AE050E00E94D101962E872E782E692EB9
:1013B00080918E0290918F02019660E070E04AE089
:1013C00050E00E94D1015B016C01692D782D872DC1
:1013D000962D20E137E240E050E00E94DA147B01D4
:1013E0008C01EA0CFB1C0C1D1D1D692D782D872D11
:1013F000962D24E630E040E050E00E940C15CA0132
:10140000B9010E94DA125B016C01C801B70120E446
:1014100032E44FE050E00E940C150E94DA1220E006
:101420003CE742E159E40E9441129B01AC01C60134
:10143000B5010E947411609391027093920280939F
:10144000930290939402609104027091050280E0EF
:1014500090E04CE852E00E945703FC0190938B020D
:1014600080938A028081833589F4809191029091E2
:101470009202A0919302B0919402B058809391028D
:1014800090939202A0939302B0939402609104020D
:101490007091050280E090E04CE852E00E94570312
:1014A00090938B0280938A026EE872E04AE050E0EB
:1014B0000E94D101962E872E782E692E80918E0261
:1014C00090918F02019660E070E04AE050E00E9447
:1014D000D1015B016C01692D782D872D962D20E1BE
:1014E00037E240E050E00E94DA147B018C01EA0C04
:1014F000FB1C0C1D1D1D692D782D872D962D24E6B6
:1015000030E040E050E00E940C15CA01B9010E9491
:10151000DA125B016C01C801B70120E432E44FE04C
:1015200050E00E940C150E94DA1220E03CE742E1F4
:1015300059E40E9441129B01AC01C601B5010E9411
:101540007411609395027093960280939702909322
:101550009802609104027091050280E090E04CE8EE
:1015600052E00E945703FC0190938B0280938A0201
:101570008081873589F48091950290919602A0919F
:101580009702B0919802B05880939502909396027A
:10159000A0939702B09398026091040270910502A3
:1015A00080E090E04CE852E00E94570390938B0259
:1015B00080938A020E94000360939D0270939E02B2
:1015C00080939F029093A0026091040270910502A3
:1015D00080E090E04CE852E00E94570390938B0229
:1015E00080938A020E9404039093A2028093A10236
:1015F0008091A50281608093A5021092170210923B
:10160000B20280E392E0B10145E050E00E9449035C
:10161000009709F0D3C02091B20280E090E0FC0175
:10162000E05DFD4FE0810196EA3269F42093B20259
:10163000805D9D4F60E070E040E150E00E94D1018C
:101640006093B10206C02E278436910541F720939E
:10165000B2029091B1028091B202981709F0ACC029
:10166000609104027091050280E392E04CE852E040
:101670000E94570390938B0280938A026091040228
:101680007091050280E090E04CE852E00E94570320
:1016900090938B0280938A026091040270910502FC
:1016A00080E090E04CE852E00E94570390938B0258
:1016B00080938A02609104027091050280E090E0BC
:1016C0004CE852E00E94570390938B0280938A0269
:1016D000609104027091050280E090E04CE852E0D5
:1016E0000E94570390938B0280938A0260910402B8
:1016F0007091050280E090E04CE852E00E945703B0
:1017000090938B0280938A0260910402709105028B
:1017100080E090E04CE852E00E94570390938B02E7
:1017200080938A020E9404038093900260910402D5
:101730007091050280E090E04CE852E00E9457036F
:1017400090938B0280938A0260910402709105024B
:1017500080E090E04CE852E00E94570390938B02A7
:1017600080938A02609104027091050280E090E00B
:101770004CE852E00E94570390938B0280938A02B8
:101780000E9404039093A4028093A30297FF04C0D5
:101790001092A4021092A30280919002882319F063
:1017A0008CE061E002C08CE060E00E942611809134
:1017B000A50282608093A5021092B2028091B002CD
:1017C00090E020E030E0F901E05DFD4F10822F5FF6
:1017D0003F4F82179307BCF71092B0020DC09F5F76
:1017E0009093B00209C02E010894411C511C07E0DF
:1017F000202E312C2C0E3D1E87E393E00E94920E8A
:10180000882309F030CD2C960FB6F894DEBF0FBEBA
:10181000CDBFCF91DF911F910F91FF90EF90DF909F
:10182000CF90BF90AF909F908F907F906F905F9080
:101830004F903F902F9008950E940609809190024A
:101840008823D1F36091910270919202809193026A
:101850009091940220E030E040E050E00E943A1283
:10186000882351F31092A5020E9406090E9478086D
:1018700008950F931F9384E090E00E94CF008C01A5
:101880000E9479012DB73EB7201B310BC9011F9172
:101890000F910895EF92FF920F931F9307E313E0C8
:1018A000C80165E271E00E946E0F62E370E080E0C3
:1018B00090E00E94A210C8016AEF70E00E944210FE
:1018C00081E6E82E81E0F82EC801B7010E944F0F93
:1018D000C80163E070E00E944210C801B7010E9495
:1018E0004F0FC8016AE070E00E944210C801B701C2
:1018F0000E944F0FC8016CE474E00E944210C801BE
:10190000B7010E944F0F0E94390CBC01C8010E9410
:101910004A1062E370E080E090E00E94A210C801EB
:1019200064E671E00E946E0F62E370E080E090E098
:101930000E94A2101F910F91FF90EF9008950E94B6
:101940004F078AE090E090931302809312020E9466
:1019500000070E949F0660ED77E080E090E00E9423
:10196000A2100E944A0C64EF71E080E090E00E94B7
:10197000A2100E941C0C0E949F060E94D0060E948A
:10198000910668E873E180E090E00E94A2100E9456
:101990001C0C0895EF92FF920F931F9307E313E03F
:1019A0006091A1027091A202C8010E9442109AEABD
:1019B000E92E91E0F92EC801B7010E944F0F609106
:1019C000180270911902C8010E944210C801B701A3
:1019D0000E944F0F60912E0270912F02C8010E9449
:1019E0004210C801B7010E944F0F60911A02709116
:1019F0001B02C8010E941510C801B7010E944F0FB9
:101A00004091990250919A0260919B0270919C02C0
:101A1000C8010E941110C801B7010E944F0F6091C8
:101A2000A6027091A702C8010E944210C801B70126
:101A30000E944F0F60911602C80170E00E94421090
:101A4000C801B7010E944F0F6091220270912302DA
:101A500080912402909125020E94A9129B01AC0161
:101A6000C801B9010E944210C801B7010E944F0F7E
:101A7000609126027091270280912802909129029C
:101A80000E94A9129B01AC01C801B9010E94421039
:101A9000C801B7010E944F0F60912A0270912B027A
:101AA00080912C0290912D020E94A9129B01AC0101
:101AB000C801B9010E944210C801B7010E944F0F2E
:101AC00060919D0270919E0280919F029091A00270
:101AD00020E030E040E951E40E94FE1360939D0253
:101AE00070939E0280939F029093A0020E94A9127D
:101AF0009B01AC01C801B9010E944210C801B701A5
:101B00000E944F0F6091A3027091A402C8010E942D
:101B10004210C8010E94570F1F910F91FF90EF9044
:101B200008950E9406098091A50280FF29C08DE0DA
:101B300061E00E9426118091A5028E7F8093A5020C
:101B40000E9478088091140290911502019690935A
:101B50001502809314020197499780F410921D0298
:101B600010921C0280E090E0A0E0B0E080931E02A2
:101B700090931F02A0932002B09321020E94CA0CEE
:101B800080911A0290911B020A97D0F4809117025B
:101B90008823B1F4809116028F5F8093160221E0B2
:101BA00020931702109215021092140290E02091D7
:101BB0001202309113028217930714F00E94E90673
:101BC0008DE060E00E94261108950E94CC100E94D2
:101BD0009F0C0E94910DFDCF1F920F920FB60F9296
:101BE00011242F933F934F935F936F937F938F9322
:101BF0009F93AF93BF93EF93FF934091C600E09103
:101C00003303F0913403CF01019660E870E00E9445
:101C1000F9149C01809135039091360328173907F8
:101C200039F0ED54FD4F4083309334032093330358
:101C3000FF91EF91BF91AF919F918F917F916F91A4
:101C40005F914F913F912F910F900FBE0F901F907A
:101C50001895AF92BF92CF92DF92EF92FF920F93BF
:101C60001F93CF93DF936C017A018B01DC011496F3
:101C7000AD90BC901597CB01BA0122E030E040E076
:101C800050E00E942E15205C3D4B404F5F4FCA0133
:101C9000B901A80197010E942E15C901DA01019727
:101CA000A109B109292F3A2F4B2F552747FD5A95E6
:101CB0000196A11DB11DE5012883E601EE81FF819A
:101CC00081508083EA85FB85208141E050E0CA0194
:101CD0000E8402C0880F991F0A94E2F7282B2083F4
:101CE000EA85FB852081CA010F8402C0880F991FF5
:101CF0000A94E2F7282B2083EA85FB8580810888F7
:101D000002C0440F551F0A94E2F7842B8083DF91B1
:101D1000CF911F910F91FF90EF90DF90CF90BF90E8
:101D2000AF900895DC011296ED91FC911397E05865
:101D3000FF4F8191919180589F4F20813181821B6B
:101D4000930B60E870E00E94F9140895CF93DF933D
:101D5000DC011296ED91FC911397EF01CE57DF4F06
:101D600048815981E058FF4F80819181E058F040CF
:101D70008417950719F42FEF3FEF0CC0E40FF51F00
:101D80002081CA01019660E870E00E94F9149983ED
:101D9000888330E0C901DF91CF910895FC01A085CF
:101DA000B18521898C9190E0022E02C0959587958E
:101DB0000A94E2F780FFF6CF0484F585E02D608376
:101DC00008958BE092E0909338038093370383EB80
:101DD00092E090933A038093390385EC90E09093DE
:101DE0003C0380933B0384EC90E090933E0380930C
:101DF0003D0380EC90E09093400380933F0381EC9F
:101E000090E0909342038093410386EC90E090939E
:101E100044038093430384E08093450383E08093ED
:101E2000460387E08093470385E080934803089545
:101E30000F931F93CF93DF938C01EB0109C0219681
:101E4000D801ED91FC910190F081E02DC801099538
:101E500068816623A1F7DF91CF911F910F910895BB
:101E6000EF92FF920F931F93CF93DF938C017B012F
:101E7000EA010CC0D7016D917D01D801ED91FC9173
:101E80000190F081E02DC80109952197209791F7E5
:101E9000DF91CF911F910F91FF90EF900895DC019A
:101EA000ED91FC910280F381E02D099508950F9347
:101EB0001F938C01DC01ED91FC910190F081E02DEC
:101EC0006DE00995D801ED91FC910190F081E02D34
:101ED000C8016AE009951F910F9108950F931F9310
:101EE0008C010E944F0FC8010E94570F1F910F9144
:101EF00008952F923F924F925F926F927F928F92AE
:101F00009F92AF92BF92CF92DF92EF92FF920F9388
:101F10001F93DF93CF93CDB7DEB7A0970FB6F8949A
:101F2000DEBF0FBECDBF1C016A017B01411551050B
:101F30006105710549F4DC01ED91FC910190F0819E
:101F4000E02D60E3099554C0882499245401422E61
:101F500055246624772401E010E00C0F1D1F080DA6
:101F6000191DC701B601A30192010E940C15F801C9
:101F700060830894811C911CA11CB11CC701B6018F
:101F8000A30192010E940C15C901DA016C017D01C7
:101F9000C114D104E104F104F1F681E0E82EF12C42
:101FA000EC0EFD1EE80CF91C3E010894611C711C2E
:101FB000D501C4010197A109B1096C01C818D9085C
:101FC00014C0F601EE0DFF1D60816A3010F4605DF3
:101FD00001C0695CD101ED91FC910190F081E02D8F
:101FE000C10109950894E108F1086E147F0449F7CE
:101FF000A0960FB6F894DEBF0FBECDBFCF91DF9194
:102000001F910F91FF90EF90DF90CF90BF90AF9016
:102010009F908F907F906F905F904F903F902F9008
:1020200008952AE00E94790F0895AB0160E070E006
:102030000E9411100895EF92FF920F931F93CF9378
:10204000DF93EC017A018B0177FF0FC0E881F98102
:102050000190F081E02D6DE2099510950095F094C6
:10206000E094E11CF11C011D111DCE01B801A70176
:102070002AE00E94790FDF91CF911F910F91FF907D
:10208000EF900895AB01662757FD6095762F0E946B
:102090001B1008950F931F938C01AB01662757FD0A
:1020A0006095762F0E941B10C8010E94570F1F9148
:1020B0000F9108951F920F920FB60F9211242F9334
:1020C0003F938F939F93AF93BF9380914D039091D4
:1020D0004E03A0914F03B0915003309151030196EC
:1020E000A11DB11D232F2D5F2D3720F02D570196F7
:1020F000A11DB11D2093510380934D0390934E0376
:10210000A0934F03B09350038091490390914A03E9
:10211000A0914B03B0914C030196A11DB11D80937A
:10212000490390934A03A0934B03B0934C03BF9190
:10213000AF919F918F913F912F910F900FBE0F9074
:102140001F901895EF92FF920F931F937B018C01C4
:102150008FB7F89440914D0350914E0360914F0317
:10216000709150038FBF2FB7F89480914D039091D9
:102170004E03A0914F03B09150032FBF841B950BCA
:10218000A60BB70BE816F9060A071B0760F71F91A5
:102190000F91FF90EF900895789484B5826084BD8C
:1021A00084B5816084BD85B5826085BD85B581605B
:1021B00085BDEEE6F0E0808181608083E1E8F0E0BB
:1021C000808182608083808181608083E0E8F0E0AC
:1021D000808181608083E1EBF0E080818460808396
:1021E000E0EBF0E0808181608083EAE7F0E08081CD
:1021F000846080838081826080838081816080832D
:102200008081806880831092C1000895282F30E07B
:10221000C9018B519F4FFC0194912F523F4FF901FF
:102220008491882391F0E82FF0E0EE0FFF1FED542A
:10223000FF4FA591B491662329F48C919095892341
:102240008C9308958C91892B8C930895482F50E09E
:10225000CA0187509F4FFC012491CA018B519F4FA7
:10226000FC0194914F525F4FFA0134913323D1F125
:10227000222331F1233021F4809180008F7705C033
:10228000243031F4809180008F7D8093800018C0CD
:10229000213019F484B58F7704C0223021F484B53D
:1022A0008F7D84BD0DC0263021F48091B0008F77E2
:1022B00005C0273029F48091B0008F7D8093B00055
:1022C000E32FF0E0EE0FFF1FE354FF4FA591B49111
:1022D000662329F48C91909589238C9308958C9191
:1022E000892B8C9308955058BB27AA270ED030C253
:1022F000F0D130F0F5D120F031F49F3F11F41EF40D
:10230000C0C10EF4E095E7FBB6C1E92F43D280F3DC
:10231000BA17620773078407950718F071F49EF5E2
:102320005BC20EF4E0950B2EBA2FA02D0B01B90164
:1023300090010C01CA01A0011124FF27591B99F03B
:10234000593F50F4503E68F11A16F040A22F232F47
:10235000342F4427585FF3CF469537952795A79597
:10236000F0405395C9F77EF41F16BA0B620B730B3E
:10237000840BBAF09150A1F0FF0FBB1F661F771FAF
:10238000881FC2F70EC0BA0F621F731F841F48F464
:10239000879577956795B795F7959E3F08F0B3CFEA
:1023A0009395880F08F09927EE0F979587950895D4
:1023B00090D158F080E891E009F49EEF91D128F097
:1023C00040E851E059F45EEF09C05BC105C2E92F56
:1023D000E078E0D168F3092E052AC1F32617370704
:1023E0004807590738F00E2E07F8E02569F0E02578
:1023F000E0640AC0EF6307F8009407FADB01B90153
:102400009D01DC01CA01AD01EF934AD0A1D10AD0F0
:102410005F91552331F02BED3FE049E450FD49EC4D
:1024200063CF0895DF93DD27B92FBF7740E85FE3DF
:102430001616170648075B0710F4D92FD8D19F93BB
:102440008F937F936F938BD2E8E6F0E01DD180D11C
:102450002F913F914F915F91DDD1DD2349F090584D
:10246000A2EA2AED3FE049EC5FE3D0785D274DDF3B
:10247000DF916EC1DCD008F481E0089539D1E39595
:1024800078C10CD065C12CD140F023D130F021F4BB
:102490005F3F19F0F0C05111A0C1F3C07BD198F398
:1024A0009923C9F35523B1F3951B550BBB27AA27D5
:1024B00062177307840738F09F5F5F4F220F331F47
:1024C000441FAA1FA9F333D00E2E3AF0E0E830D013
:1024D00091505040E695001CCAF729D0FE2F27D016
:1024E000660F771F881FBB1F261737074807AB07E4
:1024F000B0E809F0BB0B802DBF01FF2793585F4F59
:102500002AF09E3F510568F0B6C067C15F3FECF30B
:10251000983EDCF3869577956795B795F7959F5F1D
:10252000C9F7880F911D9695879597F90895E1E071
:10253000660F771F881FBB1F621773078407BA07D0
:1025400020F0621B730B840BBA0BEE1F88F7E0952B
:10255000089504D06894B11140C1089523D188F042
:102560009F5790F0B92F9927B751A0F0D1F0660F7F
:10257000771F881F991F1AF0BA95C9F712C0B1309A
:1025800081F02AD1B1E0089527C1672F782F8827DD
:10259000B85F39F0B93FCCF3869577956795B395D9
:1025A000D9F73EF490958095709561957F4F8F4F48
:1025B0009F4F0895E89409C097FB3EF4909580954D
:1025C000709561957F4F8F4F9F4F9923A9F0F92FF9
:1025D00096E9BB279395F695879577956795B79577
:1025E000F111F8CFFAF4BB0F11F460FF1BC06F5F5D
:1025F0007F4F8F4F9F4F16C0882311F096E911C06F
:10260000772321F09EE8872F762F05C0662371F08F
:1026100096E8862F70E060E02AF09A95660F771FA3
:10262000881FDAF7880F9695879597F90895990F7F
:102630000008550FAA0BE0E8FEEF16161706E8078C
:10264000F907C0F012161306E407F50798F0621BAD
:10265000730B840B950B39F40A2661F0232B242B82
:10266000252B21F408950A2609F4A140A6958FEFA1
:10267000811D811D089597F99F6780E870E060E0F3
:1026800008959FEF80EC0895DF93CF931F930F93EE
:10269000FF92EF92DF927B018C01689405C0DA2EE5
:1026A000EF01B8D0FE01E894A591259135914591AF
:1026B0005591AEF3EF0129DEFE019701A801DA94EE
:1026C00079F7DF90EF90FF900F911F91CF91DF91FD
:1026D000089500240A941616170618060906089588
:1026E00000240A9412161306140605060895C9CF8D
:1026F00059D0E8F3E894EFEFBB273FE048EC5FE701
:102700006B3D73078407950708F1FF279F57B25A5F
:102710006A4D7F40894CF04032F4BE556542704F9F
:102720008643FF4F0894EE1F915030F0BB0F661F99
:10273000771F881FFF1FEBCF9EE7882332F0BB0F68
:10274000661F771F881F9A95C1F79395E0950AC178
:10275000092E0394000C11F4882352F0BB0F40F4AF
:10276000BF2B11F460FF04C06F5F7F4F8F4F9F4FEF
:102770000895EF93E0FF06C0A2EA2AED3FE049EC9E
:102780005FEBC3DDE5DF0F90039401FC9058E5E9B2
:10279000F0E0FFC057FD9058440F551F59F05F3FC0
:1027A00071F04795880F97FB991F61F09F3F79F073
:1027B00087950895121613061406551FF2CF4695F5
:1027C000F1DF08C0161617061806991FF1CF869577
:1027D0007105610508940895E894BB27662777275B
:1027E000CB0197F9089523DF08F48FEF08959B013B
:1027F000AC0160E070E080E89FE343CE0BD0A8CF4F
:1028000068DF28F06DDF18F0952309F034CF39CF59
:102810001124E3CFBFDFA0F3959FD1F3950F50E0D4
:10282000551F629FF001729FBB27F00DB11D639F82
:10283000AA27F00DB11DAA1F649F6627B00DA11D28
:10284000661F829F2227B00DA11D621F739FB00DCE
:10285000A11D621F839FA00D611D221F749F33273E
:10286000A00D611D231F849F600D211D822F762FD7
:102870006A2F11249F5750408AF0E1F088234AF0D4
:10288000EE0FFF1FBB1F661F771F881F9150504020
:10289000A9F79E3F510570F0EECE9FCF5F3FECF35E
:1028A000983EDCF3869577956795B795F795E7950C
:1028B0009F5FC1F7FE2B880F911D9695879597F91D
:1028C000089511F40EF4DDCE4DC06CDFD0F39923E2
:1028D000D9F3CEF39F57550B87FF54D05695979554
:1028E000B0E020F4660F771F881FBB1F1F930F9364
:1028F00000249001A0018001F001A0E80E0F1F1F2D
:102900000A1E511D601B710B8009B50B48F4600F46
:10291000711F801DB51F0E1B1F0B0A0A510907C02E
:102920002E0F3F1F4A1F0E0F1F1F0A1E511D660F3D
:10293000771F881FBB1FA695F795E795F8F6061732
:10294000170708065B07211D311D411D0F911F91BF
:10295000B901842F9158880F9695879508959B010A
:10296000AC014CCF9F3F49F0915028F48695779564
:102970006795B7959F5F80389F4F880F969587958D
:1029800097F9089591505040660F771F881FD2F72E
:1029900008959F938F937F936F93FF93EF939B0182
:1029A000AC012CDFEF91FF916FDE2F913F914F91A2
:1029B0005F9124CF629FD001739FF001829FE00D51
:1029C000F11D649FE00DF11D929FF00D839FF00DAE
:1029D000749FF00D659FF00D9927729FB00DE11D5A
:1029E000F91F639FB00DE11DF91FBD01CF01112437
:1029F000089597FB092E07260AD077FD04D049D009
:102A000006D000201AF4709561957F4F0895F6F76F
:102A1000909581959F4F0895A1E21A2EAA1BBB1B8A
:102A2000FD010DC0AA1FBB1FEE1FFF1FA217B3079A
:102A3000E407F50720F0A21BB30BE40BF50B661FB0
:102A4000771F881F991F1A9469F760957095809574
:102A500090959B01AC01BD01CF01089597FB092E14
:102A600005260ED057FD04D0D7DF0AD0001C38F45D
:102A700050954095309521953F4F4F4F5F4F0895AA
:102A8000F6F790958095709561957F4F8F4F9F4F8A
:102A90000895AA1BBB1B51E107C0AA1FBB1FA617A5
:102AA000B70710F0A61BB70B881F991F5A95A9F7F7
:102AB00080959095BC01CD010895EE0FFF1F059004
:102AC000F491E02D0994911106C0803219F08950DB
:102AD0008550D0F708959927882708952F923F921F
:102AE0004F925F926F927F928F929F92AF92BF921E
:102AF000CF92DF92EF92FF920F931F93CF93DF93CA
:102B0000CDB7DEB7CA1BDB0B0FB6F894DEBF0FBE26
:102B1000CDBF09942A88398848885F846E847D8473
:102B20008C849B84AA84B984C884DF80EE80FD8075
:102B30000C811B81AA81B981CE0FD11D0FB6F894EB
:0E2B4000DEBF0FBECDBFED010895F894FFCFAC
:102B4E0024505352463130302C312C393630302C03
:102B5E00382C312C302A3044004750524D43004718
:102B6E0050474741004B505F48454144494E470945
:102B7E0009204B495F48454144494E470909204BBE
:102B8E00445F48454144494E47090920494E544542
:102B9E00475241544F525F4D415809092052414D01
:102BAE00000909004973740920536F6C6C09206584
:102BBE007272092044697374092054696D65092085
:102BCE00527564640920575009207069645F70095A
:102BDE00207069645F6909207069645F64092073FD
:102BEE00706565640920616C740009002C0020007A
:102BFE0058030000244C2041A7654142AD532041AB
:102C0E00D6634142724D20413D664142B35520414B
:102C1E00E56341426F5020417C664142D2572041CC
:102C2E0002644142F0522041D2664142775920411E
:102C3E00566441421B562041BE664142B95920415D
:102C4E0003674142AC010100000000CE0E180F30A8
:022C5E000F0065
:00000001FF
